:020000040000FA
:1010000088170010D5100000DD10000089240000B2
:1010100000000000000000000000000000000000D0
:10102000000000000000000000000000E1100000CF
:101030000000000000000000E3100000BD3E0000C2
:10104000E7100000E7100000E7100000E7100000C4
:10105000E7100000E7100000E7100000E7100000B4
:10106000E7100000E7100000E7100000E7100000A4
:10107000E7100000E7100000E7100000E710000094
:10108000E7100000651F0000E7100000E7100000F7
:10109000E7100000D1400000294100008941000014
:1010A000E7100000E7100000E7100000E710000064
:1010B000E7100000E7100000E7100000E710000054
:1010C0000348854600F0E4FC004800473D5D000011
:1010D000881700100448804704480047FEE7FEE7F1
:1010E000FEE7FEE7FEE7FEE72D400000C11000002E
:1010F00030B50B46014600202022012409E00D46B0
:10110000D5409D4205D31D469540491B2546954037
:1011100040191546521E002DF1DC30BD03460B432D
:101120009B0703D009E008C9121F08C0042AFAD29D
:1011300003E00B780370401C491C521EF9D2704723
:10114000D2B201E00270401C491EFBD2704700225F
:10115000F6E710B513460A4604461946FFF7F0FFB6
:10116000204610BD421E5378521C002BFBD10B7839
:101170001370491C521C002BF9D1704730B505463D
:101180002A460B4610781C78521C5B1C002801D0A4
:10119000A042F7D0002C03D0002802D06D1CEFE74E
:1011A000284630BDCAB2401E4178401C8A4202D057
:1011B0000029F9D100207047421C0178401C002909
:1011C000FBD1801A704710B5002200E0521C835CEE
:1011D0008C5CA34201D1002BF8D1D8B2E1B2401A05
:1011E00010BD30B504460020034600E05B1C93426E
:1011F00003D2E05CCD5C401BF8D030BD03460A78DA
:101200000270401C491C002AF9D11846704703217E
:10121000001D401E037812021A43491EF9D51046DC
:101220007047034603220870000A491C521EFAD573
:10123000184670470FB400B58DB009900B9010A9F7
:1012400000200091C0430A9000200C9006480690B0
:10125000064807906A4609A80F9900F02FFB0DB0C9
:1012600008BC04B018470000DD180000FD1800009D
:10127000FFB50027FF4383B000205C6801909E68A3
:101280001D46A9697F1C049888470090296A8847F1
:101290000028F6D10098401C0CD003204002844363
:1012A000002E19DD600614D500982B2809D02D28B2
:1012B0000FD103E00020C04307B0F0BD0120800241
:1012C0000443A9697F1C04988847761E0090002E6D
:1012D00002DD0098302803D00598002825D035E09D
:1012E000012040020443A969761E7F1C04988847A8
:1012F0000090002E03DD782805D0582803D00598EB
:10130000002810D022E00598002801D010281DD117
:10131000012040028443A969761E7F1C04988847F7
:101320000090102002E0082000E00A2005900DE067
:10133000012149020C43059A0199761E5143081870
:101340000190A9697F1C049888470090002E05DD54
:101350000599009800F09CFA0028E9DAE9690498F8
:101360008847A00502D40120C043A5E7E00722D1A9
:10137000600611D56005019800D5404229680A1D14
:101380002A600968220501D5087014E0220701D5FA
:10139000088010E008600EE02868011D29600068E0
:1013A000210502D50199017005E02107019901D5B8
:1013B000018000E0016038467EE770B5064603F024
:1013C000E7FE046805460A220021304600F0A8FA2C
:1013D0002C6070BDF0B507460846584087B0C00F76
:1013E000049048000E46590040084908BC1A88413C
:1013F00005D2384631461E4617460B46024658006F
:10140000400810434CD0300D039040055900400D6A
:10141000490D0590401A0290402872DA1803012104
:10142000000B09050843019004980092002805D09C
:101430000199524200208841009201900298402177
:101440000A1A0199009800F0EFF905460C466B4620
:1014500007CB00F00AFAC0197141039A0E0D002360
:10146000D71756401A467A40164344D0049A002AA9
:101470002DD0029A012A039A15DC1205C01A914157
:1014800001263605001C7141D20F059ED20700933C
:10149000019202962A46234600F087FA07B0F0BD73
:1014A00038463146FAE71605224A0F46B218C01AE6
:1014B000B74101210905001C4F4100187F41114629
:1014C00018187941E20F10436D19644113E0E207E7
:1014D0006D0815436408C2071443039A01261205D8
:1014E000C01A91413605001C7141CE0740083043B7
:1014F0004908C01851412A46234600F049FACDE771
:10150000FFE7049801224000C117121A00238B4103
:1015100004983146C417381AA141EEE730B40124CB
:10152000E407634030BC55E730B40124E407614070
:1015300030BC4FE70000E0FFF0B51FB488B00B9956
:101540000998002448400999C00F490049080991A9
:10155000C0070B990090490049080B910999089818
:10156000A64608431CD00B990A98084318D009983E
:1015700001244000420D4800410D09982405000354
:10158000000B204309900B980003000B20430B90A5
:1015900050181C494018002201901446104605E0DE
:1015A000002001460DB0F0BD032801DA034600E03B
:1015B00003239C46C11A0AAE0AE05F0008ADED5B4A
:1015C0004F00F75B7D430027AA187C41491C5B1E36
:1015D0006145F2DD410004AB5A522104120C0A436A
:1015E000240C401C0828DFDB01980290009970460B
:1015F00001910090059B049A0799069800F0D5F98F
:10160000D0E700000DFCFFFFF0B50C465C4085B054
:10161000E40FE40703944C00002664085900944644
:10162000490802460296224321D062460A431ED050
:101630006200570D4A000E032303550D0124024694
:101640002C492405781B1B0B360B401823432643DB
:10165000614600901C46501AB44103D30098401CC8
:10166000009002E0921800985B41002803DA002005
:10167000014605B0F0BD0020012109050746864658
:1016800011E064461D46141BB54106D36546521B46
:10169000B341744607430C43A646CD0740084908AA
:1016A000284392185B4105460D43EAD11046184382
:1016B00013D06046194650407140084306D060463A
:1016C000101AB34106D20122002306E000220123B2
:1016D000DB0702E00122D243531000987446010553
:1016E000381C6141029C039D0019694100F050F9CA
:1016F000BFE70000FD0300000EB5C217C10F504048
:10170000CA0740180021054B0293019200910A4636
:101710000B4600F04AF903B000BD0000330400009E
:101720000EB505490291002100910A460B46019130
:1017300000F03BF903B000BD330400004A00090388
:101740000123090B1B051943094B10B5520D9A4291
:1017500001DA002010BD064B34339A4203DC9A1A9A
:1017600000F072F810BD03495118884010BD000008
:10177000FF030000CDFBFFFF10B5002904DB0124AF
:10178000E40740428C412146002B04DB1C46012328
:10179000DB075242A3418B4200D1824210BD0000C0
:1017A00010B5002904DB0124E40740428C412146A6
:1017B000002B04DB1C460123DB075242A341994264
:1017C00000D1904210BD0000F0B51FB406460020C5
:1017D00082B005464024019100901BE00199224609
:1017E0000F46304600F030F8049A059B801A994164
:1017F00010D310461946224600F016F8361A8F41CB
:101800000197224601200021009F00F00DF83818B2
:101810004D4100902046641E0028DFDC019B0098AB
:101820002946324607B0F0BD10B5202A04DB014638
:10183000203A9140002010BD914020239C1A03467D
:10184000E3401943904010BD10B5202A04DB084640
:10185000203AD040002110BD0B46D340D040202478
:10186000A21A91400843194610BD10B5202A06DB84
:10187000CB170846203A1041C1170B4306E00B4630
:101880001341D0402024A21A91400843194610BDAC
:101890003A2800D23038202302469A43412A01D305
:1018A00010463738884201D30020C04370470000FB
:1018B00002681378511801601846704710B5D1605E
:1018C000044951610449116200211161114600F07F
:1018D000FFF810BDB1180000BD1A00004268002AD0
:1018E00008D001680B78491C002B03D0521E06C09B
:1018F000184670470121C160881E70474268002A5F
:101900000BD0C3680168002B07D183688B4204D0D9
:10191000491E521C06C0002070470020C04370477B
:10192000F7B5009C0F4600262578641C002D05D0D5
:1019300000F0C0F80068405DC007F5D12B2D02D043
:101940002D2D18D0641E39462046029A00F05CFA0C
:10195000002F04D03968A14201D100993960710586
:10196000022400290BDA4042002803DD03F010FCBA
:101970000460A007FEBD012080020643E3E70028C3
:10198000F8DA03F005FC04600048FEBDFFFFFF7FAE
:1019900010B5002B08DA0024401C614192185B410D
:1019A0001A4301D14008400010BDF0B51FB482B009
:1019B00005460C0003D0084603F0C6FB02E003F026
:1019C000C3FB20300246009021462846FFF72CFF3B
:1019D000049B059A04460F4618431143084314D04C
:1019E000184610431BD0009840210A1A1846059942
:1019F000FFF72AFF05460E46009A05990498FFF75F
:101A000013FF084305D0012004E02046394607B003
:101A1000F0BD0020C11705430E432C433743009906
:101A20000E986305401A7905E40A00220C43FD0A6A
:101A30000A3002D500200146E9E701051019694185
:101A40000C9C0D9D00196941FFF7A2FFDFE7000024
:101A50004A0009030123090B1B0519430A4B10B562
:101A6000520D9A4202DA0020014610BD064B343373
:101A70009A4203DC9A1AFFF7E7FE10BD034BD21817
:101A8000FFF7D2FE10BD0000FF030000CDFBFFFFFB
:101A9000064C0125064E05E0E36807CC2B430C3CC1
:101AA00098471034B442F7D3FFF70EFB30690000BB
:101AB00050690000004870471068000010B50446E7
:101AC000FFF7F8FF0068005DC007C00F10BD000001
:101AD000F3B58DB000200A9001200B900026084637
:101AE0000C300C4609906269012109989047050065
:101AF0002ED0252D2DD0216A8847002818D0626964
:101B0000012109989047216A88470028F7D1411E92
:101B100062690998904700E0761CA1690D98884792
:101B2000216A88470028F7D1E1690D988847DAE7EC
:101B3000A1690D9888470746A84201D1761CD2E7D3
:101B4000E1690D9888477F1C02D10A98002877D058
:101B500049E1002762693D463946099890472A289D
:101B60000CD16269012109989047012506E00A21FC
:101B70004F433F18303FEBD41020054362690121E9
:101B800009989047014630390A2903D29B498F4270
:101B9000DEDCECE7E90600D4994F6C280AD04C282B
:101BA00010D0682824D06A282ED074280CD07A2827
:101BB0000AD00DE062690121099890476C2823D072
:101BC00004211CE020200543626901210998904707
:101BD000A760656065284FD026DC582839D01ADC0C
:101BE000452849D012DC252834D04128B0D143E023
:101BF0006269012109989047682802D008210D43A5
:101C0000E6E70120C002DEE70220DCE7462833D009
:101C100047282CD130E05B2870D061282CD0632875
:101C20006CD0642823D161E06F284FD009DC66288E
:101C300022D0672820D0692826D06E2817D12EE020
:101C4000CDE070284DD073286FD075284ED07828FD
:101C50000DD154E0A1690D9888470546252800D18B
:101C60006CE7E1690D9888476D1C00D16DE7BAE01B
:101C70000A224CE00A2252E0012023466A46C04371
:101C80000D99C046C046A3E0284640210843606045
:101C9000A807234601D5002239E000223FE0E807EB
:101CA00000D020E72068011D21600068290501D5CA
:101CB000067018E7290701D5068014E7A90703D5A0
:101CC000F117066041600EE706600CE728464021E8
:101CD00008436060A807234601D5082217E00822C0
:101CE0001DE0484928460840606016E0284640212B
:101CF00008436060A8072346BCD5B9E715E028462D
:101D0000402108436060A80707D523461022012020
:101D1000C0430D99C046C0465AE023461022012018
:101D2000C0430D99FFF7A4FA52E000210C910B4635
:101D30000091632802D05B2807D043E0E80601D475
:101D40000120A060012000903CE062690121099817
:101D500090475E2805D101200C90014662690998E0
:101D600090472169002906D10B4601AA8F00491C22
:101D7000D3510829FADB002835D0216900290ED17A
:101D8000C117C90E09184A11930001AA9A184909E6
:101D90004901411A012013688840034313606269B6
:101DA0000121099890475D28E5D10C98002808D0BA
:101DB000002001AB81005A58401CD2435A500828D9
:101DC000F8DB01AB01202246C0430D99C046C04656
:101DD00000280ADA401C06D10B98002803D0002006
:101DE000C0430FB0F0BD0A98FBE7E90702D10A999A
:101DF000491C0A91361800200B9074E6CCCCCC0C10
:101E0000FFFFFF7FF1F7FFFFF7B582B0029C0027CD
:101E10002078641C15460197302802D0002D15D07B
:101E200015E020780127641C782804D0582802D0B7
:101E3000002D09D00BE0002D01D0102D07D1002777
:101E400010252078641C02E0082500E00A25002601
:101E5000009610E00099012769430818020C2946F2
:101E600080B2714300908E183804864201D301205D
:101E700001902078641C2946FFF70AFD0028E9DA62
:101E80000398002805D0002F01D0641E00E0029CBA
:101E900004600198002806D003F07AF9022101605D
:101EA000C81E05B0F0BD009930040843F9E70000F2
:101EB00010B5102004F000FB0648426813210A43C5
:101EC000426082680A438260E120400204F08EFB97
:101ED000002010BDC0400440F8B5154C2278022AFD
:101EE00001D00120F8BD00262670002901D06288AB
:101EF0000A60002803D062880E49FFF70FF9002519
:101F00000DA003F0FDF80B4F04E0795D0CA003F089
:101F1000F7F86D1C60888542F7D30BA003F0F0F84A
:101F20006680FF212D310348FFF711F90020F8BD2D
:101F30000C0100105806001052657370203A200002
:101F400025303278200000000D0A000070B50D46E3
:101F5000044603E02078641C04F088FB28466D1ECC
:101F6000F8D270BD05480168C90705D004494A6820
:101F7000521C4A60012101607047000000000140CE
:101F8000DC00001010B588B018780B99102804D028
:101F9000112823D0012008B010BD072201A8FFF7A7
:101FA000BDF80020039004906846417918A003F022
:101FB000A7F86846847A0094437A027AC17917A018
:101FC00003F09EF822461CA103A803F0A9F803A978
:101FD0001BA003F095F803A9052015E0062205A82B
:101FE000FFF79CF86846007D062802D007280DD12F
:101FF00005E017A003F084F80021072004E019A0F1
:1020000003F07EF80021062001F024FA0020C2E748
:1020100074797065203A2025640D0A004944202017
:10202000203A202530327825303278253032782514
:102030003032780D0A0000002530336400000000C3
:10204000557365724E756D203A2025730D0A000098
:10205000D6F7C8CB2CBCD2C0EFC0B4BFCDC8CBC163
:10206000CB0D0A00D6F7C8CB2CD3D0C8CBB7C7B797
:10207000A8BFAACBF80D0A0003B587B06846007F59
:102080000723022800D1012307AA1221062000F00D
:1020900011F9684600F0AEF9002807D102980078DF
:1020A000062803D103980078802802D0012009B0C7
:1020B00000BD0020FBE7000010B5134CFFF7F8FE51
:1020C000E11DFF312046FFF7ACF8641C0F492046A4
:1020D000FFF7A7F80D49641C091D2046FFF7A1F87A
:1020E0000A49641C08312046FFF79BF80749641C25
:1020F0000C312046FFF795F80449601C1031FFF7BA
:1021000090F8002010BD00003603001040040010BD
:102110001FB588B01C460C2308AA4321102000F0EC
:10212000C9F801A800F066F9002802D001200CB01F
:1021300010BD18206946087003980078012803D163
:1021400004980078182808D00220487003460A46F0
:102150005121202000F0AEF8E8E7002C04D0162230
:1021600020460699FEF7DAFF0120694648700223EF
:102170006A465121202000F09DF80020D7E700009A
:1021800010B50A4903C9FFF777FF00280CD100F00A
:102190007FF8002808D17D20C00003F007FD012052
:1021A00000F006F8002800D0012010BD8067000074
:1021B00001B588B0012308AA1021062000F07AF8A2
:1021C00001A800F017F9002810D1049800788028A1
:1021D0000CD106986A460178117040785070102929
:1021E00004D1002802D0002009B000BD0120FBE787
:1021F00010B590B00020224C0F900FA92046FFF799
:102200006BFE002802D0012010B010BD0894641CA1
:102210000994641C0A94641C0B94641C0C94641C44
:102220000C980D94007820180E900A9800780128D8
:1022300002D0062821D109E00C980E9A0090019452
:10224000029208A80FC8FFF79DFE16E01C2208A9FD
:1022500001A8FEF763FF0498007861280DD109A05A
:1022600002F04EFF072002F009FA0321052000F0DA
:1022700025FA00210B2001F0EDF80020C4E7000052
:1022800036030010B9D8C1AACFECD3A60D0A0000BE
:1022900008B500206946087001236A46052106201A
:1022A00000F008F8002000F0A5F8002800D0012078
:1022B00008BD0000F8B50D460646FF211C4617462E
:1022C00007313448FEF743FF3348FEF7A0FFA6214D
:1022D00001703148001DFEF79AFF002101702E4861
:1022E0000830FEF794FF06702B480C30FEF78FFF86
:1022F0000570294810300546FEF789FF264E047008
:102300001436002C08D0002F06D03046FEF77FFF91
:1023100022463946FEF702FF3046FEF778FF1E4997
:1023200000191831FEF77DFF04462846FEF76FFFBF
:102330000078184E801D0022C0B2114604E0735C84
:102340009A18491CD2B289B28142F8D32270284629
:10235000FEF75DFF04781048A41DFEF758FF2146E4
:10236000FFF7F4FD00240DA002F0CAFE05E0315D88
:102370000EA002F0C5FE641CA4B22846FEF747FF7B
:102380000078801DA042F2D80AA002F0B9FE002019
:10239000F8BD0000360300103C0400104672616D69
:1023A000652044617461203A2000000025303278B5
:1023B000200000000D0A00001FB588B01C460C2349
:1023C00008AA20210620FFF775FF684600F012F8E2
:1023D000002803D103980078212802D001200CB0F6
:1023E00010BD002C04D0162220460599FEF796FE5B
:1023F0000020F4E7F8B505460020224C0090204E5E
:1024000004212046FEF7A3FE0AE004F093F9012020
:1024100003F0CCFB69462046FFF75EFD002803D0A1
:10242000761EF2D20320F8BD002D27D02946204683
:10243000FEF7F7FE641C291D2046FEF7F2FE294632
:10244000641C08312046FEF7ECFE2946641C0C3162
:102450002046FEF7E6FE2946641C10312046FEF7B2
:10246000E0FE06462946601C1431FEF7DAFE0146FE
:102470003078081829461831FEF7D3FE0020F8BD41
:10248000102700003603001004A002F039FE7D2062
:10249000C00003F08BFB00F095F900004861726406
:1024A0004661756C745F48616E646C65720D0A00FC
:1024B00010B5102004F000F80648016901610620FB
:1024C00003F0FAFF052000220121000703F028FC99
:1024D00010BD00000040044010B500F009F800F005
:1024E00023F8012803D0032801D101F0CBFD10BD52
:1024F00010B5052424070121204603F0F9FB01282B
:102500000ED00121204603F0F3FB002808D1502013
:1025100003F04CFB0121204603F0EAFB002801D028
:10252000002010BD012010BDF8B51C4C0021227800
:10253000042703250226130002F01DFE0504080FE0
:102540001C2B2E00012827D1207025E0012822D144
:10255000267001F0C9FC60601EE001281BD101F06B
:10256000C3FC0146606801F0B9FC0D4988420ED8F1
:10257000267011E001280ED101F0B6FC014660681A
:1025800001F0ACFC0749884201D9277004E02570AE
:1025900002E0012800D021702078F8BDE40000108E
:1025A000B80B00008813000010B5084C012204216C
:1025B000204603F0A7FB01220521204603F0A2FBE1
:1025C00001220321024803F09DFB10BD00000150D1
:1025D0000000035010B51F48817800291CD04178B5
:1025E0004A1E427018D264214170C17800290FD070
:1025F0000021C1708178491E817001781648174CFE
:102600000B0002F0B8FD07090A0D1013162109008E
:102610000121C170FFF7C8FF10BD0022042110E0A6
:10262000002205210DE00022032109E000220521FE
:102630000CE000220421044603F064FB0022052183
:10264000204603F05FFB10BD0022042103F05AFB7B
:10265000E9E70000EC00001000000150000003500A
:1026600010B5102003F028FF1148426910210A43D9
:102670004261026A0A430262C26A0A43C2620620D7
:1026800003F01AFF0B4C01220421204603F048FB03
:1026900001220521204603F043FB012203210648C5
:1026A00003F03EFB0321012000F008F810BD0000FC
:1026B00080400440000001500000035070B5044603
:1026C00016488278002A23D104708170FFF76CFFCE
:1026D0001348144D230002F04EFD071B05080B0E96
:1026E000111C1B000022042110E0002205210DE036
:1026F0000022032109E0002205210CE00022042130
:10270000054603F0FFFA00220521284603F0FAFAF5
:1027100070BD0022042103F0F5FAE9E7EC00001097
:102720000000015000000350C106C90E012088407E
:10273000014908607047000000E100E08307FF22C4
:10274000DB0E9A408907090E994000280BDA000732
:10275000000F0838830808489B001818C369934382
:102760000B43C3617047830804489B001B1818681B
:10277000904308431860704700ED00E000E400E07B
:102780008307FF22DB0E9A408907090E9940002833
:102790000BDA0007000F0838830808489B00181858
:1027A000C36993430B43C3617047830804489B008C
:1027B0001B181868904308431860704700ED00E04C
:1027C00000E400E0BFF34F8F03490248C860BFF345
:1027D0004F8FFEE70400FA0500ED00E0BFF34F8FD6
:1027E00003490248C860BFF34F8FFEE70400FA05B3
:1027F00000ED00E0BFF34F8F03490248C860BFF30C
:102800004F8FFEE70400FA0500ED00E070B51D4CA7
:10281000A07B002833D020460A30FEF7F8FC0028C1
:102820002DD1022000F02CFC0026174D002811D0DD
:1028300000210120FFF742FFA11D0020FEF7F1FC5F
:10284000A6732878411C29701E2810D302F058FB6B
:10285000FFF7C4FF00210320FFF730FF2078002896
:1028600001D100F013F8A6732E70002070BD052171
:102870002878FEF73DFC002901D100F02FFE012051
:1028800070BD000038020010D000001000B589B003
:10289000684600F095FA68460078332807D100A80A
:1028A0000130FEF7B4FC01F0F3FE002800D0012057
:1028B00009B000BD0249CA7B8243CA737047000059
:1028C0003802001010B504000DD000F079FA20781D
:1028D00033280AD00848FEF79AFC014607A001F009
:1028E000FDFE002803D0012010BD002010BD2046B1
:1028F00000F066FAF9E70000490200103131312E8C
:102900003230362E34352E3132000000F0B5044618
:1029100089B015460E460C30FEF779FC074620219B
:102920006846FEF714FC002C39D0002E37D0002D5D
:1029300035D0002F33D03A213846FEF733FC441C03
:102940002DD03B212046FEF72DFC021B2146684678
:10295000FEF7E4FB324613A16846FEF76BFC3B2111
:102960002046FEF71FFC401C040018D007220EA1D1
:10297000FEF737FC002802D0002009B0F0BD3A2154
:102980002046FEF70FFC441C09D03B212046FEF7F1
:1029900009FC021B21462846FEF7C0FBECE701209C
:1029A000EBE700002564000063746C44617461000F
:1029B000F3B583B000262A4F0498FEF7FDFB84B2DE
:1029C0003946C81FF938FEF72CFC391DCD1FFD3DD7
:1029D000681CFEF726FC3946083102900191A81CBC
:1029E000FEF71FFC39460C31281D0091FEF719FC3B
:1029F000FF2101312846FEF7AAFB02212970029827
:102A000003990170039D0198FEF701FC0480E0B278
:102A10006840250A45400098FEF7F9FB22460499D4
:102A2000FEF77CFB03E00498805D4540761CA642DF
:102A3000F9D30098FEF7EBFB3946001910310C462C
:102A4000FEF7EFFB05702046FEF7E1FB3946143137
:102A5000401CFEF7E6FB0321017005B0F0BD00004D
:102A600020020010F8B5044600200090002C30D061
:102A7000FF2101311948FEF76AFB6946174802F049
:102A8000B3F9002825D121461448FEF7CAFB134D9F
:102A9000287802281DD1211D681CFEF7C2FB2146A3
:102AA0000831A81CFEF7BDFB064621460C31281D47
:102AB000FEF7B7FB01463088081821461031FEF7B3
:102AC000B0FB21461431401CFEF7ABFB0078032815
:102AD00001D00120F8BD0020F8BD00002001001049
:102AE000F0B5E1B00446202131A8FEF730FB00200C
:102AF00006462C902A9005462B90052040032D90E9
:102B00003A212046FEF74EFB441C2C212046FEF7BE
:102B100049FB0746021B214631A8FEF7FFFA2BAA04
:102B200067A131A8FEF786FB18A901312B98FEF7A3
:102B300078FB3A213846FEF735FB441C2C21204611
:102B4000FEF730FB021B19A821460130FEF7E6FA1A
:102B500001F03CFBFFF79AFE5A4C03F0EBFDA01D81
:102B6000FEF755FB002832D12296A11D5648239628
:102B7000FEF757FB52A122A82C9A02F0D1FA0120AD
:102B8000309022AF802139A8FEF7E1FA207C00289E
:102B900019D004E003F0CEFD642003F007F859A833
:102BA000FFF790FE0128F5D03A4639A8309900F099
:102BB000A9FC39A90420FFF7FBFE59A80130FEF754
:102BC00026FB00F0C9FB6D1CEDB2142D76D224A8B3
:102BD000FFF748FF0128C0D025980078042804D0CA
:102BE000A11D0020FEF71DFBB7E73A212798FEF74D
:102BF000D9FA401CF4D000783228F1D133A12798BB
:102C0000FEF7BCFA0028EBD03A21FEF7CBFA401CC5
:102C10002C212390FEF7C6FA0700E1D0202131A82D
:102C2000FEF795FA23983A1A014631A8FEF776FA8C
:102C30002AAA23A131A8FEF7FDFA2A992C988142ED
:102C4000CED17F1C2C2138462297FEF7ABFA070025
:102C5000C6D0202131A8FEF77AFA22983A1A014606
:102C600031A8FEF75BFA2AAA15A131A8FEF7E2FA0D
:102C700019A002F045FA781C2A9A2D9901F0B3FAAE
:102C80002C982D99401C2C902A9809182D912B993D
:102C9000081A2B9001D00025A2E700210C2000F09B
:102CA000D9FB012069460870FFF7F0FD684601F086
:102CB000A6FA642002F07AFFFFF790FD61B0F0BD44
:102CC0002564000038020010102700007570646150
:102CD0007465446174613A002E00000030B58DB017
:102CE00005460024202168460B94FEF730FA28465A
:102CF0000C30FEF78CFA0078312815D06A460BA903
:102D00002846FFF703FE01280ED00B9927480B0039
:102D100002F031FA0D0A080C0A0A0E150A223B3F8E
:102D200042470A00012101700DB030BD0470FBE77D
:102D3000684600783038C0B200F092FEF4E70A200E
:102D400008A9887169461AA002F0DAF908AC07CC24
:102D50000023FFF731FBE7E76C4608A801F02CF8E9
:102D60006946087808A90870312809D1A01CFEF727
:102D700024FB7D21C900484308A90131FEF751FA1F
:102D80000999089801F022F8CEE7684601F032F878
:102D9000CAE7FFF7F5F9C7E7002001F043F8FFF7AE
:102DA0001DFD6846FFF79CFEBEE7000038020010DC
:102DB000D4B6B3CCBFAACBF8203A2025730D0A00B5
:102DC00030B5C3B00446FF21013102A8FEF7BFF9B8
:102DD00000200090019002A801F004FE00283CD1E0
:102DE000002C3AD06846007A20706846007A332872
:102DF00033D13A2102A8FEF7D5F9451C4078611C71
:102E00003038FEF70EFAED1C03222946601DFEF74E
:102E100085F92C212846FEF7C5F9851C2221284674
:102E2000FEF7C0F9421B204629460930FEF776F925
:102E30002C212846FEF7B6F9451C2C212846FEF722
:102E4000B1F9421B29466846FEF768F96846FEF765
:102E5000B4FA21461931FEF7E4F943B030BD000061
:102E600010B50F4CA01CFEF7D2F9002803D0A11C0E
:102E7000401EFEF7D6F9A01DFEF7C9F9002803D0C1
:102E8000A11D401EFEF7CDF905480A300446FEF7A5
:102E9000BEF9002803D02146401EFEF7C2F910BD3E
:102EA00038020010F0B5B3B0802102A8FEF74FF948
:102EB000402122A8FEF74BF90020534C0090054614
:102EC000074606462070A11CFEF7ABF9A11D4F482E
:102ED000FEF7A7F921460A310020FEF7A2F9A673F2
:102EE000E6732146267411314948FEF79AF902A883
:102EF00000F0A8FF02A800F0B5FF012824D180212E
:102F000002A8FEF724F9434F02A83E46019001F0C3
:102F10003BFF012001F0B2FB03F00CFC012002F0AA
:102F200045FE761E03D23E46012001F0A7FB00F0CD
:102F300053FDFFF7D1FA019801F0F8FC0028EBD11E
:102F4000019800F09FFF012722A902A801F086FD49
:102F500031A002F0D5F822A902A801F0D7FE04287A
:102F600001D000F019FB33A002F0CAF8002F02D004
:102F7000022001F083FB02F079F8012060702074D8
:102F800000F0D8F932A002F0BBF8204E03F0D2FBDB
:102F900000F022FDFFF7A0FAA01CFEF738F9002888
:102FA0001DD1A11C3046FEF73CF90098002801D045
:102FB00000200AE000F080F8022802D0002803D0A8
:102FC00004E000F08BFA01E00120009028466D1C1F
:102FD000EDB20F2803D301F093FFFFF7FFFB00F0E2
:102FE00027F90028D2D1012000F04AF80028CDD1DD
:102FF00000F03CF905210320FFF760FB1BA002F065
:103000007FF833B0F0BD000038020010B80B0000AC
:10301000727500008813000057616974204A6F6957
:103020006E204170202E2E2E2E2E2E2E2E2E2E2E47
:103030002E0D0A004A6F696E20417020537563633C
:10304000657373202E2E2E2E2E2E2E2E2E0D0A0060
:1030500057616974204C6F67696E2053657276659D
:1030600072202E2E2E2E2E2E2E0D0A004C6F6769EA
:103070006E20537563636573732021200D0A000071
:103080000C490128C97B08D00A490246C97B014086
:10309000022806D0042A0BD106E0C807C00F06D0CC
:1030A00006E0022902D103E0042901D00020704784
:1030B000012070473802001000B5A9B08021684691
:1030C000FEF745F81048007C002816D020A8FFF72E
:1030D000F9FB01280FD0684600F018F86946012076
:1030E000FFF766FC20A80130FEF791F800F034F9F4
:1030F000002804D0022029B000BD0120FBE70120F8
:1031000000F0E4F90020F6E73802001010B5BAB07C
:10311000044640216846FEF71AF8202132A8FEF73F
:1031200016F8002C49D026A227A1204601F0F8FF6E
:1031300028A22CA1684601F0F3FF69462046FEF75D
:1031400011F832A800F040FD40216846FDF7FFFF6E
:1031500032AA28A1684601F0E3FF69462046FEF73F
:1031600001F840216846FDF7F2FF002224A16846DD
:1031700001F0D6FF69462046FDF7F4FF402168467E
:10318000FDF7E5FF10A801F032F810AA013220A1E6
:10319000684601F0C5FF69462046FDF7E3FF402180
:1031A0006846FDF7D4FF18AA01321DA1684601F058
:1031B000B7FF69462046FDF7D5FF3AB010BD0000C5
:1031C00047414B41544F000076656E49643A257380
:1031D0003B00000047464D2D57472D5A57532F3877
:1031E0002F5700006465764D6F64656C3A25733B1C
:1031F0000000000064657649643A25733B000000D6
:103200006C6F636B5374617475733A25643B000093
:1032100076657273696F6E4E616D653A25733B001A
:1032200076657273696F6E436F64653A25733B0010
:1032300000B587B06846FFF715FC01280FD001984C
:103240000078012808D0022802D0032806D108E01F
:103250006846FFF743FD0220FFF72CFB002007B074
:1032600000BDFFF713FB0420F6E7000030B5A3B064
:10327000402102A8FDF76BFF002000900190202163
:1032800012A8FDF764FF20211AA8FDF760FF02F0E5
:1032900005FC04003CD002A800F0D4FD002102A8E7
:1032A00001F0DCFB12A801F0B5FA1AAA694602A8DF
:1032B00001F0E8FA02A802F0F9FB024615A1204647
:1032C00002F0D6FB684602F0F1FB024614A120464C
:1032D00002F0CEFB12A802F0E9FB024613A1204641
:1032E00002F0C6FB1AA802F0E1FB024610A120463C
:1032F00002F0BEFB204602F019FC054601460A20FA
:1033000000F0A8F8204602F0DFFB284602F0C6FCD9
:1033100023B030BD576946694E616D6500000000FD
:103320005769466952535349000000004950000054
:103330004D41430010B500F00DFC00280AD001E01B
:1033400003F0F8F90021092000F084F80128F7D0F3
:1033500000F0B0FB10BD000010B504460C48FDF7AE
:1033600056FF03880A480B4A1030407821469B1DBF
:1033700001F006FEFF2101310028064803D0FDF7C9
:10338000E6FE012010BDFDF7E2FE002010BD0000AA
:10339000280200102001001010B594B000201090F9
:1033A00011901290139020216846FDF7D0FE224C18
:1033B000207C002804D0A01DFDF729FF002807D09D
:1033C000012014B010BD03F0B5F9642002F0EEFB4B
:1033D00008A8FFF777FA0128F5D010A800F0F4FB51
:1033E00010AA16A1684601F09BFE69460220FFF76D
:1033F000DFFA022000F06AF80F4913480A31FDF79E
:1034000010FF0120A07308A80130FDF700FFFFF7AF
:10341000A3FF01460D48012907D02278012A08D0D0
:10342000A11DFDF7FEFE0020CBE7A11DFDF7F9FE73
:10343000C6E7A11D0648F4E7380200106465764926
:10344000643A25733B000000C4090000B80B00007B
:103450008813000070B5A8B00D46064600248021F0
:103460006846FDF774FE1848007C00281FD004E071
:1034700003F060F9642002F099FB20A8FFF722FA1C
:103480000128F5D02A463146684600F0B7F869466B
:103490000320FFF78DFA20AD0CE003F04BF9C820B4
:1034A00002F084FB2046641CE4B21E2802D30120F3
:1034B00028B070BD681CFDF7AAFEFFF74DFF01287C
:1034C000EBD00020F4E70000380200100249CA7B6C
:1034D0000243CA73704700003802001010B5074855
:1034E0000446FDF794FE024605482146824201D17A
:1034F00003485530FDF795FE10BD0000490200104D
:103500007275000070B5A0B00E46054614468021C5
:103510006846FDF71CFE002D1CD00FA212A1284604
:1035200001F0FEFD324614A1684601F0F9FD69463E
:103530002846FDF717FE002C0CD080216846FDF7C9
:1035400006FE224610A1684601F0EAFD69462846BB
:10355000FDF708FE20B070BD47464D2D57472D5A48
:1035600057532F382F5700006465764D6F64656C94
:103570003A25733B00000000757064617465436D0B
:10358000643A25643B0000007570646174654461B1
:1035900074613A25733B000030B5A1B0802101A8C9
:1035A000FDF7D5FD00200446134D009003F0C2F84E
:1035B000012002F0FBFA00F00FFAFEF78DFF204623
:1035C000641CA8420CD2694601A801F05BFC0028EB
:1035D000ECD1009901A840182038C07F4B2809D0B1
:1035E000032001F04BF801F08BFC642002F0DEFABE
:1035F000FFF7F4F821B030BD204E000070B5A8B040
:103600000E460546144680216846FDF7A0FD2021A0
:1036100020A8FDF79CFD002D1FD020A800F0D4FAB3
:1036200020AA0FA1284601F07BFD32460FA1684673
:1036300001F076FD69462846FDF794FD002C0CD07C
:1036400080216846FDF783FD22460CA1684601F003
:1036500067FD69462846FDF785FD28B070BD00006E
:1036600064657649643A25733B000000616C6572BD
:1036700074547970653A25643B000000616C657292
:1036800074446174613A25733B000000FEB56846DE
:1036900000F092FB68460078302838D01E4CE06875
:1036A0001E4E0127002500280AD16078012807D185
:1036B0000B211B4802F01CFB012829D065702570E6
:1036C000A068002823D16068002820D10B2114486D
:1036D00002F00EFB00281AD06770E6607D26F60027
:1036E000A6602078401C207000210220FEF7E6FF33
:1036F00000A80130FDF78BFD3146FDF7F9FC21787C
:10370000884204D8257000210320FFF7A3FEFEBDE8
:10371000E6606770D4E70000F0000010307500002C
:103720000000015009484168002902D04168491E43
:1037300041608168002902D08168491E8160C168AA
:10374000002902D0C168491EC1607047F000001016
:1037500010B5102002F0B0FE0C4881691022114310
:103760008161062002F0A8FE094C00220B212046B0
:1037700002F0D6FA00220B21204602F0C3FA0648D6
:10378000044941607D21C900816010BD8040044032
:1037900000000150983A0000F000001070B5054696
:1037A000FDF70AFDC4B2082C01D010A00EE00222E1
:1037B00017A12846FDF715FD002801D015A005E04A
:1037C0000221685C30380A2803D31BA001F098FC62
:1037D00070BD491CC9B2A142F3D3284600F004FAD7
:1037E0001CA001F08DFCFFF705F800000D0A49440C
:1037F000204C656E677468204572726F722C204D84
:103800007573742062652038206269740D0A0000A7
:10381000633100000D0A4944204572726F722C20FA
:103820004D75737420626567696E207768746820CF
:10383000226331220D0A00000D0A494420457272AC
:103840006F722C204D75737420626520302D390DF8
:103850000A000000D0F2C1D0BAC5C5E4D6C3B3C9CE
:10386000B9A60D0A00000000F0B5044600208BB098
:10387000002C05D0032903D3215C30390A2903D356
:1038800000F0C2F80BB0F0BD401CC0B20328F3D367
:10389000207864213038484361780A22514308185F
:1038A000FF38A178FF3812380F1838A001F028FC33
:1038B0000A250826652F40D008DC012F14D0022FDE
:1038C00014D0032F19D0642F06D11DE0662F48D0E5
:1038D000C82F49D0C92F55D039462DA001F010FC72
:1038E00030A001F00DFCCDE7FEF784FFE078202842
:1038F0003DD1201DFFF752FFF2E7002000F092FAC1
:103900002DA001F0FDFBEFE730A003C80491039068
:103910000024062203A96846FDF700FC684685716D
:10392000C6712C4A05AB029201990098FEF744FD3E
:10393000641CE4B2052CFBD3D2E724A103C9049193
:103940000390062203A96846FDF7E8FB68468571E7
:10395000C671204A0023029201990098FEF7D8FB15
:10396000BEE7FEF70DFCBBE7E078202804D039461F
:1039700007A001F0C5FB85E720793038C0B200F020
:103980007DFEADE700F07EFEAAE700000D0A000014
:103990000D0A556E6B6F6E7720636D64203A20259B
:1039A000640D0A000D0A687A774047414B41544F35
:1039B000207E232000000000BBD6B8B4B3F6B3A726
:1039C000C9E8D6C3CDEAB3C90D0A00000A08000051
:1039D000000000002009110710B5094C6088C00BD9
:1039E0000CD00848FDF7E8FBC1B20648FFF73CFFE2
:1039F0000020608040210348FDF7A9FB10BD0000B6
:103A0000D20000104D02001010B5FFB0FFB082B020
:103A100001216C4689022046FDF799FB09492046A1
:103A2000FDF7ECFB08492046FDF79CFB07A120466B
:103A3000FDF798FB204601F063FB7FB07FB002B03A
:103A400010BD000014680000586800000D0A687A74
:103A5000774047414B41544F207E23200000000017
:103A600010B506498871012000F002FC03480121CD
:103A700069220903603800F05FFD10BD2D030010BE
:103A800010B508A10A48FDF79EFB002808D100F0F8
:103A9000F5FD02F04FFEFFF79FFFFEF71DFDF8E773
:103AA00010BD000063313030303030300000000095
:103AB0001303001010B507480021C171012000F068
:103AC000D7FB0448012169220903603800F034FD66
:103AD000002010BD2D0300107FB5054600201749BA
:103AE000009001900290039008220C466846FDF772
:103AF00015FB124869214638FDF729FB0F480121C3
:103B00004638017004220EA1401CFDF707FB0B484C
:103B100008220DA11030FDF701FB08483021801F5D
:103B20004170684600F01CF8082269462046FDF7FF
:103B3000F5FA02481A30C5717FBD0000130300106A
:103B40006E756C6C00000000313233343536373816
:103B5000000000000148C079704700002D030010EC
:103B6000F0B585B000240F2507462D03009401947D
:103B700002946E46039400F00FF9002815D02A78BD
:103B80000CA130466D1C01F0CBFA641CE4B2B61CEB
:103B9000042CF4D3684600F0FFF8002807D0082270
:103BA00006A13846FDF7BAFA012005B0F0BD08229B
:103BB0006946F6E725303278000000006331303086
:103BC000303030300000000070B5040008D00548E7
:103BD0000546FDF7F1FA024629462046FDF79EFA12
:103BE00070BD00001303001070B5040016D00C481F
:103BF00010210546FDF7ABFA2046FDF7DDFA024637
:103C000021462846FDF78AFA012000F031FB0448DE
:103C1000012169220903463800F08EFC70BD0000C6
:103C20001303001070B501263603A2B06922314695
:103C3000284800F0CDFB274D28782C464634012833
:103C400006D0012000F014FB0020FFF745FF06E03E
:103C50002046FFF785FF012806D100F009FB692205
:103C600031461C4800F068FC684600F0C0FA1AA013
:103C700001F046FA691C20A001F042FA15484230D2
:103C8000FDF7C5FA024613484030407831281ED06F
:103C90001DA11FA001F034FA214622A001F030FA44
:103CA0000C4925A0563101F02BFA0A486030817981
:103CB00026A001F025FA00A908AA29A001310132A5
:103CC00001F01EFA2AA001F01BFA22B070BD30A14B
:103CD000DFE70000CD0200102D2D2D2D2D2D2D2DD7
:103CE0002D53797374656D20496E666F2D2D2D2DC2
:103CF0002D2D2D2D2D0D0A0057696669496E666FB1
:103D00003A202573200D0A00636C6F736500000074
:103D10004D6320496E666F203A2025732C20256C58
:103D2000640D0A0053797374656D204944203A206C
:103D300025730D0A00000000576972656C65737386
:103D400020507764203A2025730D0A00537973744C
:103D5000656D204246203A2025640D0A00000000CF
:103D6000566572203A2025732C25730D0A00000039
:103D70002D2D2D2D2D2D2D2D2D2D2D2D2D2D2D2D73
:103D80002D2D2D2D2D2D2D2D2D2D2D2D2D0D0A00D3
:103D90006F70656E000000000178632904D1012175
:103DA000425C303A0A2A01D301207047491CC9B24B
:103DB0000829F5D30020704710B5002803D005224C
:103DC0000149FDF7ABF910BD0E03001013B5052234
:103DD00069460748FDF7A2F9012000F049FA0448B6
:103DE000012169220903413800F0A6FB1CBD000037
:103DF0000E03001010B5040010D0FDF7DDF90246E7
:103E000021460748FDF78AF9012000F031FA0448FD
:103E1000012169220903563800F08EFB10BD000015
:103E20002303001010B5FFF757FE012000F020FA21
:103E3000012169220903024800F07EFB10BD000049
:103E4000CD02001070B5050008D0054C601CFDF7D0
:103E5000B3F90246611C2846FDF760F970BD000009
:103E6000CD02001010B5042204A1FDF7BAF9002814
:103E700001D0002010BD012010BD00006E756C6CDB
:103E80000000000070B5040015D00B4D4021681CE7
:103E9000FDF75DF92046FDF78FF902462146681CC3
:103EA000FDF73CF9012000F0E3F901216922090343
:103EB000284600F041FB70BDCD02001010B5064849
:103EC0000168491C0160FFF72DFCFEF7C9FF00F0F7
:103ED000F5F8FEF77FFB10BDDC0000100246881AE3
:103EE000914200D2401E70470148006870470000B0
:103EF000DC00001010B57D20C00002F00DFB024870
:103F000001F02EFE10BD0000409C000070B5354D44
:103F10000020696AC905090F0B0001F02CF9102671
:103F2000090B0D0F11131517191B1D1F2123252612
:103F30002D481AE02D4818E02D4816E02D4814E0D1
:103F40002D4812E02D4810E02D480EE02D480CE0E1
:103F50002D480AE02D4808E02D4806E02D4804E0F1
:103F60002D4802E02D4800E02D48696AC906890EF7
:103F7000891CFDF7BDF81B4A4032116B2A4C8E0795
:103F80002849B60F1ED00023012E04D0022E0DD0DA
:103F9000032E21D10CE010688007800F12D0012879
:103FA00010D0022817D0032816D114E0206013E0A7
:103FB00010688007800F01D00128F2D1A868C005E1
:103FC000800F01D0216007E0A8681649C006C00E26
:103FD000401C4843EAE72360916B2068FDF788F8AE
:103FE000206070BD00800440C027090090051000CB
:103FF000C05C1500F0B31A00200B2000009F2400C5
:10400000E0322900C0C62D0050973100E06735002E
:104010007038390000093D004016400080234300FD
:10402000C0304600001BB700C000001070B5134838
:104030000022026001214160426041604368DB0769
:10404000FCD00E4B2324403B9C600D4CA56B80267E
:10405000B543A563DC68E407FCD003230363416335
:1040600042634163426BD207FCD081630348403016
:104070000168012212041143016070BD40800440B8
:1040800000820440052000F0F9FA00210920FFF722
:10409000E1F9002800D00120FFF7C4FE7D20C00018
:1040A00001F084FDBFF34F8F03490248C860BFF39E
:1040B0004F8FFEE70400FA0500ED00E003480168B9
:1040C000002902D00168491E01607047D800001025
:1040D00010B512488168C9070CD10068104CC1B2F4
:1040E0000D2908D00A2906D020780E4A1218401C43
:1040F0002070117010BD20780121C9034018608024
:104100002278084908464038FDF708F8402105485C
:10411000FDF71DF80020207010BD00000080004059
:10412000D20000108D02001018B5002069460870FA
:1041300012480068087012480178124A012969463D
:104140000FD00978A6290BD10178002908D169463A
:104150000B7841885218491C41801370012101706D
:1041600018BD0B7841885418491C4180237011797F
:104170004288891D9142F3D10221F0E700000240FC
:104180000C0100105806001008B5002069460870A0
:104190000C48006808700C480078002809D00128F5
:1041A0000BD0022804D0032802D1087800F04EFD7D
:1041B00008BD087800F0F6FC08BD087800F0AAFCFD
:1041C00008BD0000004002400001001070B500244E
:1041D00005256D0320034019000B00F049F8641C0D
:1041E000642CF7DB70BD10B500F0A6F910BD10B55A
:1041F000002803D08522002100F0EAF810BD10B598
:10420000040007D0002000F033F88522002120466A
:1042100000F092F910BDF0B5A3B00C46050024D013
:10422000002C22D085220021684600F0D1F86E468D
:104230002021701CFCF78BFF08A8013040210746A5
:10424000FCF785FF2846FCF7B7FF02462946701C9D
:10425000FCF764FF2046FCF7AFFF024621463846D4
:10426000FCF75CFF6846FFF7CAFF23B0F0BD000013
:1042700070B5040300F004F9012820D0062000F0F6
:1042800047F90F4D00220221284601F03BFD202076
:1042900000F076F82002000E00F072F82004000E04
:1042A00000F06EF8002000F06BF801220221284691
:1042B00001F028FD00F0E4F8012800D0002070BDD6
:1042C0000000025070B5102002F0F6F81C48C269D8
:1042D00010210A43C261826B11231A438263026A6E
:1042E0000A430262426A0A434262062002F0E4F88C
:1042F000144C01220221204601F012FD012200216E
:10430000114801F00DFD05252D0700220821284642
:1043100001F006FD01220921284601F001FD0022DD
:104320000221204601F0EEFC00F084F8002802D0C3
:104330000649884201D1012070BD002070BD0000F7
:10434000404004400000025000000150FFFF000008
:1043500070B50A4D00220221284601F0D3FC052049
:1043600000F00EF8FF2000F00BF8044601220221B5
:10437000284601F0C7FCE007C00F70BD00000250E6
:10438000F8B50026114F054634460022114638463E
:1043900001F0B8FC0520EA090921000701F0B2FC90
:1043A0006806050E01220021384601F0ABFC05200D
:1043B00076000821000701F09BFC3043641CE4B246
:1043C000C6B2082CE1D33046F8BD00000000015011
:1043D000F8B515460E46044600F052F8012825D0DF
:1043E000134F00220221384601F08CFC0320FFF716
:1043F000C7FF3002000EFFF7C3FF3004000EFFF7C7
:10440000BFFFF0B2FFF7BCFF04E0FF20FFF7B8FFEB
:104410002070641C6D1EF8D201220221384601F082
:1044200071FC00F02DF8012800D00020F8BD00003C
:104430000000025070B5114E00220221304601F0FA
:1044400061FC9020FFF79CFF0020FFF799FF002000
:10445000FFF796FF0020FFF793FF0020FFF790FF84
:1044600005020020FFF78CFF2843044601220221A9
:10447000304601F047FC204670BD000000000250AD
:1044800008B508480090401E009008D0FFF760FF74
:1044900000280098F7D1002801D0002008BD012095
:1044A00008BD0000FFFF0000F8B515460E460446A3
:1044B000FFF7E6FF012827D0062000F029F8134F68
:1044C00000220221384601F01DFC0220FFF758FFB0
:1044D0003002000EFFF754FF3004000EFFF750FFCC
:1044E000F0B2FFF74DFF03E02078FFF749FF641CAF
:1044F0006D1EF9D201220221384601F003FCFFF7BC
:10450000BFFF012800D00020F8BD000000000250CD
:1045100070B5084C054600220221204601F0F2FB4E
:104520002846FFF72DFF01220221204601F0EAFB79
:1045300070BD000000000250F8B514460E46074654
:104540003119300A090A884204D0FF20F1B2013043
:10455000451A00E025462A4631463846FFF7A4FFB3
:10456000002803D17F197619641BE9D1F8BD042115
:10457000BF2005E00A46491EC9B2002AFAD103212C
:10458000401EF7D2704704218B20800005E00A46C8
:10459000491EC9B2002AFAD10321401EF7D2704742
:1045A00010B5102001F088FF0D48C16A1022114398
:1045B000C162416B112211434163062001F07CFF6F
:1045C00001220A21074801F0ABFB052000220B2144
:1045D000000701F0A5FBE42000F006F810BD000084
:1045E0004040044000000150F8B5224F064600222A
:1045F0000A21384601F086FB1F4C052101E0401ED0
:10460000FDD20846491EC9B2002801D0A01EF6E717
:10461000002501220A21384601F074FBF00709D079
:10462000FFF7B1FF00220A21384601F06BFBFFF7CC
:104630009EFF08E0FFF79BFF00220A21384601F0A9
:1046400061FBFFF7A0FF6D1C7608EDB2082DE0D3EB
:1046500001220A21384601F055FB22202146641E22
:10466000FDD20246401EC0B2002A01D08C1EF6E7E1
:10467000F8BD0000000001502413000010B5FFF742
:10468000B3FF10BD10B5FE20FFF7AEFF10BD000058
:1046900010B5C0B00446FF2101316846FCF757FD54
:1046A000224609A1684600F03BFD6846FCF784FD00
:1046B0000146684600F056FC684600F0FDFC002804
:1046C00000D0022040B010BD41542B434950434C10
:1046D0004F53453D25640D0A0000000030B5C1B0C0
:1046E0000D460446002069460870FF21013101A8EB
:1046F000FCF72DFD002C07D0684600F0D3FA002807
:1047000004D0032041B030BD0120FBE768460078AB
:104710002B460128224611D009A101A800F000FD76
:1047200001A8FCF749FD014601A800F01BFC01A807
:1047300000F0C2FC0028E5D00220E3E707A1ECE787
:1047400041542B43495053544152543D22544350F9
:10475000222C222573222C25640D0A0041542B4360
:10476000495053544152543D312C22544350222C31
:10477000222573222C25640D0A00000030B5C1B03B
:104780000546FF2101316846FCF7E1FC002D13D0FE
:1047900019A21CA1684600F0C3FC6846FCF70CFD9A
:1047A0000146684600F0DEFB684600F085FC002804
:1047B00004D0022041B030BD0120FBE73F21684614
:1047C000FCF7F0FC042211A1401CFCF70AFD0028B4
:1047D00010D03A216846FCF7E5FC841C2C212046C9
:1047E000FCF7E0FC021B21462846521EFCF796FC13
:1047F0000020DFE70320DDE741542B43574A4150B7
:104800003F00000025730D0A000000004E6F41506C
:104810000000000030B5C1B00546FF2101316846F7
:10482000FCF795FC12A215A1684600F079FC6846D9
:10483000FCF7C2FC0146684600F094FB684600F0B5
:104840003BFC002802D0022041B030BD2221684646
:10485000FCF7A8FC441C22212046FCF7A3FC002DF9
:1048600004D0021B21462846FCF758FC0020EBE749
:1048700041542B43494653520000000025730D0A52
:1048800000000000F0B50E46C1B00446FF211546F9
:1048900001316846FCF75BFC002C17D0002E15D0C8
:1048A000002D13D022461CA1684600F039FC684652
:1048B000FCF782FC0146684600F054FB684600F0B5
:1048C000FBFB002804D0022041B0F0BD0120FBE733
:1048D0003A216846FCF766FC2C21FCF763FC2C218E
:1048E000401CFCF75FFC441C2C212046FCF75AFCC2
:1048F0000746021B21463046FCF710FCBC1C2C214D
:104900002046FCF74FFC411E0A1B21462846FCF7B7
:1049100005FC0020D8E7000041542B43574C415080
:104920003D222573222C22220D0A0000F1B588B009
:104930001C2101A8FCF70BFC2248234C00680090C6
:104940002089C00B39D02078032836D12089400433
:10495000400C2081208900282FD0089800282CD0D6
:104960001AA11C48FCF70AFC471D1BA11948FCF7BB
:1049700005FC851E0026002F21D0002D1FD0EA1B2C
:1049800039460898FCF7CAFB0B350D212846FCF781
:1049900009FC421B00A829460130FCF7BFFB694611
:1049A0000898FCF7DFFB2681FF2101310948FCF75D
:1049B000CEFB2670002009B0F0BD0320FBE7267077
:1049C000FBE70000886700000001001053534944D2
:1049D0003A0000005805001050415353574F5244BD
:1049E0003A00000030B5C1B00546FF2101316846EC
:1049F000FCF7ADFB12A216A1684600F091FB6846D9
:104A0000FCF7DAFB0146684600F0ACFA684600F0B5
:104A100053FB002802D0022041B030BD002D0DD044
:104A20003A216846FCF7BEFB441C0BA16846FCF724
:104A3000A5FB021B21462846FCF770FB0020EBE794
:104A400041542B43495053544154555300000000E6
:104A500025730D0A000000004F4B000070B50E4694
:104A600090B005462C21FCF79DFB0446402168468A
:104A7000FCF76DFB002E03D0611C3046FCF7BEFB3B
:104A8000621B29466846FCF749FB2846FCF794FB65
:104A900001462846FCF75BFB69462846FCF7AEFB5F
:104AA00010B070BD10B5102001F006FD1648026868
:104AB00013210A4302601448C03882690A438261A4
:104AC000026A10210A430262C2690A43C2610620D7
:104AD00001F0F2FC012207210C4801F021F9052028
:104AE00001220221000701F01BF9E120400201F040
:104AF000C5FD074801F05AF8312000F085FA00287A
:104B000000D0032010BD0000C0400440000002504F
:104B1000B80B000010B520283ED000283CD00D284E
:104B20003AD00A2838D02B2836D01C4CA2881C49F1
:104B30008B18521CA2801870A08808182038C07FDB
:104B40004B2805D1A08808182038807F4F2811D025
:104B5000A08808182038C07F52281DD1A0880818C6
:104B60002038807F4F2817D1A08808182038407F30
:104B7000522811D1A0880121C90308432081A288AD
:104B80000749C81DF930FCF7C9FA0020A080FF21B1
:104B900001310348FCF7DBFA10BD000000010010F2
:104BA00058040010F8B5274C61780123002501292D
:104BB0001ED12549A2888854A278002A15D13A2806
:104BC00013D1A370091D0DE02C2A14D066890A2781
:104BD0007E4366816689303E92196281E278521C7A
:104BE000E270491C0A783A2AEED1A188491CA180BA
:104BF0002B2802D004E06581F0E7607800281FD000
:104C00006089E1784018A188401D884217D1A078BA
:104C1000012814D16570A0880121C90308432081AF
:104C2000A2880949C81DF930FCF778FAA580FF2150
:104C300001310548FCF78BFA6581A570E570F8BD78
:104C40006370F8BD000100105804001010B5134C3B
:104C5000A188134A5318491CA1801870A088101805
:104C60002038C07F4B2817D1A08810182038807FAB
:104C70004F2811D1A0880121C90308432081A288AF
:104C80000749C81DF930FCF749FA0020A080FF2130
:104C900001310348FCF75BFA10BD00000001001071
:104CA0005804001010B5C0B00446FF210131684619
:104CB000FCF74DFA002C13D00FA212A1684600F0A9
:104CC0002FFA6846FCF778FA0146684600F04AF980
:104CD000684600F0F1F9002804D0022040B010BD71
:104CE0000120FBE73A216846FCF75CFA407830384F
:104CF00020700020F2E7000041542B4349504D55ED
:104D0000583F000025730D0A0000000030B50D4625
:104D1000C9B00446FF2101316846FCF718FA20218A
:104D200040A8FCF714FA002C07D0002D05D040A8AD
:104D3000FFF724FD002803D008E0012049B030BD72
:104D4000214640A8FCF73FFA00280ED02B46224609
:104D500007A1684600F0E4F96846FCF72DFA014621
:104D6000684600F0FFF80020E8E70420E6E70000CE
:104D700041542B43574A41503D222573222C222572
:104D800073220D0A0000000000B5C1B0FF210131FF
:104D90006846FCF7DCF90CA210A1684600F0C0F9E7
:104DA0006846FCF709FA0146684600F0DBF86846F9
:104DB00000F082F9002802D0022041B000BD09496C
:104DC000032008700020F8E741542B4357534D410E
:104DD000525453544152543D3100000025730D0A82
:104DE0000000000000010010F3B5234C81B02089C1
:104DF0000D46C00B02D02078002801D00320FEBD54
:104E000020894004400C208103221CA11C48FCF78F
:104E1000E8F90026002825D13A211948FCF7C2F903
:104E200017492289401A401C171A091D002D0BD161
:104E30000DE02C281ED028680A22504328600A78EA
:104E4000801830382860491C08783A28F1D13A2176
:104E50000B48FCF7A7F9411C0198002802D03A46FC
:104E6000FCF75CF92681FF2101310548FCF76FF959
:104E70000020FEBD2E60E6E700010010495044000E
:104E800058050010F3B581B001980E4600280AD0ED
:104E9000002E08D0174C2089C00B02D020780128A2
:104EA00003D00320FEBD0120FEBD20894004400C3C
:104EB00020812089306003220FA11048FCF791F96E
:104EC000FF270025013700280CD00C4932680198D3
:104ED000FCF724F9258139460848FCF738F9257094
:104EE0000020FEBD258139460448FCF730F92570C5
:104EF000D7E7000000010010495044005805001099
:104F000030B5C1B0FF2101316846FCF720F910A28D
:104F100011A1684600F004F96846FCF74DF9014616
:104F2000684600F01FF8684600F0C6F8002802D076
:104F3000022041B030BD0A4D02202870FF242C34DD
:104F40000A2000F033FE641EFAD200202870F0E739
:104F500041542B525354000025730D0A00000000E9
:104F60000001001010B5044A01231370034BD380D5
:104F700089B201F0CBFB10BD0001001088130000C6
:104F8000F0B50F46C1B00446FF211D46164601315B
:104F90006846FCF7DCF8012C11D02A4611A16846BE
:104FA00000F0BEF86846FCF707F901466846FFF7CF
:104FB000D9FF684600F080F8002810D106E02B46A3
:104FC0003A460CA1684600F0ABF8EBE729463046BC
:104FD000FFF7C8FF684600F06FF8002800D00220F5
:104FE00041B0F0BD41542B43495053454E443D25FB
:104FF000640D0A0041542B43495053454E443D250E
:10500000642C25640D0A000030B5FFB0FF2482B087
:105010000546013421466846FCF799F8214640A828
:10502000FCF795F803242A460CA1684600F078F8AE
:105030000BE06846FCF7C0F801466846FFF792FFB0
:1050400040A800F039F8002805D02046641EE4B2DC
:105050000028EED103207FB002B030BD41542B4375
:10506000574D4F44453D25630D0A000000B5C1B0C2
:10507000FF2101316846FCF76AF80AA20CA16846D4
:1050800000F04EF86846FCF797F801466846FFF7CF
:1050900069FF684600F010F8002800D0022041B0F7
:1050A00000BD000041542B4349504D55583D31003F
:1050B00025730D0A00000000F8B50026044600968E
:1050C000002813D00D4D01F035FBE888002811D0E1
:1050D00069462046FFF7D6FE0028F4D10098201834
:1050E0002038C07F4B2803D00320F8BD0120F8BD35
:1050F0000020F8BD2E700220F8BD00000001001055
:105100000FB410B503A9044B044A029800F000F94B
:1051100010BC08BC04B018478D5C000010010010E2
:105120000FB410B504A9074B02AA039800F0F0F8D9
:10513000044602A9002000F087FC204610BC08BCF1
:1051400004B01847495A00002021020C01D0102158
:105150001046020A01D010460839020901D0104653
:10516000091F820801D01046891E420801D0881EFE
:105170007047081A704730B47446641E2578641C62
:10518000AB4200D21D46635D5B00E31830BC18479C
:10519000004870471C01001002E008C8121F08C137
:1051A000002AFAD170477047002001E001C1121FA8
:1051B000002AFBD170470000F0B51FB484B00798F7
:1051C0000699020D014314D04A484B491018484330
:1051D00005140F9801280E981CD0281A401C002492
:1051E000464E4749009401910290002814DA474244
:1051F00027E00F98012443A3012808D00021049838
:105200000F9A84600360C260416009B0F0BD0E98DF
:10521000C143F4E74042E2E7074612E0F80707D04F
:105220002246334601990098FCF786F901910090D7
:105230002246334610461946FCF77EF904460E46D0
:105240007F10002FEAD10298019B0028009A07994D
:10525000069802DAFCF770F901E0FCF7D5F904468C
:105260000E460022284BFCF79BFA03D80020C043CF
:10527000014607E00022254B20463146FCF7AAF8FC
:10528000FCF7E6FB102409E0002C0ADB0A220023CD
:10529000FCF79AFA059B30321A55641E02460A43FF
:1052A000F2D11122641C059B121B1C190F9B012BB0
:1052B00003D0012308430ED10AE0084304D0112093
:1052C0000E9000200F9084E70E98151A6D1E0BE0CB
:1052D0000E98824202DD00236D1C03E0824201DA57
:1052E00000236D1E002BEED004980F998260C160E0
:1052F00030C08AE701FCFFFF104D00000000244091
:105300000000F03F300000000000F0430000E03FEC
:10531000FFB597B00646002518E2252877D100246E
:105320002746FD49049400E00443761C32780120AE
:10533000203A90400842F7D130782A280ED0022235
:10534000307801463039092916D804990A2359437F
:10535000303940181443761C0490F1E7189802C8BD
:1053600004911890002904DA0120400304434842C4
:10537000049002200443761C30782E2814D1042097
:1053800004437078761C2A2809D11898761C80C8A6
:10539000189009E00A214F43303FC719761C307836
:1053A000014630390929F5D930786C2810D006DC4F
:1053B0004C281AD068280ED06A2817D104E0742827
:1053C00013D07A2812D110E00120400504430CE0EC
:1053D0000121090501E0032109050C43717881428F
:1053E00003D1012000052418761C761C307811901A
:1053F00066280BD013DC58287DD009DC00287BD030
:105400004528F6D04628F4D047281AD1A5E118E05F
:10541000632835D0642870D0652812D19DE17028AA
:105420006CD008DC6728F1D069287BD06E280DD0BD
:105430006F2806D1BAE073282ED0752871D078284D
:1054400059D01A9A199990476D1C7EE16002400F5D
:10545000022809D003280DD00428189801680DD01F
:105460000D60001D189070E11898EA1701680D6032
:105470004A60F6E7189801680D80F2E70D70F0E7D2
:1054800018986A4601781172001D18900020507219
:1054900002A80090012005E0189802C8189000208A
:1054A0000091C04361070DD5002101E00199491C1D
:1054B0000191B94212DA8142F8DB009A515C00296D
:1054C000F4D10BE0002101E00199491C01918142D6
:1054D000FADB019A0099895C0029F5D101990498B9
:1054E0001A9B471A21463846199A00F097FA0199F3
:1054F000401945180BE04FE02CE113E04EE0009816
:1055000000990078491C00911A9A199990470198BE
:10551000401E0190401CF2D1214638461A9B199A30
:1055200010E137E00A200021009001916002410F54
:10553000022907D0189A01CA1892C2179446032963
:1055400008D00AE01898C01DC108C90005C9189103
:10555000944607E000B2C2179446042902D140B233
:10556000C1178C4600226146944506DA0A4600219E
:10557000404291418C462D2102E0210504D52B218A
:105580006A461173012103E0E10701D02021F7E70A
:10559000029155E00A200AE0102008E01020009057
:1055A0000021042004430191082703E00820002182
:1055B000019100906002410F022907D0189A01CA98
:1055C000189200229446032908D008E01898C01DBC
:1055D000C108C90005C91891944603E080B20429A6
:1055E00000D1C0B200210291210729D5119970295B
:1055F00006D0009A1021019B4A401A4305D00EE0C4
:1056000040216A461173012108E06146014306D03A
:1056100030216A4611731199517302210291009A47
:105620000821019B4A401A430AD16146014301D136
:10563000610705D530216A46117301217F1E029151
:105640001199582904D035A10E910DA90D910DE0A5
:1056500037A1F9E76146019B009AFCF7B5F80E9B6C
:105660008C469B5C0D9A521E0D921370614601434D
:10567000F0D10D9805A9081A20300190600703D5D4
:1056800001200004844300E001270198874201DDE6
:10569000381A00E00020019900904118029809187A
:1056A0000498401A0490E00306D421461A9B199AE4
:1056B000049800F0B3F94519002706E003A81A9AE8
:1056C000C05D199990476D1C7F1C02988742F5DBDD
:1056D000E0030CD521461A9B199A049800F09EF914
:1056E000451904E01A9A3020199990476D1C0099C9
:1056F000481E00900029F5DC08E00D980D9900780F
:10570000491C0D911A9A199990476D1C0199481ED0
:1057100001900029F1DC63E10928010030313233C6
:1057200034353637383961626364656600000000DD
:1057300030313233343536373839414243444546C7
:105740000000000000F05AF94519761C3078002856
:1057500000D0E2E528461BB0F0BD600700D4062764
:105760001898C01DC108C90048680A680831C30FED
:10577000DB071891190001D09CA108E0210501D593
:105780009BA104E0E10701D09AA100E09AA14300A7
:1057900011985B08109165280CD006DC452809D0CB
:1057A00046281DD0472841D141E0662818D06728F7
:1057B0003CD13CE00021112F01DB112000E0781CDE
:1057C0000191009008A911A8FFF7F6FC1399059123
:1057D0000021119A15927F1C12980197009150E0B8
:1057E0000120C00703900120019008A9009711A88B
:1057F000FFF7E2FC139A149905920022119B009284
:1058000012981593059A0192002901D0104602E0E2
:10581000791C40180190381A01D5019804E04042E3
:10582000401E0090781C0190C01B029043E0012FA5
:1058300000DA01270021112F01DD112000E0384698
:105840000191009008A911A8FFF7B6FC13990591E2
:10585000119A0021129815920091019721070CD4FA
:105860000599B94201DB019900E00191012904DDAC
:10587000159A491E515C302906D0B84201DA011D43
:1058800005DA0121029115E00199491EEDE7002892
:1058900005DC0099411800910199091A03E0019A69
:1058A000411C914200DD01910099401A401C029078
:1058B0000120C0070390200706D402990198814275
:1058C00002DB0020C043029000206946C87707AF82
:1058D000012103980337C907884224D00220119080
:1058E0002B201290039800280CDA404203902D20C0
:1058F000129007E00A210398FBF7FAFB30317F1E74
:10590000039039701199481E11900029F2DC039818
:105910000028EFD1791E12980870307820210840B5
:105920004530BF1E387006A8C01BC01D03901098DC
:105930000078002800D00120019941180298C01772
:105940000918039809180498401A401E0490E003AF
:1059500006D421461A9B199A049800F05FF845195D
:1059600010980078002803D01A9A199990476D1C56
:10597000E00324D521461A9B199A049800F04EF8AA
:1059800045191CE00098002807DB0099059888421B
:1059900003DD1598405C199901E0199930201A9A95
:1059A000904700986D1C401C00900298401E029089
:1059B000002804D11A9A2E20199990476D1C01993C
:1059C000481E01900029DDDC05E038781A9A7F1C1A
:1059D000199990476D1C0399481E03900029F4DC27
:1059E00021461A9B199A0498ACE600002D0000008D
:1059F0002B0000002000000000000000F8B5044665
:105A000000251E461746880404D405E039462020A8
:105A1000B0476D1C641EF9D52846F8BDFFB5044695
:105A2000002581B01E46C80301D5302700E020279D
:105A3000880404D505E038460399B0476D1C641E00
:105A4000F9D5284605B0F0BD0A68531C0B601070EC
:105A500070478268002902D0002A03D18160704714
:105A6000020002D010680028FAD111604A60704725
:105A700070B514000D4606460DD0206A002802D0ED
:105A8000054949688847284600F056F820622146B3
:105A90003046FFF7DEFF70BDC400001010B500F007
:105AA00037F8002801D00621C16010BD70B5054649
:105AB00000F02EF8040005D00420E060284600F035
:105AC0003BF82061204670BD70B504460F4E19E0CA
:105AD000A0892568C0050CD4A068002804D0FFF771
:105AE000F3FFA089C00504D42069002801D07168A3
:105AF0008847206A002801D071688847716820466D
:105B000088472C46002CE3D170BD0000C400001073
:105B100010B50549282009688847040002D02821CB
:105B2000FBF715FB204610BDC400001010B5002285
:105B3000114600F08DFC10BD70B50646FBF73CFB2E
:105B40000649401C096804468847050004D02246DF
:105B50003146FBF7E3FA284670BD0000C400001090
:105B600070B50546082000F0A7FC0E4C6320E060ED
:105B700000262661A660E1680B48491C694300685D
:105B8000FBF7B6FAA0610320606106484030066367
:105B9000012060601120FCF7C7FD00211120FCF7F7
:105BA000CDFD70BD00000140C0000010044A01E0BE
:105BB000491EFDD2401E01D3911EF9E77047000037
:105BC0000E1F0000F8B54A002B4B520DD6182B4A79
:105BD0000C460546142E2BDA002E12DA284BFBF762
:105BE000F9FB00221346FBF7DBFD40D2002C02DB61
:105BF000002425463BE060004008284337D0214C74
:105C000014E0214F0B46F7403B402B4331D01C4B57
:105C1000FBF7E0FB00221346FBF7C2FD27D2002C66
:105C200003DA01200005F0400419BC4300251EE002
:105C3000332E1EDC33460027143BFF43DF4038423F
:105C400017D00F4BFBF770FC00221346FBF7A8FDA3
:105C50000DD2002C0ADA142E0CD03420811B012026
:105C600088404019A84200D2641C0546BD43214625
:105C70002846F8BD641CF9E701FCFFFF9C7500880D
:105C80003CE4377E0000F0BFFFFF0F0010B5044674
:105C9000C0B200F0A3FC204610BD000010B50028E3
:105CA00023D0124B0022001F196803E0814203D861
:105CB0000A4649680029F9D1002A0AD01368841AD3
:105CC0009C4204D1006818181060104602E0506031
:105CD00000E01860002907D002680B1A934203D134
:105CE0000B68D21802604968416010BD14010010B1
:105CF0007F22D2018018C06F01228A40104000D05C
:105D00000120704710B57F24E40101238B40001966
:105D1000C16F002A01D0194300E09943C16710BD4B
:105D200010B50123DC038B4000190168012A02D061
:105D30009943016010BD1943FBE7000000200122D8
:105D40001203110408CA401C08C1C0B23028F9D39C
:105D50002A4901200860FEF7D9F8102000F0ACFBBA
:105D60002748426A11210A434262826A0A438262D8
:105D7000E120400200F0F0FB22A225A127A0FFF7BE
:105D8000BFF9FEF7B7F8FEF70BFCFCF769FCFEF76E
:105D900099FA012812D0FDF745FFFCF789FBFDF7C2
:105DA000D7FCFCF789F9FEF77DFE002807D023A079
:105DB000FFF7A6F9FFF7A4F8FCF704FDFEE700F0F3
:105DC000C3FCFDF75DFE22A124A0FEF724FAFDF737
:105DD00069F824A0FFF794F900F0ACFCFDF7FCFD96
:105DE000FCF706FAFDF724FAFDF7D6FAFCF70EFDEC
:105DF000FCF772FBFDF74AFCEEE700000080044070
:105E00008040044031353A35313A353200000000E7
:105E10004A756C20323020323031360054686520AB
:105E200053797374656D2053746172742055705B7F
:105E300025732025735D0D0A00000000574946496F
:105E400020576F726B204661696C7572650D0A0090
:105E5000323031363037303531300000302E302E90
:105E60003200000053797374656D204E6F726D615E
:105E70006C20576F726B0D0A00000000F0B50B30FC
:105E8000C108C900144F0026144A0FE003688B4272
:105E90000BD38B4205D95C1A4318456830C3083BC5
:105EA00000E04368136002C004E0021D106800288F
:105EB000ECD13046002803D13868002801D00020FA
:105EC000F0BD064A06481060064A121AD208D200EF
:105ED00044C001203860D7E71801001014010010F9
:105EE0008C070010880F0010F7B5052084B00090D3
:105EF0000498002580682F46019501E000686D1C1C
:105F00000028FBD1444A002D11680AD0A80004469D
:105F1000884706000FD02146FBF719F904988468DA
:105F200027E003208847040002D03CA1FBF766F974
:105F3000204607B0F0BD0020FBE705992046491C2C
:105F4000069A00F085FA0199890070500199491C60
:105F5000019100280BD0FBF72FF90699002900D0FA
:105F60000121411800980818801C009000E00127CA
:105F70002468002C02D0002FDFD010E0002F0ED1BB
:105F800025490098096888470290002807D05B21BE
:105F900001700020029C07466070641C2FE0002402
:105FA0001D4F06E0A0003058002801D079688847CE
:105FB000641CAC42F6DB796830468847BBE7B80022
:105FC0000190009031582046FBF718F9009830589E
:105FD000FBF7F2F80419681E87420AD02C202070C3
:105FE0000698641C002802D020202070641C002029
:105FF0002070094901984968305888477F1CAF4292
:10600000DDDB05493046496888475D202070002067
:10601000607002988DE70000C40000105B5D000016
:10602000F8B50646143031C8304FFBF765FB224601
:106030002B46FBF773FA4900490800222C4BFBF76B
:106040009BFB17D82B4A2C4B20462946FBF794FB89
:1060500010D80022294B20462946FBF7A1FB09D87E
:1060600039681520884707003ED025A17269FFF7DF
:1060700057F839E0396840208847070034D0204677
:106080002946FFF79FFD22462B46FBF747FA4900BA
:1060900049080022164BFBF76FFB0BD8690020461E
:1060A0004908184A184BFBF767FB03D222462B46D8
:1060B00016A116E06900490820460E46154A164BFF
:1060C000FBF75AFB06D3204631460022134BFBF761
:1060D00067FB03D222462B4611A102E022462B4643
:1060E00010A13846FFF71CF83846F8BDC400001070
:1060F0000000B03C0000C0FFFFFFDF410000E0C136
:106100002564000044F3C2E4E4E9634C252E3066C4
:10611000000000008DEDB5A0F7C6B03E65CDCD41C5
:106120002565000025660000F7B58AB007200690B7
:10613000002000900A98002680681546059601E028
:106140000068761C0028FBD1894F002E396820D0CA
:10615000B000044688470390002839D039460968C2
:1061600020468847070035D021460398FAF7EFFF0D
:1061700021463846FAF7EBFF0A98806801900B98A1
:10618000401C0B90002D59D00B9906984018069092
:1061900054E0002D02D00B98001D00E0032088473A
:1061A000002815D07B210170411C002D0CD00A2243
:1061B0000A700B9A00230924491C521E02E00C703D
:1061C000491C5B1C9342FADB7D220A7000224A7054
:1061D0000DB0F0BD66490398496862E0006A00F0BE
:1061E000C9F8009909908C0038512A460B990198FA
:1061F00000F02EF9039A014610510098401C0090BF
:106200000998002815D0002913D00846FAF7D4FFC2
:1062100004460998FAF7D0FF2118002D02D00B98F8
:10622000801C00E00020091806980818801C0690C1
:1062300001E0012005900198006801900198002874
:10624000CCD10598002813D1494906980968884798
:10625000089000280CD008997B200870089C641CCA
:10626000002D02D00A202070641C0020207062E003
:1062700000240EE0A5007859002802D03C49496866
:10628000884703984059002802D03949496888470F
:10629000641CB442EEDB364C38466168884761685E
:1062A00003988847002093E7002D08D0002009229A
:1062B00002E02270401C641C0B998842F9DB0098B4
:1062C00080000590069039582046FAF797FF069807
:1062D0003858FAF771FF04193A202070641C002D19
:1062E00002D009202070641C0399059809582046A3
:1062F000FAF784FF039905980858FAF75DFF041927
:106300000098711E884202D02C202070641C002D41
:1063100002D00A202070641C0020207014490598C7
:1063200049683858884703990598085810494968BA
:1063300088470098401C0090B042B5DB0C4E3846B0
:1063400071688847716803988847002D09D00B99B8
:1063500000200922491E02E02270401C641C884271
:10636000FADB7D20207000206070089830E7000084
:10637000C4000010F8B500250446002801D00646E8
:106380000FE02DA0FFF7D8FBF8BD39462BA0FAF798
:1063900009FF002801D06D1C02E0202F00D26D1DE6
:1063A000761C3778002F01D06D1CEED12549E81CF2
:1063B000096888470500E7D022260670681C23E09C
:1063C0001F2907D9222905D05C2903D00170401C60
:1063D000641C19E05C210170401C2278641C074693
:1063E0000C2A1FD006DC082A1AD0092A20D00A2A33
:1063F00006D119E00D2A19D0222A0ED05C2A0AD023
:1064000011A1FEF78DFE781D21780029D8D10670E4
:1064100041702846F8BD397000E03E70401CF3E73B
:10642000622006E0662004E06E2002E0722000E0B8
:1064300074203870781CE7E700000000225C080C2C
:106440000A0D0900C40000107525303478000000E2
:1064500070B504460020002C08D0257B2B00FEF7E9
:106460008AFE07090B070F13171B0600002070BDDB
:106470000BA002E00CA000E00DA0FFF75DFB70BDDB
:106480002046FFF7CDFD70BD2069FFF773FF70BD9B
:106490002046FFF729FD70BD2046FFF745FE70BD81
:1064A0006E756C6C0000000066616C736500000026
:1064B000747275650000000003490A680123834077
:1064C0001A430A60704700008080044002498A6BCA
:1064D00082438A637047000000820440014988615A
:1064E0007047000080800440034908610120486132
:1064F00000224A6148617047C080044001498861B8
:1065000070470000C0800440FF200249823048628A
:106510007047000000800440014610B50A4800683A
:10652000FAF7E6FD0949401E88420CD8084948613F
:1065300008480722C3691B021B0A4C042343C3619A
:10654000002088610A6110BDC0000010FFFFFF003D
:1065500000E000E004ED00E070B505460C20FFF718
:10656000ABFF0120FFF7BAFF174C2120A062832068
:10657000E0602801FBF7D4F80022144BFAF7DCFFA7
:10658000054613480E46816912480068FAF7B0FDC7
:10659000FBF7C6F82A463346FBF736F8FBF7CEF88A
:1065A00080B2010A6160C0B220600320E0608720F1
:1065B000A06001250849A001086029461520FCF7C4
:1065C000DFF8656070BD0000008000400000F83F0B
:1065D00080800440C000001000E100E00249086033
:1065E00048694006FCD5704700800040F8B5054674
:1065F0001320FFF761FF184F01203862174C21204C
:10660000A0628320E0602801FBF78AF80022144B87
:10661000FAF792FF0E46396A054612480068FAF703
:1066200067FDFBF77DF82A463346FAF7EDFFFBF7E7
:1066300085F880B2010A6160C0B220600320E0608A
:106640008720A06008496001086002211620FCF73D
:1066500097F801206060F8BD80800440000002408F
:106660000000F83FC000001000E100E002490860AF
:1066700048694006FCD5704700000240F8B5054661
:106680001420FFF719FF1B49132008601949C0396E
:106690008861194F04207862184C8520A0628320FD
:1066A000E0602801FBF73CF80022154BFAF744FFA5
:1066B0000E46796A054613480068FAF719FDFBF79C
:1066C0002FF82A463346FAF79FFFFBF737F880B2D8
:1066D000010A6160C0B220600320E0608720A060F2
:1066E00001250949E805086029461720FCF748F804
:1066F0006560F8BDC0400440808004400040024016
:106700000000FA3FC000001000E100E000280ED0B9
:10671000074A00290BD005E003781360401C536939
:106720005B06FCD50B46491E89B2002BF4D170479D
:106730000040024072B6AA21024881605521816062
:1067400062B670470040004010B5FFF7DDFE402004
:10675000FFF7BCFE0220FFF7C7FE0120FFF7CEFEC9
:106760000F20FFF7A9FE044803210160034941609F
:10677000FFF7E0FF10BD00000040004000093D00B1
:1067800002000000000000002C000000004040401B
:1067900040404040404041414141414040404040F4
:1067A00040404040404040404040404040050202A0
:1067B000020202020202020202020202022020205F
:1067C00020202020202020020202020202029090BB
:1067D00090909090101010101010101010101010B9
:1067E000101010101010101002020202020288880D
:1067F0008888888808080808080808080808080819
:106800000808080808080808020202024000000000
:106810008D6700000D0A2D2D2D2D2D2D2D2D2D2DAB
:106820002D2D2D2D2D2D2D2D2D2D2D2D2D2D536837
:10683000656C6C20434D442056312E302D2D2D2D6E
:106840002D2D2D2D2D2D2D2D2D2D2D2D2D2D2D2D78
:106850002D2D2D2D200D0A002D2D2D2D2D2D2DCF43
:10686000B5CDB3C3FCC1EE2D2D2D2D2D2D2D0D0A33
:10687000303031203A20CFB5CDB3D6D8C6F40D0A8A
:10688000303032203A20CFB5C1D0BAC5C5E4D6C326
:1068900036CEBB3C6574632E6331303030303031DE
:1068A0003E2CD2AAB1A3D6A4CEA8D2BBD0D40D0A76
:1068B000303033203A20BBD6B8B4B3F6B3A7C9E81A
:1068C000D6C30D0A2D2D2D2D2D2D2DCBF8D6B8C1CB
:1068D000EE2D2D2D2D2D2D2D0D0A313030203A206D
:1068E000BFAACBF80D0A313031203A20B9D8CBF805
:1068F0000D0A313032203A20B9D8C1AA0D0A2D2D07
:106900002D2D2D2DD3EFD2F4D6B8C1EE2D2D2D2D5A
:106910002D2D2D0D0A323030203A20B2A5B7C50DED
:106920000A323031203A20CDA3D6B90D0A0000003A
:1069300050690000C0000010600000009851000085
:10694000B06900002001001068160000A851000086
:10695000006CDC027D5E00009D5C00000000000019
:106960000000000000000000000000000000000027
:1069700000000000000000000000000000640000B3
:1069800000000000983A0000E8030000000000004A
:10699000000000000000881300000000000000005C
:1069A00000000000000000000000000000000000E7
:04000005000010C126
:00000001FF
