:020000040000FA
:1000000020070010D5000000DD000000DF00000028
:1000100000000000000000000000000000000000E0
:10002000000000000000000000000000E1000000EF
:100030000000000000000000E30000003D1A000086
:10004000E7000000E7000000E7000000E700000014
:10005000E7000000E7000000E7000000E700000004
:10006000E7000000E7000000E7000000E7000000F4
:10007000E7000000E7000000E70000003D09000085
:100080001507000019070000E7000000E700000066
:10009000E7000000E91A0000E7000000E7000000A8
:1000A000E7000000E7000000E7000000E7000000B4
:1000B000E7000000E7000000E7000000330900004F
:1000C0000348854600F008F900480047192F000052
:1000D000200700100448804704480047FEE7FEE779
:1000E000FEE7FEE7FEE7FEE7611A0000C100000040
:1000F00030B50B46014600202022012409E00D46C0
:10010000D5409D4205D31D469540491B2546954047
:1001100040191546521E002DF1DC30BD70B500248B
:100120002546002801DA01244042002901DA012590
:100130004942FFF7DDFFAC4200D04042002C00D026
:10014000494270BD03460B439B0703D009E008C931
:10015000121F08C0042AFAD203E00B780370401C77
:10016000491C521EF9D27047D2B201E00270401C05
:10017000491EFBD270470022F6E710B513460A4627
:1001800004461946FFF7F0FF204610BDF0B51FB436
:1001900088B00B990998002448400999C00F49007C
:1001A00049080991C0070B990090490049080B9133
:1001B00009990898A64608431CD00B990A98084349
:1001C00018D0099801244000420D4800410D0998BB
:1001D00024050003000B204309900B980003000B3B
:1001E00020430B9050181C494018002201901446DF
:1001F000104605E0002001460DB0F0BD032801DAED
:10020000034600E003239C46C11A0AAE0AE05F00E1
:1002100008ADED5B4F00F75B7D430027AA187C41DA
:10022000491C5B1E6145F2DD410004AB5A522104BA
:10023000120C0A43240C401C0828DFDB01980290B2
:100240000099704601910090059B049A07990698C1
:1002500000F0DBF8D0E700000DFCFFFF0EB505490C
:100260000291002100910A460B46019100F0CDF861
:1002700003B000BD330400004A0009030123090B49
:100280001B051943094B10B5520D9A4201DA0020A3
:1002900010BD064B34339A4203DC9A1A00F00AF878
:1002A00010BD03495118884010BD0000FF03000035
:1002B000CDFBFFFF10B5202A04DB0846203AD040D2
:1002C000002110BD0B46D340D0402024A21A9140FB
:1002D0000843194610BD0000064C0125064E05E0F6
:1002E000E36807CC2B430C3C98471034B442F7D357
:1002F000FFF7EAFE0C3300002C330000FFFFFFFF86
:10030000F0B50C465C4085B0E40FE40703944C0064
:100310000026640859009446490802460296224382
:1003200021D062460A431ED06200570D4A000E03D8
:100330002303550D012402462C492405781B1B0B71
:10034000360B401823432643614600901C46501A42
:10035000B44103D30098401C009002E0921800982A
:100360005B41002803DA0020014605B0F0BD002003
:10037000012109050746864611E064461D46141B07
:10038000B54106D36546521BB341744607430C433F
:10039000A646CD0740084908284392185B41054608
:1003A0000D43EAD11046184313D060461946504019
:1003B0007140084306D06046101AB34106D20122AC
:1003C000002306E000220123DB0702E00122D243E2
:1003D0005310009874460105381C6141029C039D2E
:1003E0000019694100F004F8BFE70000FD030000B8
:1003F00010B5002B08DA0024401C614192185B41C3
:100400001A4301D14008400010BDF0B51FB482B0BE
:1004100005460C0003D0084601F02EFC02E001F076
:100420002BFC2030024600902146284600F03FF881
:10043000049B059A04460F4618431143084314D001
:10044000184610431BD0009840210A1A18460599F7
:10045000FFF730FF05460E46009A0599049800F014
:1004600026F8084305D0012004E02046394607B0AD
:10047000F0BD0020C11705430E432C4337430099BC
:100480000E986305401A7905E40A00220C43FD0A20
:100490000A3002D500200146E9E70105101969413B
:1004A0000C9C0D9D00196941FFF7A2FFDFE710B515
:1004B000202A04DB0146203A9140002010BD9140E3
:1004C00020239C1A0346E3401943904010BD0000CE
:1004D00010B501460022002000230B7000BF10E081
:1004E00014235343094C18190378002B00D106E05C
:1004F0004378022B02D1437C0B7010BD00BF531C0C
:10050000DAB2062AECDB00BFF7E70000C4000010F7
:1005100070B504460D46A07C002800D170BDA17CBA
:10052000284600F01FFF00BFF8E700007FB500215C
:100530000391029100260024002501F03DFD3F209B
:1005400001F01CFC534801F091FFA1E001F09AFF7B
:1005500001F092FF002802D101F042FD7FBD01F0C1
:1005600053FC064600242CE001F08CFF142060436D
:10057000494945182878002800D124E0314628460A
:1005800001F0B6F9687A012819D1687800280CD1F1
:1005900001F00AF8002800D015E0284601F086F99D
:1005A000A97C032000F0DEFE09E06878022806D16D
:1005B000284601F06AF9A97C022000F0D3FE601CF5
:1005C000C4B2062CD0DB00BF684600F0A9FE0028AC
:1005D0003CD168460079022805D0032802D00A28B9
:1005E0002DD128E000BF6A465179107900F0E2FD74
:1005F0006A46107902281DD1002418E014206043B7
:100600002549085C002800D113E068464179142090
:100610006043214A8018407C814206D11421614305
:100620008918087C01F0B8FC03E0601CC4B2062CF9
:10063000E4DB00BF09E068464179029105E06846C5
:10064000017903A801F0EEFA00BF00BF02A903A8D8
:1006500001F05AFA6846007B030001F024FB0717FB
:10066000060E14050D13170000BF6846007A00F04F
:1006700033F801F0B5FC71E700BF00F00FF801F0AE
:10068000AFFC6BE700BF01F0ABFC67E700BF00BF4A
:100690005CE7000060EA0000C400001070B50025AF
:1006A000002400BF11E0142068430A494418207850
:1006B000002800D10BE06078022804D10020A0744B
:1006C000284600F025FF681CC5B2062DEBDB00BFF5
:1006D00070BD0000C400001070B50646002400255F
:1006E00000BF10E01420604309494518287800280D
:1006F00000D10AE06878022803D1AE74204600F0E9
:1007000007FF601CC4B2062CECDB00BF70BD00000C
:10071000C40000107047000010B507480068C0070B
:10072000C00F002806D002F093FA02F099FA0120D7
:100730000149086010BD000000000140002000BF1A
:1007400012E0032102010A4B995401210201D2183F
:10075000517081400201D2181171012181400201C2
:10076000D2181173411CC8B20628EADB704700009A
:100770003C01001070B504460D462946201D02F0CC
:10078000E5FB70BD10B507480078012800D110BD09
:100790000120044908700021042000F0E3FD00BF9F
:1007A000F5E70000A000001010B50021044802F099
:1007B0004BF8002801D1022010BD0120FCE7000009
:1007C0000000015005484068002800D170470348E8
:1007D0004068401E0149486000BFF7E7A0000010D4
:1007E00010B5102002F0B8FC892007498863062064
:1007F00002F0B2FC00221146044802F05CF800202E
:1008000003490870486010BD40400440000001509A
:10081000A000001005484068002801D00120704762
:100820000348024948600020F9E70000A0000010DA
:100830008813000010B507480078022800D110BDC9
:100840000220044908700021052000F08BFD00BF44
:10085000F5E70000A000001010B50024FFF7DAFF54
:10086000002800D010BDFFF79FFF0446012C09D0DF
:10087000022C0FD101F0B0F8002800D10BE0FFF7F7
:10088000D9FF08E001F0A8F8002800D103E0FFF745
:1008900079FF00E000BF00BF00BFE3E710B500F044
:1008A00031FB01F0D7FD01F079FA01F0D3FB01F043
:1008B0004DFD01F023FA01F0A5FCFFF791FF01F0D7
:1008C000E5FD10BD30B50B46002800D130BD03E07A
:1008D0001C7804705B1C401C1446521E002CF7D17F
:1008E00000BFF3E7F0B5C1B005460C461746FF213F
:1008F000013101A8FFF73FFC3A46294601A8FFF75E
:1009000021FC2003060E72B63146304602F0B2FBDF
:100910003146304602F092FB3146304602F0AAFBE7
:10092000FF22013201A9204602F06AFB62B641B003
:10093000F0BD10B502F0BEF810BD000000B50120FA
:1009400080074068F82108404107490F002975D108
:10095000C010030001F0A7F90CFD071C24C025C13D
:10096000C2B1C3CAE9FD7C480078012807D17B48A1
:100970000078FE21084001218907886004E077485B
:1009800000780121890788602820C1068861E1E09C
:100990007248007801218907886028208861D9E0A1
:1009A00000BF6D48007800281FD16D4800680028FE
:1009B00013D06C4800680078012189078860694875
:1009C0000068401C674908602820C10688616448A7
:1009D0000068401E6249086007E010208106086038
:1009E000282088610120604908705B480078012850
:1009F00032D15E48007802280ED15D4800680004BC
:100A0000000E0121890788602820886157480078F6
:100A1000401E564908709DE05448007801280ED1C8
:100A200053480068C0B20121890788602820886186
:100A30004E480078401E4D4908708BE089E04B48D5
:100A40000078002808D10820C106886120200860AD
:100A50000020414908707DE03F48007802282BD1F2
:100A600042480078002827DD4048007802280ED14F
:100A70003F4800680004000E012189078860282093
:100A800088613A480078401E3849087062E037486B
:100A90000078012810D136480068C0B201218907CA
:100AA00088602820886131480078401E2F490870EE
:100AB0000020294908704DE04CE0294800680128D1
:100AC00003D804200107886102E0042001070860C0
:100AD0002820C10688613DE000BF00BF00BF28207C
:100AE000C1068861FF202049087033E0012080079B
:100AF00080681C49096808701A480068401C194938
:100B0000086017480068401E1549086008460068DC
:100B1000012804D12C2001218907886104E00420E8
:100B2000010708602820886114E0012080078068A0
:100B30000C49096808700B480068401C09490860A6
:100B4000102081060860282088610120064908706D
:100B500000E000BF00BF00BDBD000010A8000010F5
:100B6000B8000010B4000010BC000010B00000106D
:100B7000AC0000107CB500250026002401F0B6F87A
:100B800005464948854200D07CBD00F019FCFFF7BE
:100B9000D5FD01F0E3FA02F083FA444801F066FC67
:100BA00080E001F06FFC01F067FC002804D101F047
:100BB000E5FA02F0A1FAE7E701F098F805463C48AB
:100BC000854204D101F0DAFA02F096FADCE701F08E
:100BD0001BF90646002407E02101364A88183146F1
:100BE000FFF7C8FD601CC4B2062CF5DB3148407924
:100BF000022808D101F0C2FA02F052FA00F0F0FB2C
:100C000002F07AFAC0E72B48407D02280CD101F0AF
:100C1000B5FA0021062000F0A5FB02F041FAFFF72B
:100C200085FC02F069FAAFE72248203040790228BB
:100C300008D101F0A3FA02F033FA00F077F902F0DC
:100C40005BFAA1E71B4830304079022808D101F057
:100C500095FA02F025FA00F061F802F04DFA93E7F8
:100C6000144840304079022808D101F087FA02F098
:100C700017FA00F0EFF802F03FFA85E7684600F057
:100C80004FFB00280ED168460079062808D101F0F4
:100C900075FA02F005FAFFF749FC02F02DFA73E746
:100CA00000BF00BF7DE7000001FE17E860EA00001A
:100CB00001FE08F73C010010F8B5044600250026A7
:100CC000032C00DBF8BD00251DE01420684310490B
:100CD0004618600020180F4A811803226846FFF763
:100CE00031FA307C009901F08DF9600020180A4A31
:100CF000811803226846FFF725FA307C009901F03D
:100D000089F8681CC5B2062DDFDB00BFDAE70000FA
:100D1000C4000010230000102C000010FEB50020BD
:100D2000019000260024002500273F2001F026F82E
:100D3000304801F09BFB5BE001F0A4FB01F09CFB61
:100D4000002807D12C498879FFF7B6FF3F2001F032
:100D500089F8FEBD01F058F80190002426E020013A
:100D60002649461830460199FFF704FD707901289D
:100D700000D019E0691CC8B20321FFF7CFF9CDB24A
:100D8000680028181E4A811803226846FFF7DAF91E
:100D90003F20009901F03EF83F20009901F032F920
:100DA0003F2001F05DF900BF601CC4B2062CD6DB09
:100DB00000F09CFF07461348381800280BD0124952
:100DC0004018002812D10C498879FFF775FF3F20A1
:100DD00001F048F8BDE7284600F094FD06498879FF
:100DE000FFF76AFF3F2001F03DF8B2E700BF00BF08
:100DF000A2E7000060EA0000120000103C010010B1
:100E000023000010FF01E81700000FF170B5002665
:100E10000024002500F0F8FF0646002E01D000F067
:100E2000CFFA002410E014206043094945182878BF
:100E3000002800D10AE03146284600F059FD284636
:100E400000F0CCFC601CC4B2062CECDB00BF70BD13
:100E5000C400001038B500244AE001F013FB254817
:100E600001786846017023484178684641702148FE
:100E70008178684681703F20009901F027F8FF20B3
:100E8000913001F0BFFB1C480178684601701A4898
:100E900041786846417018488178684681703F20E3
:100EA000009901F013F8FF20913001F0ABFB1348DB
:100EB00001786846017011484178684641700F48D2
:100EC0008178684681703F20009900F0FFFFFF2085
:100ED000913001F097FB00F009FF04460848201804
:100EE000002803D13F2000F0BDFF38BD00BF00BF88
:100EF000B3E700001A0000101D00001020000010D1
:100F0000FF01F70810B5102002F026F90648406AE4
:100F100011210843044948620846806A11210843A8
:100F20000149886210BD00008040044070B5002473
:100F3000002501F041F83F2000F020FF344801F087
:100F400095FA3E2001F030F83E2000F08BFF00F0D3
:100F500043FD012807D101F027F8012001F080F8B6
:100F600002202C49487052E001F08CFA01F084FA1A
:100F7000002802D101F034F870BD00F045FF0446AE
:100F800021462448FFF7F6FB22484079012819D171
:100F900020484078012809D102201E4948700120CC
:100FA00001F002F8012001F05BF80BE019484078ED
:100FB000022807D101201749487000F0EDFF0120F9
:100FC00000F050FF00F092FE054613482818002854
:100FD00008D01249401800280ED0114940180028A6
:100FE00013D10CE00B484078022802D1012000F018
:100FF00019FD00F0F5FFBFE700F0F2FFBCE70020AD
:1010000000F010FD00F0ECFFB6E700BF00BFABE75B
:1010100060EA00003C010010FF01E81700000FF13A
:10102000000003FDC206D20E01219140014A116069
:101030007047000000E100E0C206D20E012191409D
:10104000014A11607047000000E100E010B500287F
:1010500019DA1A4A03071B0F083B9B089B00D2585A
:101060008307DC0EFF23A3409A438B071B0E8407E4
:10107000E40EA3401A43114B0407240F083CA408B4
:10108000A4001A5118E00E4A03231B02D218830849
:101090009B00D2588307DC0EFF23A3409A438B07A3
:1010A0001B0E8407E40EA3401A43054B03242402BD
:1010B0001B198408A4001A5110BD00001CED00E0AB
:1010C00000E100E010B5002819DA1A4A03071B0FE7
:1010D000083B9B089B00D2588307DC0EFF23A340EC
:1010E0009A438B071B0E8407E40EA3401A43114B4F
:1010F0000407240F083CA408A4001A5118E00E4A63
:1011000003231B02D21883089B00D2588307DC0EEE
:10111000FF23A3409A438B071B0E8407E40EA340D2
:101120001A43054B032424021B198408A4001A51F6
:1011300010BD00001CED00E000E100E010B500284B
:1011400019DA1A4A03071B0F083B9B089B00D25869
:101150008307DC0EFF23A3409A438B071B0E8407F3
:10116000E40EA3401A43114B0407240F083CA408C3
:10117000A4001A5118E00E4A03231B02D218830858
:101180009B00D2588307DC0EFF23A3409A438B07B2
:101190001B0E8407E40EA3401A43054B03242402CC
:1011A0001B198408A4001A5110BD00001CED00E0BA
:1011B00000E100E0F8B507460D4600260024002DAA
:1011C00000D1F8BD002629E01420704316494418C8
:1011D0002078002800D123E0A07CA84200D01BE0AA
:1011E000022F0CD0032F16D1204600F05FFB00F039
:1011F000F3FB012802D1617C00F0B4F8E1E720465E
:1012000000F030FB00F0E8FB012803D1617C0020F6
:1012100000F0A8F8D5E700BF701CC6B2062ED3DBDD
:1012200000BF00BFCDE70000C4000010F8B50646BF
:101230000F460025002400BF29E01420684316490A
:1012400044182078002800D123E0607CB84200D008
:101250001BE0002E0CD0012E15D1204600F026FBFD
:10126000A07C002803D0A17C032000F07BF80AE0DA
:10127000204600F0F7FAA07C002803D0A17C0220D1
:1012800000F070F800BF00BFF8BD681CC5B2062DA5
:10129000D3DB00BF00BFF7E7C40000101CB56846F1
:1012A00000F03EF8002800D01CBD6846007903001D
:1012B00000F0F9FC0706051011202019200000BFDE
:1012C00000F08AFB012804D16A4651791079FFF7B2
:1012D000ADFF10E000BF00F073F86A465179107955
:1012E000FFF768FF07E001F0DBFEFFF71FF901F0F1
:1012F00003FF00E000BF00BF00BFD5E7FD21074AA4
:1013000011700321517004219170FF21D170114699
:10131000087100219171FE21D17170470400001005
:1013200038B504460020009069460D4801F03EF8AB
:10133000012801D0012038BD09480078032805D0D4
:1013400007480078042801D00120F4E7002C04D0DD
:10135000062203492046FEF7F5FE0020EBE70000D9
:101360000C00001070B505460C46034845718471A9
:10137000082101F043F870BD0400001004484068E3
:10138000002804D002484068401E01494860704768
:101390003C00001002480349486001200870704773
:1013A000204E00003C00001010B500F0D9FC10BD2C
:1013B0000148024948607047204E00003C00001080
:1013C00010B5FFF7F1FFFFF7F3FF00F0DFFD00F0CE
:1013D0007BFE01200149087010BD00003C00001098
:1013E0001FB5002400F0E8FD3F2000F0C7FC414895
:1013F00001F03CF87CE001F045F801F03DF80028F0
:1014000002D100F0EDFD1FBD00F070FC04463A492A
:10141000601A8C421AD00CDC3849401800284ED093
:101420003749401800281ED0FF218904401A5DD199
:101430000FE034482018002833D0FF210904401A57
:1014400025D031494018002850D116E000F0C8FDE1
:10145000D9E7012000F0A8FD012000F001FE0120E5
:101460006946C87243E0022000F09EFD022000F0B1
:10147000F7FD012102A8017139E0022000F094FD7E
:10148000022000F0EDFD022102A801712FE00220F0
:1014900000F08AFD022000F0E3FD032102A80171A3
:1014A00025E06846C07A012808D0022000F07CFDC3
:1014B000022000F0D5FD042102A8017117E000F020
:1014C0008FFD0399029800F099FA07220F496846A8
:1014D000FEF738FE0199009800F082F80B498879F0
:1014E000FFF7EAFB3F2000F0BDFC8CE700BF00BF28
:1014F00081E7000060EA000001FE08F70000F10E3D
:10150000000007F9FF01FB04000003FD12000010BA
:1015100070B5044607204003251814216143044A8E
:1015200089180846123007222946FFF7DBF970BDFB
:10153000C40000101CB5002000900190012207217A
:1015400049036846FFF7CEF91CBD000070B504469C
:1015500007204003251814216143044A89180846CE
:10156000123001222946FFF7ADF970BDC40000100A
:1015700070B50025002400BF10E01420684309491D
:10158000441800202070607060606074204608304D
:1015900001F0D7FC0021A174681CC5B2062DECDB5C
:1015A00070BD0000C4000010002100BF11E0142035
:1015B00048430A4A105C002800D10CE0142048433C
:1015C000064A80184078022801D101207047481C43
:1015D000C1B20629EBDB00BF0020F7E7C400001012
:1015E00073B56846C17800790818C5B20024002692
:1015F000002D01D0042D01DD01207CBDFFF7B8FFD7
:101600002B0000F050FB0764050A1422344A6400E2
:101610003F205249087208745BE007204F49087266
:10162000087438214D4801771430017451E00920C5
:101630004A4908720874122148480177143001742D
:10164000242114300172017443E0072043490872D9
:1016500008740821414801771430017410211430B6
:1016600001720174202114300172017431E00320F1
:101670003A4908720874042138480177143001741B
:1016800008211430017201741021143001720174A8
:1016900020211430017201741BE001202F490872CF
:1016A000087402212D48017714300174042114308C
:1016B0000172017408211430017201741021143078
:1016C00001720174202114300172017401E00120C3
:1016D00093E700BF00246846C078012817D1012194
:1016E000142060431D4A1154142060438018417037
:1016F000012000F011FE14216143184A8918486046
:1017000001211420604380184174601CC4B200267B
:101710001DE0022114206043104A115401211420BD
:10172000604380184170A140C8B200F0F5FD14215B
:1017300061430A4A891848600120A040C1B21420C0
:10174000604380184174601CC4B2701CC6B2684605
:101750000079B042DDDC00204FE70000C40000103B
:1017600070B5054600241C480078012800D10124EA
:101770002EE0142060431849085C002800D125E0C1
:10178000697C14206043144A8018407C814200D157
:101790001CE014206043104940184078022814D1FE
:1017A000142161430C4A881800F05CF8142060434F
:1017B00009494018807C002807D0142060430A465D
:1017C0008018817C0220FFF7CDFD00BF601CC4B2F1
:1017D000062CCEDB70BD0000C400001010B504461E
:1017E0002078002800D110BD607A012820D16078CF
:1017F00001280ED1204600F059F800F0EDF801283C
:1018000002D1617CFFF7AEFD03212046FEF780FE8A
:101810000EE0204600F026F800F0DEF8012803D1A3
:10182000617C0020FFF79EFD02212046FEF770FE3E
:1018300000BFD8E770B50024002500BF0CE01420DD
:101840006043074945182878002800D106E0204663
:10185000FFF77CFE601CC4B2062CF0DB00BF70BD3D
:10186000C400001010B504466078012800D110BDF6
:10187000606800F091FC207C00F096FB207C00F07A
:10188000F1FA0120607000BFF1E710B504466078FE
:10189000002800D110BD606800F07EFC207C00F0C4
:1018A0007BFB0020607000BFF4E7000010B5044629
:1018B0006078022800D110BD2078012803D10A48A1
:1018C0000A49086002E02046FFF74AFF606800F01E
:1018D000F1FC207C00F068FB207C00F0C1FB0220C2
:1018E000607000BFE7E70000C0D4010038000010BE
:1018F00070B504460D4629462046083001F026FB07
:1019000070BD000010B504460348847107220F2102
:101910000903FEF7E7FF10BD12000010012009497E
:101920000870032048700121064881700120054994
:10193000C870022103480171002002494871022049
:1019400088717047120000101CB5002407220F2177
:1019500009031F48FEF7B6FF1D48007801280DD087
:101960001B484078032809D0FFF7D8FFFFF7E2FDB6
:1019700007220F2109031648FEF7B4FF1448C17867
:1019800000790818C4B2042C09DDFFF7C7FFFFF780
:10199000D1FD07220F2109030D48FEF7A3FF0C48D4
:1019A00040790C490870072209496846FEF7CAFBCE
:1019B00001990098FFF714FE05498879FFF77CF933
:1019C0003F2000F04FFAFFF7E5FCFFF733FF1CBDA7
:1019D00012000010190000100648407906490978E5
:1019E000884203D004480078024948710148407990
:1019F00070470000120000101900001013B568466F
:101A0000C0780749C8706846017905480171072206
:101A10000F210903FEF766FFFFF78CFD1CBD0000D8
:101A20001200001010B504460348447107220F212C
:101A30000903FEF757FF10BD1200001010B501F0AA
:101A40004BFA01F035F901F005F801F06BF9FFF7F9
:101A500095FC01F02BFA00F04BF8FEF7B3FE10BD39
:101A600000201F49086001204860002048600120D4
:101A7000486000BF1A484068C007C00F0028F9D06E
:101A800023201749403988601648806B802188439D
:101A90001449886300BF12484038C068C007C00FAF
:101AA0000028F8D003200E49086301204863002075
:101AB00048630120486300BF0948406BC007C00F5E
:101AC0000028F9D0012006498863054840300068A5
:101AD00001210904084302494031086070470000B1
:101AE000408004400082044010B501F081F910BD2F
:101AF00004480068002804D002480068401E0149DC
:101B00000860704738000010FEB504460D460027F7
:101B1000002600F0EBF806463C48864206D03C48DA
:101B2000864203D03B48864200D0FEBD1F2000F015
:101B30003BFA1F2000F096F9202000F02DFA63E018
:101B400000F0A0FC00F098FC002806D106202070D0
:101B500000210820FFF706FCE7E700F055F90746EB
:101B600039462D48FEF706FE2B484079012833D12F
:101B7000264840423018002808D02849401800283C
:101B80001BD027494018002825D11DE02846FEF724
:101B90009FFC002D0AD00420207029780A20FFF72E
:101BA000E1FB00210720FFF7DDFB05E006202070A8
:101BB00000210820FFF7D6FB0DE006202070002151
:101BC0000820FFF7CFFB06E0052020700021092048
:101BD000FFF7C8FB00BF00BF6846FFF7A1FB002866
:101BE0000ED1684600790A2803D1684640792870EA
:101BF00005E068460179204600F014F800BF00BFF8
:101C00002078002800D090E79AE7000001FE17E84E
:101C100001FE08F701FE05FA8C01001000000FF12B
:101C2000000003FD072904D0082905D0092909D19E
:101C300005E00122027005E00322027002E00222A8
:101C4000027000BF00BF704710B509480078012836
:101C500000D010BD06484078022800D0F9E70548BA
:101C60000068002802D10248FFF7FCFD00BFF0E742
:101C7000C4000010380000102021020C01D01021F7
:101C80001046020A01D010460839020901D0104658
:101C9000091F820801D01046891E420801D0881E03
:101CA0007047081A704730B47446641E2578641C67
:101CB000AB4204D3635D5B00E31830BC18471D469C
:101CC000F8E702E008C8121F08C1002AFAD17047DD
:101CD0007047002001E001C1121F002AFBD17047AC
:101CE000002001490860704754000010024908684C
:101CF0000021014A116070475400001010B51020F7
:101D000001F02AFA10200E49C861062001F024FAD9
:101D1000002202210520000700F0CDFD0322022150
:101D20000520000700F0E0FD02210520000700F07B
:101D30007FFD1F2001218140024A116000BF10BDBC
:101D40000040044000E100E010B50021012000F057
:101D5000FDFB10BD10B53221012000F0F7FB10BDD6
:101D600010B500200349087003490870FFF7ECFF25
:101D700010BD0000440000104C00001070B5054676
:101D80000BE000F07FFB00F03FF8044620462840BF
:101D9000002800D001E0012070BDF2E710B510204E
:101DA00001F0DAF9012080021449486013494039F2
:101DB0000862002011490860104940398862886330
:101DC000062001F0C9F9012205210D4800F073FD3C
:101DD000012207210A4800F06EFD00220421084874
:101DE00000F069FD00220121054800F064FD002299
:101DF0000921044800F05FFD10BD00004040044090
:101E000000000250000001500148007870470000B7
:101E10006C00001073B50646002400BF1CE000F003
:101E200031FB0120A040C5B230462840002811D027
:101E30006846007961006118094A50546846407943
:101E400061006118891848706846807961006118DE
:101E500089188870601CC4B2062CE0DB7CBD0000D1
:101E60009C010010F8B50646002416480078B043DF
:101E70001449087000BF22E000F004FB0120A040DC
:101E8000C5B230462840002817D0600020180E49FF
:101E9000095C68460170600020180B4940184178C1
:101EA00068464170600020180749401881786846EC
:101EB00081702846009900F009F8601CC4B2062C15
:101EC000DADBF8BD800000109C01001013B582B071
:101ED00004462D480078002800D11FBDE007C00F40
:101EE000002809D06846807B00906846437B027BCF
:101EF000C021012000F0D8FB02202040002809D09A
:101F00006846807B00906846437B027BA0210120CD
:101F100000F0CAFB04202040002809D06846807BDE
:101F200000906846437B027B8021012000F0BCFBCF
:101F300008202040002809D06846807B0090684631
:101F4000437B027B8021022000F0AEFB102020406A
:101F5000002809D06846807B00906846437B027B5E
:101F6000A021022000F0A0FB20202040002809D062
:101F70006846807B00906846437B027BC02102203C
:101F800000F092FB00BFA8E781000010012001498A
:101F90000870704781000010024909780143014A26
:101FA0001170704776000010024909788143014A98
:101FB000117070477600001010B5012005490870B7
:101FC0003F20054908700020044908603F20FFF7C2
:101FD00049FF10BD7400001076000010780000105A
:101FE00010B50020044908700449087004490860CD
:101FF0003F20FFF737FF10BD74000010760000107F
:102000007800001073B50646002400BF1CE000F005
:1020100039FA0120A040C5B230462840002811D02E
:102020006846007961006118094A50546846407951
:1020300061006118891848706846807961006118EC
:1020400089188870601CC4B2062CE0DB7CBD0000DF
:10205000AE01001010B500F0EBFAFFF797FF10BDCE
:10206000F8B5064600241648007830431449087035
:1020700000BF22E000F006FA0120A040C5B23046C1
:102080002840002817D0600020180E49095C6846D7
:102090000170600020180B49401841786846417073
:1020A00060002018074940188178684681702846EA
:1020B0000099FFF70BFF601CC4B2062CDADBF8BDF9
:1020C00080000010AE01001038B5002400BF3CE0D5
:1020D00000F0D8F90120A040C5B21D480078284082
:1020E000002818D0600020181A49095C6846017061
:1020F0006000201817494018417868464170600018
:102100002018144940188178684681702846009943
:10211000FFF7DCFE17E0600020180F49095C6846F5
:102120000170600020180C494018417868464170E1
:102130006000201808494018817868468170284658
:102140000099FFF7C3FE601CC4B2062CC0DB38BD8B
:1021500080000010AE0100109C01001010B501209D
:10216000044908700020044908603F20FFF77AFE08
:1021700010BD0000750000107C00001010B500209C
:1021800003490870034908603F20FFF76BFE10BD4C
:10219000750000107C00001010B50446002C00D122
:1021A00010BD022060702078012806D002280BD0D4
:1021B00004280FD0082819D112E00022032105209D
:1021C000000700F05DFB12E000220821094800F042
:1021D00057FB0CE000220921074800F051FB06E004
:1021E00000220221044800F04BFB00E000BF00BFCA
:1021F00000BFD5E70000015000000250017002222C
:102200004270704710B5102000F0A6FF102025493D
:1022100008602449C0398861224980394861C86111
:10222000062000F099FF012203210520000700F09D
:1022300042FB012208211C4800F03DFB012209213C
:102240001A4800F038FB01220221184800F033FB45
:10225000002203210520000700F012FB00220821C4
:10226000114800F00DFB00220921104800F008FB86
:10227000002202210D4800F003FB01210C48FFF76A
:10228000BDFF02210A480830FFF7B8FF04210848C3
:102290001030FFF7B3FF082105481830FFF7AEFFF5
:1022A00010BD0000C040044000000150000002507A
:1022B000C001001010B50446002C00D110BD012053
:1022C00060702078012806D002280BD004280FD097
:1022D000082819D112E0012203210520000700F08F
:1022E000CFFA12E001220821094800F0C9FA0CE0F7
:1022F00001220921074800F0C3FA06E00122022169
:10230000044800F0BDFA00E000BF00BF00BFD5E701
:1023100000000150000002500146012906D00229A8
:1023200006D0042907D008290BD107E006487047DA
:1023300005480830FBE704481030F8E70248183039
:10234000F5E70020F3E70000C001001010B51020F1
:1023500000F002FF1248C06A102108431049C86209
:10236000032000F0D3FD12200D494039C8630C4909
:10237000886001220A210B4800F09DFA00220A2100
:10238000084800F07DFA4B20C00100F039FF0648F4
:10239000C06B0121890288430349C86310BD000056
:1023A0004040044000000150C03F015070B5054658
:1023B0000C46002D08D0002C06D00E4800880121C4
:1023C000C9030840884201D0022070BD0948008836
:1023D0004004400C208000200649088022880649DD
:1023E0002846FDF7AFFE80210348FDF7C4FE01201B
:1023F000EBE700008E00001060020010F8B5044604
:102400000D4619277F010F48C06B0121890208433F
:102410000C49C863264603E03078761C00F044FF80
:102420002846691E8DB20028F6D100BF38467F1EAF
:102430000028FBD10348C06B012189028843014970
:10244000C863F8BDC03F01500148006870470000F4
:102450009000001010B57D20C00000F0AFFE0248D3
:1024600000F0A6F810BD0000409C00000149086083
:102470007047000098000010014800687047000095
:102480009800001010B500F01BFF10BD10B500F053
:1024900021FF10BD10B5002404210C4800F0D4F930
:1024A000002801D1012004430121084800F0CCF9A3
:1024B000002801D1022004430921054800F0C4F995
:1024C000002801D104200443204610BD0000025022
:1024D0000000015010B500220521044800F0D0F999
:1024E00001220721014800F0CBF910BD0000025085
:1024F00010B5002404210C4800F0A6F9002801D1F1
:10250000082004430121084800F09EF9002801D169
:10251000102004430921054800F096F9002801D154
:1025200020200443204610BD00000250000001504E
:1025300010B501220521044800F0A2F9002207216C
:10254000014800F09DF910BD0000025070B505462D
:102550000C46012D17D0022D0BD0032D1DD1104993
:10256000496A614308466421FDF7C2FD0C490862CF
:1025700014E00B49496A614308466421FDF7B8FD40
:102580000749C8610AE00649496A6143084664216F
:10259000FDF7AEFD0249886100E000BF00BF70BDDD
:1025A00000C0004001200149486070470000014020
:1025B00010B50446082000F0CFFD63200F49C86025
:1025C0000020086188600846C068401C60430146DE
:1025D0000B480068FDF78CFD0849886103204861BD
:1025E0000020064940310863FFF7DCFF1120FEF7A9
:1025F00019FD00211120FEF765FD10BD000001400E
:1026000000000010064905E0054900BF0A46491EC2
:10261000002AFBD10246401E002AF5D17047000077
:102620008813000001E0411E88B20028FBD17047EA
:1026300010B5102000F090FD1020184948611120BD
:10264000086016494039C863102014498039086170
:1026500088600860062000F07FFD012204211048F8
:1026600000F029F9012202210D4800F024F901228D
:1026700011460B4800F01FF9012211460520000702
:1026800000F019F901220021064800F014F9012296
:102690000621044800F00FF910BD000080400440FE
:1026A0000000015000000250F8B504460D461646E1
:1026B0001F46012C02D0022C0ED106E03A463146CC
:1026C0002846069B00F00CF807E03A4631462846BB
:1026D000069B00F053F800E000BF00BFF8BD00000B
:1026E000F8B507460C4615461E46384600F01AF85F
:1026F000204600F017F8284600F014F8304600F0A5
:1027000011F801220421064800F0BAF81420FFF75E
:1027100089FF00220421024800F0B2F8F8BD000051
:102720000000015070B50546002400BF20E0284697
:10273000A04080210840C011002805D001220221BC
:102740000D4800F09DF804E0002202210A4800F044
:1027500097F801221146084800F092F81420FFF77C
:1027600061FF00220121044800F08AF8601CC4B215
:10277000082CDCDB70BD000000000150F8B50746F6
:102780000C4615461E46384600F01AF8204600F062
:1027900017F8284600F014F8304600F011F801222E
:1027A00011460520000700F06BF81420FFF73AFFF0
:1027B000002201210520000700F062F8F8BD0000AA
:1027C00070B50546002400BF20E02846A0408021C7
:1027D0000840C011002805D0012200210D4800F05A
:1027E0004FF804E0002211460A4800F049F801229F
:1027F0000621084800F044F81420FFF713FF0022D8
:102800000621044800F03CF8601CC4B2082CDCDB54
:1028100070BD0000000002500122D2038218D2696C
:1028200001238B401A430123DB03C318DA6170478D
:102830000122D2038218126901238B401A4301231B
:10284000DB03C3181A61704702467F20C0011018CD
:10285000C06F01238B401840002801D00120704731
:102860000020FCE702460120C00310188069012304
:102870008B401840002801D0012070470020FCE761
:1028800010B5002A0BD07F23DB01C318DB6F0124B6
:102890008C4023437F24E4010419E3670AE07F238B
:1028A000DB01C318DB6F01248C40A3437F24E401C8
:1028B0000419E36710BD10B5012A09D1D303C31869
:1028C0001B6801248C402343D403041923600AE0CD
:1028D0000123DB03C3181B6801248C40A34301249C
:1028E000E4030419236010BD10B51300FFF7DBF9F2
:1028F00006A30426485F81A30123DB03C3185B689A
:1029000001248C40A3430124E403041963600123E0
:10291000DB03C3189B6801248C40A3430124E40318
:102920000419A3600123DB03C318DB6801248C4076
:1029300023430124E4030419E3607DE00123DB0366
:10294000C3185B6801248C40A3430124E4030419E9
:1029500063600123DB03C3189B6801248C40A343FD
:102960000124E4030419A3600123DB03C318DB681B
:1029700001248C40A3430124E4030419E3605BE0D9
:102980000123DB03C3185B6801248C40A3430124AB
:10299000E403041963600123DB03C3189B6801246B
:1029A0008C4023430124E4030419A36044E0012381
:1029B000DB03C3185B6801248C4023430124E40338
:1029C000041963600123DB03C3189B6801248C4056
:1029D000A3430124E4030419A3600123DB03C31808
:1029E000DB6801248C4023430124E4030419E360E1
:1029F00022E00123DB03C3185B6801248C402343DE
:102A00000124E403041963600123DB03C3189C68F9
:102A100001238B409C430123DB03C3189C600123EB
:102A2000DB03C318DC6801238B409C430123DB03D9
:102A3000C318DC6000E000BF00BF10BD04480068A0
:102A4000002804D002480068401E01490860704711
:102A50009400001010B514480078002800D110BD73
:102A6000124800684B21C900884203D900200F4951
:102A7000086004E00D480068401C0C4908600B48E1
:102A80000068052804D10A480078FFF7E9FA09E050
:102A900006480068FF213231884203D1044800789B
:102AA000FFF7E0F900BFDAE77400001078000010CB
:102AB0007600001010B5022105200007FFF7D2FEB6
:102AC000002800D110BD022105200007FFF7BCFE41
:102AD000002804D056480068564908609DE05448D4
:102AE00000685549086055480078002802D0012840
:102AF0007DD12CE04F480068FF214B31884207D937
:102B00004D480068A02803D901204C49087019E0FD
:102B100048480068142812D94648006896280ED202
:102B200047480078142806DA45480078002802D182
:102B300002204349087000204049087002E000204C
:102B40003E4908703C4800683A49086064E03948EA
:102B5000006809284CD937480068322848D23648DE
:102B6000006809280ED93448006832280AD235484E
:102B7000006840083349086033480078401E3249F5
:102B8000087022E02C480068322815D92A480068CD
:102B9000462811D22B48006840082A490860084698
:102BA00000680121C90708432649086026480078C3
:102BB000401E2549087008E00020204908702020A8
:102BC0002149087000201F4908601F48007800282C
:102BD00017D11C4800681D4908600020174908707B
:102BE00020201949087000201649086009E009E012
:102BF0000020124908702020134908700020114954
:102C0000086009E000200D49087020200E49087076
:102C100000200C49086000BF00BF00200449086084
:102C2000022105200007FFF7F7FD00BF4AE700007B
:102C3000500000105C0000105800001069000010E7
:102C40004C000010640000106000001054000010E0
:102C500002480068401C014908607047500000109D
:102C600010B511480078012800D010BD0F48006849
:102C7000401C0E49086008460068012802D1FFF791
:102C800069F80FE009480068642802D1FFF75CF892
:102C900008E0064800687D21C900884202D1002072
:102CA0000249086000BFE0E744000010480000103F
:102CB00010B51A480068502803D900201749086049
:102CC00004E016480068401C144908601348006876
:102CD00000280FD112480078382188431049087025
:102CE000FFF706FC0E49097808430D490870FFF705
:102CF000F1FB12E00948006828280ED10848007846
:102D0000C008C00006490870FFF7C4FB04490978F1
:102D1000084303490870FFF70BFC10BD700000105A
:102D20006C00001010B52F480078002800D110BDAD
:102D30002D4800684B214901884203D900202A49C7
:102D4000086004E028480068401C274908602648BD
:102D50000068264A811A90422AD00ADC052812D03F
:102D6000FF389638002815D0FF389138002834D124
:102D700017E00846FF389138002820D0FF389138F6
:102D800000282AD122E00120FFF76AF90820FFF786
:102D900069F823E00220FFF763F90120FFF762F8EA
:102DA0001CE00420FFF75CF90220FFF75BF815E058
:102DB0002020FFF755F90420FFF754F80EE010200B
:102DC000FFF74EF92020FFF74DF807E00820FFF746
:102DD00047F91020FFF746F800E000BF00BF00BF32
:102DE000A5E70000750000107C000010B50400008D
:102DF00010B500240A2025490860002024490870E5
:102E000024480068C4B224480078002805D0FD2C6E
:102E100003D100202049087010BD1F480078002809
:102E200019D1FE2C17D101201B4908701B480078CE
:102E30000121C90340181A49088018480278194925
:102E40001948FDF77FF980211648FDF794F9002015
:102E500012490870E0E710480078002814D10F49A3
:102E60000878411C0D4A11700E490C541046007828
:102E70000F2809DB01200849087080210948FDF767
:102E80007AF900200549087000BFC5E788000010E6
:102E900084000010008000408C0000108D000010A5
:102EA0008E000010E0010010600200100848007859
:102EB00000280CD107480068002803D101200449EC
:102EC000087004E003480068401E0249086070472B
:102ED000840000108800001000B505480068401C00
:102EE00003490860FFF7AAFD00F004F800BD0000E8
:102EF0009000001004480068002804D002480068D0
:102F0000401E014908607047980000100321014AE3
:102F100051627047C0400440FDF7C0FCFEF714FD4D
:102F20000120FEF7EBF90BE0FFF7ACFAFDF76EFFBF
:102F3000FDF720FEFEF7B2F9FEF786FEFDF78CFCEA
:102F4000F2E70021017041704160704770B504469E
:102F50000D4660780300FEF7A6FE06040E1B2F390F
:102F6000434D20782840002802D00120607001E005
:102F7000002060703FE020782840002805D0022023
:102F80006070FFF761FA606001E00420607032E079
:102F90002078284000280CD0FFF756FA6168401AC4
:102FA0001649884202D90320607004E00220607054
:102FB00001E0042060701EE020782840002802D044
:102FC0000320607001E00520607014E02078284044
:102FD000002802D00120607001E0002060700AE04B
:102FE00020782840002802D00120607001E00020F5
:102FF000607000E000BF00BF70BD0000B80B0000B3
:1030000070B504460D461646332008490860084648
:1030100044608560C6600648086106490348064A60
:10302000126890470348006870BD0000E00200107D
:1030300080BB000000030010C000001070B5044603
:103040000D463420074908600846446085600648FC
:10305000C86006490348064A12689047034800685A
:1030600070BD0000E002001080BB000000030010F3
:10307000C000001070B504460D46322005490860B6
:103080000846446085600449044A12689047024833
:10309000006870BDE002001000030010C0000010C6
:1030A00070B500240025002600BF0FE01420604307
:1030B0000F4945182878002802D06868FFF76CF897
:1030C0000020687000216972601CC4B2062CEDDB20
:1030D000002408E0200107494618012070700021F3
:1030E0007171601CC4B2062CF4DBFEF7F9FD70BDF3
:1030F000C40000103C01001070B50024002500261B
:1031000000BF0FE0142060431149451828780028BB
:1031100002D06868FFF740F80120687000216972EA
:10312000601CC4B2062CEDDB002408E02001094934
:1031300046180120707000217171601CC4B2062C09
:10314000F4DBFEF7CDFD3F20FEF718FE70BD00005A
:10315000C40000103C0100100349096801228240AC
:103160001143014A11607047808004400249896B15
:103170008143014A9163704700820440014988619C
:103180007047000080800440044908610121034A1F
:10319000516100215161012151617047C08004409B
:1031A0000149886170470000C0800440FF208230E0
:1031B00001494862704700000080044070B5054630
:1031C00029460C480068FCF793FF0446601E0A4934
:1031D000884200D90CE0601E084948610321081F9D
:1031E000FDF734FF0020054988610720086100BF12
:1031F00070BD000000000010FFFFFF0000E000E0D5
:10320000F0B587B007460C20FFF7A6FF0120FFF7B7
:10321000B5FF2120204988628320C8603801FDF76E
:103220001DF8054600221D4BFCF7B0FF03910290EC
:103230001B4881691B480068FCF75AFF0546FDF7EB
:103240000DF801910090039B029AFDF759F8059142
:103250000490FDF711F884B22046E117090E091811
:1032600009120D4A5160E117090E091809120902E5
:10327000611A116003201146C860872088601520FC
:10328000FDF7DAFE01211520FDF758FF0120024964
:10329000486007B0F0BD0000008000400000F83F2B
:1032A00080800440000000100449086000BF03490A
:1032B0004969402211400029F9D070470080004040
:1032C00072B6AA20024988605520886062B67047AD
:1032D0000040004010B5FFF769FF4020FFF746FFB0
:1032E0000220FFF751FF0120FFF75AFF0F20FFF7E1
:1032F00033FF03200349086003484860FFF7E0FFFD
:1033000010BD000000400040FFFFFF002C33000014
:1033100000000010C4000000C21C0000F0330000D8
:10332000C40000105C060000D21C0000006CDC022F
:10333000000000000000000000000000000000008D
:103340000000000000003C0000003C0000003C00C9
:103350000064646464963200000028282828281439
:10336000000000000000000000000000000000005D
:10337000000000000000000000000000000000004D
:10338000000000000000000000000000200000001D
:10339000000000000000000000000000000000002D
:1033A000000000000000000000000000000100001C
:1033B000010000000000000001000000000000000B
:1033C00000000000000000000000000000000000FD
:1033D00000000000000000000000000000000000ED
:1033E000000000000000000000000000F11FFF1FAF
:04000005000000C136
:00000001FF
