:020000040000FA
:1000000020070010D5000000DD000000DF00000028
:1000100000000000000000000000000000000000E0
:10002000000000000000000000000000E1000000EF
:100030000000000000000000E3000000251A00009E
:10004000E7000000E7000000E7000000E700000014
:10005000E7000000E7000000E7000000E700000004
:10006000E7000000E7000000E7000000E7000000F4
:10007000E7000000E7000000E70000004909000079
:100080001507000019070000E7000000E700000066
:10009000E7000000D11A0000E7000000E7000000C0
:1000A000E7000000E7000000E7000000E7000000B4
:1000B000E7000000E7000000E70000004109000041
:1000C0000348854600F008F900480047A12F0000CA
:1000D000200700100448804704480047FEE7FEE779
:1000E000FEE7FEE7FEE7FEE7491A0000C100000058
:1000F00030B50B46014600202022012409E00D46C0
:10010000D5409D4205D31D469540491B2546954047
:1001100040191546521E002DF1DC30BD70B500248B
:100120002546002801DA01244042002901DA012590
:100130004942FFF7DDFFAC4200D04042002C00D026
:10014000494270BD03460B439B0703D009E008C931
:10015000121F08C0042AFAD203E00B780370401C77
:10016000491C521EF9D27047D2B201E00270401C05
:10017000491EFBD270470022F6E710B513460A4627
:1001800004461946FFF7F0FF204610BDF0B51FB436
:1001900088B00B990998002448400999C00F49007C
:1001A00049080991C0070B990090490049080B9133
:1001B00009990898A64608431CD00B990A98084349
:1001C00018D0099801244000420D4800410D0998BB
:1001D00024050003000B204309900B980003000B3B
:1001E00020430B9050181C494018002201901446DF
:1001F000104605E0002001460DB0F0BD032801DAED
:10020000034600E003239C46C11A0AAE0AE05F00E1
:1002100008ADED5B4F00F75B7D430027AA187C41DA
:10022000491C5B1E6145F2DD410004AB5A522104BA
:10023000120C0A43240C401C0828DFDB01980290B2
:100240000099704601910090059B049A07990698C1
:1002500000F0DBF8D0E700000DFCFFFF0EB505490C
:100260000291002100910A460B46019100F0CDF861
:1002700003B000BD330400004A0009030123090B49
:100280001B051943094B10B5520D9A4201DA0020A3
:1002900010BD064B34339A4203DC9A1A00F00AF878
:1002A00010BD03495118884010BD0000FF03000035
:1002B000CDFBFFFF10B5202A04DB0846203AD040D2
:1002C000002110BD0B46D340D0402024A21A9140FB
:1002D0000843194610BD0000064C0125064E05E0F6
:1002E000E36807CC2B430C3C98471034B442F7D357
:1002F000FFF7EAFE98330000B8330000FFFFFFFF6E
:10030000F0B50C465C4085B0E40FE40703944C0064
:100310000026640859009446490802460296224382
:1003200021D062460A431ED06200570D4A000E03D8
:100330002303550D012402462C492405781B1B0B71
:10034000360B401823432643614600901C46501A42
:10035000B44103D30098401C009002E0921800982A
:100360005B41002803DA0020014605B0F0BD002003
:10037000012109050746864611E064461D46141B07
:10038000B54106D36546521BB341744607430C433F
:10039000A646CD0740084908284392185B41054608
:1003A0000D43EAD11046184313D060461946504019
:1003B0007140084306D06046101AB34106D20122AC
:1003C000002306E000220123DB0702E00122D243E2
:1003D0005310009874460105381C6141029C039D2E
:1003E0000019694100F004F8BFE70000FD030000B8
:1003F00010B5002B08DA0024401C614192185B41C3
:100400001A4301D14008400010BDF0B51FB482B0BE
:1004100005460C0003D0084601F022FC02E001F082
:100420001FFC2030024600902146284600F03FF88D
:10043000049B059A04460F4618431143084314D001
:10044000184610431BD0009840210A1A18460599F7
:10045000FFF730FF05460E46009A0599049800F014
:1004600026F8084305D0012004E02046394607B0AD
:10047000F0BD0020C11705430E432C4337430099BC
:100480000E986305401A7905E40A00220C43FD0A20
:100490000A3002D500200146E9E70105101969413B
:1004A0000C9C0D9D00196941FFF7A2FFDFE710B515
:1004B000202A04DB0146203A9140002010BD9140E3
:1004C00020239C1A0346E3401943904010BD0000CE
:1004D00010B501460022002000230B7000BF10E081
:1004E00014235343094C18190378002B00D106E05C
:1004F0004378022B02D1437C0B7010BD00BF531C0C
:10050000DAB2062AECDB00BFF7E70000C0000010FB
:1005100070B504460D46A07C002800D170BDA17CBA
:10052000284600F013FF00BFF8E700007FB5002168
:100530000391029100260024002501F05BFD3F207D
:1005400001F034FC534801F0AFFFA1E001F0B8FF27
:1005500001F0B0FF002802D101F060FD7FBD01F085
:100560006BFC064600242CE001F0AAFF1420604337
:10057000494945182878002800D124E0314628460A
:1005800001F0D0F9687A012819D1687800280CD1D7
:1005900001F024F8002800D015E0284601F0A0F969
:1005A000A97C032000F0D2FE09E06878022806D179
:1005B000284601F084F9A97C022000F0C7FE601CE7
:1005C000C4B2062CD0DB00BF684600F09DFE0028B8
:1005D0003CD168460079022805D0032802D00A28B9
:1005E0002DD128E000BF6A465179107900F0D4FD82
:1005F0006A46107902281DD1002418E014206043B7
:100600002549085C002800D113E068464179142090
:100610006043214A8018407C814206D11421614305
:100620008918087C01F0D6FC03E0601CC4B2062CDB
:10063000E4DB00BF09E068464179029105E06846C5
:10064000017903A801F0E2FA00BF00BF02A903A8E4
:1006500001F04EFA6846007B030001F018FB071713
:10066000060E14050D13170000BF6846007A00F04F
:1006700033F801F0D3FC71E700BF00F00FF801F090
:10068000CDFC6BE700BF01F0C9FC67E700BF00BF0E
:100690005CE7000060EA0000C000001070B50025B3
:1006A000002400BF11E0142068430A494418207850
:1006B000002800D10BE06078022804D10020A0744B
:1006C000284600F03FFF681CC5B2062DEBDB00BFDB
:1006D00070BD0000C000001070B506460024002563
:1006E00000BF10E01420604309494518287800280D
:1006F00000D10AE06878022803D1AE74204600F0E9
:1007000021FF601CC4B2062CECDB00BF70BD0000F2
:10071000C00000107047000010B507480068C0070F
:10072000C00F002806D002F0E5FA02F0EBFA012033
:100730000149086010BD000000000140002000BF1A
:1007400012E0032102010A4B995401210201D2183F
:10075000517081400201D2181171012181400201C2
:10076000D2181173411CC8B20628EADB704700009A
:100770003801001070B504460D462946201D02F0D0
:100780002BFC70BD10B507480078012800D110BDC2
:100790000120044908700021042000F0D7FD00BFAB
:1007A000F5E700009C00001010B50021044802F09D
:1007B0009DF8002801D1022010BD0120FCE70000B7
:1007C0000000015005484068002800D170470348E8
:1007D0004068401E0149486000BFF7E79C000010D8
:1007E00010B5102002F0FEFC89200749886306201E
:1007F00002F0F8FC00221146044802F0AEF8002096
:1008000003490870486010BD40400440000001509A
:100810009C00001005484068002801D00120704766
:100820000348024948600020F9E700009C000010DE
:100830008813000010B507480078022800D110BDC9
:100840000220044908700021052000F07FFD00BF50
:10085000F5E700009C00001010B50024FFF7DAFF58
:10086000002800D010BDFFF79FFF0446012C09D0DF
:10087000022C0FD101F0B0F8002800D10BE0FFF7F7
:10088000D9FF08E001F0A8F8002800D103E0FFF745
:1008900079FF00E000BF00BF00BFE3E710B501F043
:1008A000F7FD01F093FA01F0F3FB01F06DFD01F0AB
:1008B00019FA01F05BFA01F0C3FCFFF791FF01F0B8
:1008C00003FE10BD30B50B46002800D130BD03E05B
:1008D0001C7804705B1C401C1446521E002CF7D17F
:1008E00000BFF3E7F0B5C1B005460C461746FF213F
:1008F000013101A8FFF73FFC3A46294601A8FFF75E
:1009000021FC2003060E0C480C49086072B63146E3
:10091000304602F0F5FB3146304602F0D5FB314659
:10092000304602F0EDFBFF22013201A9204602F021
:10093000ADFB62B641B0F0BDF11FFF1FBC0000105F
:1009400010B502F009F910BD00B50120800740681C
:10095000F82108404107490F002975D1C010030054
:1009600001F095F90CFD071C24C025C1C2B1C3CA12
:10097000E9FD7C480078012807D17B480078FE21FA
:10098000084001218907886004E077480078012148
:10099000890788602820C1068861E1E072480078F4
:1009A00001218907886028208861D9E000BF6D484F
:1009B000007800281FD16D480068002813D06C48CB
:1009C0000068007801218907886069480068401C38
:1009D000674908602820C106886164480068401E95
:1009E0006249086007E010208106086028208861BD
:1009F0000120604908705B480078012832D15E48C8
:100A0000007802280ED15D4800680004000E012124
:100A1000890788602820886157480078401E564919
:100A200008709DE05448007801280ED153480068B2
:100A3000C0B2012189078860282088614E4800786B
:100A4000401E4D4908708BE089E04B480078002833
:100A500008D10820C1068861202008600020414993
:100A600008707DE03F48007802282BD1424800788A
:100A7000002827DD4048007802280ED13F48006852
:100A80000004000E012189078860282088613A4807
:100A90000078401E3849087062E037480078012825
:100AA00010D136480068C0B201218907886028202B
:100AB000886131480078401E2F490870002029497C
:100AC00008704DE04CE029480068012803D8042054
:100AD0000107886102E00420010708602820C106A0
:100AE00088613DE000BF00BF00BF2820C1068861CB
:100AF000FF202049087033E00120800780681C49EE
:100B0000096808701A480068401C194908601748AD
:100B10000068401E1549086008460068012804D195
:100B20002C2001218907886104E004200107086066
:100B30002820886114E00120800780680C4909683A
:100B400008700B480068401C0949086010208106A5
:100B500008602820886101200649087000E000BF75
:100B600000BF00BDB9000010A4000010B4000010C8
:100B7000B0000010B8000010AC000010A800001079
:100B80007CB500250026002401F0A4F8054649485C
:100B9000854200D07CBD00F02DFCFFF7CFFD01F0B9
:100BA000FBFA02F0C3FA444801F07EFC80E001F059
:100BB00087FC01F07FFC002804D101F0FDFA02F06F
:100BC000E1FAE7E701F086F805463C48854204D1A2
:100BD00001F0F2FA02F0D6FADCE701F02DF9064650
:100BE000002407E02101364A88183146FFF7C2FD8C
:100BF000601CC4B2062CF5DB31484079022808D1CC
:100C000001F0DAFA02F092FA00F004FC02F0BAFA0B
:100C1000C0E72B48407D02280CD101F0CDFA00211D
:100C2000062000F093FB02F081FAFFF77FFC02F050
:100C3000A9FAAFE7224820304079022808D101F014
:100C4000BBFA02F073FA00F063F902F09BFAA1E735
:100C50001B4830304079022808D101F0ADFA02F08B
:100C600065FA00F061F802F08DFA93E7144840301D
:100C70004079022808D101F09FFA02F057FA00F0FB
:100C8000EFF802F07FFA85E7684600F03DFB0028A8
:100C90000ED168460079062808D101F08DFA02F0DD
:100CA00045FAFFF743FC02F06DFA73E700BF00BF9F
:100CB0007DE7000001FE17E860EA000001FE08F78A
:100CC00038010010F8B5044600250026032C00DB8F
:100CD000F8BD00251DE01420684310494618600047
:100CE00020180F4A811803226846FFF72BFA307C40
:100CF000009901F0A5F9600020180A4A8118032222
:100D00006846FFF71FFA307C009901F09BF8681CD9
:100D1000C5B2062DDFDB00BFDAE70000C00000101F
:100D2000220000102B000010FEB5002001900026CC
:100D30000024002500273F2001F038F8304801F05A
:100D4000B3FB5BE001F0BCFB01F0B4FB002807D172
:100D50002C498879FFF7B6FF3F2001F09BF8FEBDD4
:100D600001F06AF80190002426E020012649461887
:100D700030460199FFF7FEFC7079012800D019E098
:100D8000691CC8B20321FFF7C9F9CDB26800281861
:100D90001E4A811803226846FFF7D4F93F200099C4
:100DA00001F050F83F20009901F04AF93F2001F08E
:100DB00075F900BF601CC4B2062CD6DB00F08AFFB8
:100DC00007461348381800280BD01249401800284D
:100DD00012D10C498879FFF775FF3F2001F05AF8CE
:100DE000BDE7284600F0A8FD06498879FFF76AFFAD
:100DF0003F2001F04FF8B2E700BF00BFA2E70000BC
:100E000060EA0000120000103801001022000010FB
:100E1000FF01E81700000FF170B50026002400253F
:100E200001F00AF80646002E01D000F0E3FA002493
:100E300010E014206043094945182878002800D1A3
:100E40000AE03146284600F06DFD284600F0E0FC3F
:100E5000601CC4B2062CECDB00BF70BDC0000010EB
:100E600038B500244AE001F02BFB2548017868469C
:100E7000017023484178684641702148817868466E
:100E800081703F20009901F039F8FF20913001F086
:100E90000BFC1C480178684601701A484178684686
:100EA000417018488178684681703F20009901F0B0
:100EB00025F8FF20913001F0F7FB134801786846D0
:100EC000017011484178684641700F488178684642
:100ED00081703F20009901F011F8FF20913001F05E
:100EE000E3FB00F0F7FE044608482018002803D171
:100EF0003F2000F0CFFF38BD00BF00BFB3E70000C8
:100F0000190000101C0000101F000010FF01F7085E
:100F100070B50024002501F06DF83F2000F046FF79
:100F2000344801F0C1FA3E2001F05CF83E2000F0A8
:100F3000B1FF00F051FD012807D101F053F8012065
:100F400001F0ACF802202C49487052E001F0B8FAE8
:100F500001F0B0FA002802D101F060F870BD00F095
:100F60006BFF044621462448FFF704FC22484079E1
:100F7000012819D120484078012809D102201E49B2
:100F80004870012001F02EF8012001F087F80BE0F5
:100F900019484078022807D101201749487001F00C
:100FA00019F8012000F076FF00F094FE0546134882
:100FB0002818002808D01249401800280ED01149DE
:100FC0004018002813D10CE00B484078022802D1C9
:100FD000012000F01BFD01F021F8BFE701F01EF831
:100FE000BCE7002000F012FD01F018F8B6E700BFE2
:100FF00000BFABE760EA000038010010FF01E8170E
:1010000000000FF1000003FDC206D20E0121914045
:10101000014A11607047000000E100E0C206D20EF4
:1010200001219140014A11607047000000E100E099
:1010300010B5002819DA1A4A03071B0F083B9B0852
:101040009B00D2588307DC0EFF23A3409A438B07F3
:101050001B0E8407E40EA3401A43114B0407240F10
:10106000083CA408A4001A5118E00E4A03231B02EE
:10107000D21883089B00D2588307DC0EFF23A340BD
:101080009A438B071B0E8407E40EA3401A43054BBB
:10109000032424021B198408A4001A5110BD000067
:1010A0001CED00E000E100E010B5002819DA1A4A52
:1010B00003071B0F083B9B089B00D2588307DC0EDD
:1010C000FF23A3409A438B071B0E8407E40EA34023
:1010D0001A43114B0407240F083CA408A4001A511A
:1010E00018E00E4A03231B02D21883089B00D25833
:1010F0008307DC0EFF23A3409A438B071B0E840754
:10110000E40EA3401A43054B032424021B19840850
:10111000A4001A5110BD00001CED00E000E100E049
:1011200010B5002819DA1A4A03071B0F083B9B0861
:101130009B00D2588307DC0EFF23A3409A438B0702
:101140001B0E8407E40EA3401A43114B0407240F1F
:10115000083CA408A4001A5118E00E4A03231B02FD
:10116000D21883089B00D2588307DC0EFF23A340CC
:101170009A438B071B0E8407E40EA3401A43054BCA
:10118000032424021B198408A4001A5110BD000076
:101190001CED00E000E100E0F8B507460D46002632
:1011A0000024002D00D1F8BD002629E01420704352
:1011B000164944182078002800D123E0A07CA842DA
:1011C00000D01BE0022F0CD0032F16D1204600F0D8
:1011D00087FB00F001FC012802D1617C00F0B6F829
:1011E000E1E7204600F058FB00F0F6FB012803D1B0
:1011F000617C002000F0AAF8D5E700BF701CC6B2E1
:10120000062ED3DB00BF00BFCDE70000C0000010FA
:10121000F8B506460F460025002400BF29E014203B
:101220006843164944182078002800D123E0607CE8
:10123000B84200D01BE0002E0CD0012E15D1204664
:1012400000F04EFBA07C002803D0A17C032000F01E
:101250007DF80AE0204600F01FFBA07C002803D0A8
:10126000A17C022000F072F800BF00BFF8BD681C2E
:10127000C5B2062DD3DB00BF00BFF7E7C0000010EA
:101280001CB5684600F040F8002800D01CBD684638
:101290000079030000F0FBFC070605121322221B55
:1012A000220000BF00F098FB012806D100F0A2F850
:1012B0006A4651791079FFF7ABFF10E000BF00F0EC
:1012C00099F86A4651791079FFF766FF07E001F057
:1012D0002DFFFFF72BF901F055FF00E000BF00BF25
:1012E00000BFD3E7FD21074A11700321517004218B
:1012F0009170FF21D1701146087100219171FE217A
:10130000D17170470400001038B5044600200090E9
:1013100069460D4801F068F8012801D0012038BD68
:1013200009480078032805D007480078042801D030
:101330000120F4E7002C04D0062203492046FEF7E2
:1013400001FF0020EBE700000C00001070B505461F
:101350000C46034845718471082101F06DF870BD99
:101360000400001004484068002804D00248406887
:10137000401E014948607047380000100248034988
:101380004860012008707047204E000038000010AF
:1013900010B500F0FDFC10BD10B500F0F3FC10BD61
:1013A0000148024948607047204E00003800001094
:1013B00008B500200090FFF7EFFF3F20009900F0F4
:1013C0009DFD00F0FBFD00200149087008BD0000F4
:1013D0003800001010B500F0B7FC012801D100F072
:1013E00009F803484068002801D1FFF7E1FF10BD6C
:1013F0003800001010B5FFF7CBFFFFF7D1FF00F06A
:10140000E3FD00F07FFE01200149087010BD0000DF
:10141000380000101FB5002400F0ECFD3F2000F064
:10142000C5FC414801F040F87CE001F049F801F0CA
:1014300041F8002802D100F0F1FD1FBD00F04AFC88
:1014400004463A49601A8C421AD00CDC38494018DC
:1014500000284ED03749401800281ED0FF218904AB
:10146000401A5DD10FE034482018002833D0FF2106
:101470000904401A25D031494018002850D116E0FF
:1014800000F0CCFDD9E7012000F0ACFD012000F018
:1014900005FE01206946C87243E0022000F0A2FD6B
:1014A000022000F0FBFD012102A8017139E00220B9
:1014B00000F098FD022000F0F1FD022102A8017168
:1014C0002FE0022000F08EFD022000F0E7FD032156
:1014D00002A8017125E06846C07A012808D00220E0
:1014E00000F080FD022000F0D9FD042102A8017166
:1014F00017E000F093FD0399029800F073FA0722B9
:101500000F496846FEF71EFE0199009800F082F828
:101510000B498879FFF7D6FB3F2000F0BBFC8CE736
:1015200000BF00BF81E7000060EA000001FE08F78D
:101530000000F10E000007F9FF01FB04000003FDAD
:101540001200001070B5044607204003251814212E
:101550006143044A89180846123007222946FFF7DA
:10156000C1F970BDC00000101CB5002000900190B2
:101570000122072149036846FFF7B4F91CBD0000AA
:1015800070B5044607204003251814216143044A1E
:1015900089180846123001222946FFF793F970BDD9
:1015A000C000001070B50025002400BF10E014201A
:1015B00068430949441800202070607060606074BE
:1015C0002046083001F003FD0021A174681CC5B25B
:1015D000062DECDB70BD0000C0000010002100BF34
:1015E00011E0142048430A4A105C002800D10CE0A6
:1015F00014204843064A80184078022801D101206F
:101600007047481CC1B20629EBDB00BF0020F7E79A
:10161000C000001073B56846C17800790818C5B2DB
:1016200000240026002D01D0042D01DD01207CBD09
:10163000FFF7B8FF2B0000F02AFB0764050A14220D
:10164000344A64003F205249087208745BE0072066
:101650004F490872087438214D48017714300174DD
:1016600051E009204A49087208741221484801775C
:1016700014300174242114300172017443E00720F6
:1016800043490872087408214148017714300174F5
:101690001021143001720174202114300172017480
:1016A00031E003203A490872087404213848017770
:1016B00014300174082114300172017410211430A7
:1016C0000172017420211430017201741BE00120A9
:1016D0002F490872087402212D48017714300174D3
:1016E0000421143001720174082114300172017454
:1016F0001021143001720174202114300172017420
:1017000001E0012093E700BF00246846C07801286B
:1017100017D10121142060431D4A11541420604345
:1017200080184170012000F015FE14216143184A11
:101730008918486001211420604380184174601C9E
:10174000C4B200261DE0022114206043104A115447
:1017500001211420604380184170A140C8B200F0FC
:10176000F9FD142161430A4A891848600120A0400C
:10177000C1B21420604380184174601CC4B2701C54
:10178000C6B268460079B042DDDC00204FE70000B9
:10179000C000001070B5054600241C4800780128E0
:1017A00000D101242EE0142060431849085C002871
:1017B00000D125E0697C14206043144A8018407CE5
:1017C000814200D11CE01420604310494018407849
:1017D000022814D1142161430C4A881800F05CF8E7
:1017E0001420604309494018807C002807D0142049
:1017F00060430A468018817C0220FFF7A7FD00BFE6
:10180000601CC4B2062CCEDB70BD0000C00000100E
:1018100010B504462078002800D110BD607A012858
:1018200020D1607801280ED1204600F059F800F050
:10183000D3F8012802D1617CFFF788FD03212046FF
:10184000FEF766FE0EE0204600F026F800F0C4F831
:10185000012803D1617C0020FFF778FD022120469A
:10186000FEF756FE00BFD8E770B50024002500BF84
:101870000CE014206043074945182878002800D15F
:1018800006E02046FFF77CFE601CC4B2062CF0DBAD
:1018900000BF70BDC000001010B50446607801287C
:1018A00000D110BD606800F095FC207C00F09AFB30
:1018B000207C00F0EFFA0120607000BFF1E710B566
:1018C00004466078002800D110BD606800F082FCFA
:1018D000207C00F07FFB0020607000BFF4E7000078
:1018E00010B504466078022800D110BD2078012888
:1018F00003D10A480A49086002E02046FFF74AFF80
:10190000606800F0F5FC207C00F06CFB207C00F0AF
:10191000C5FB0220607000BFE7E70000C0D40100F3
:101920003400001070B504460D46294620460830A4
:1019300001F052FB70BD000010B5044603488471ED
:1019400007220F210903FEF7CDFF10BD1200001082
:101950000120094908700320487001210648817060
:1019600001200549C8700221034801710020024985
:101970004871022088717047120000101CB50722C0
:101980000F2109031348FEF79DFF12480078012834
:101990000BD010484078032807D0FFF7D9FF072263
:1019A0000F2109030B48FEF79DFF072209496846EE
:1019B000FEF7C8FB01990098FFF72CFE05498879CE
:1019C000FFF780F93F2000F065FAFFF7D7FCFFF73B
:1019D0004BFF1CBD12000010014840797047000009
:1019E0001200001013B56846C0780749C8706846F1
:1019F00001790548017107220F210903FEF772FFE3
:101A0000FFF7B2FD1CBD00001200001010B5044627
:101A10000348447107220F210903FEF763FF10BD3D
:101A20001200001010B501F09BFA01F093F901F0DB
:101A300063F801F0C9F9FFF795FC01F07BFA00F0BB
:101A40004BF8FEF7BFFE10BD00201F4908600120C3
:101A50004860002048600120486000BF1A48406884
:101A6000C007C00F0028F9D02320174940398860EB
:101A70001648806B802188431449886300BF124850
:101A80004038C068C007C00F0028F8D003200E49B6
:101A9000086301204863002048630120486300BFB9
:101AA0000948406BC007C00F0028F9D00120064943
:101AB0008863054840300068012109040843024951
:101AC00040310860704700004080044000820440BC
:101AD00010B501F0DFF910BD04480068002804D0FB
:101AE00002480068401E0149086070473400001039
:101AF000FEB504460D460027002600F0EBF806462A
:101B00003C48864206D03C48864203D03B48864249
:101B100000D0FEBD1F2000F065FA1F2000F0BAF9CA
:101B2000202000F057FA63E000F0CAFC00F0C2FC8D
:101B3000002806D10620207000210820FFF706FCAF
:101B4000E7E700F079F9074639462D48FEF712FE1F
:101B50002B484079012833D12648404230180028CC
:101B600008D02849401800281BD0274940180028D1
:101B700025D11DE02846FEF7ABFC002D0AD004203D
:101B8000207029780A20FFF7E1FB00210720FFF7EA
:101B9000DDFB05E00620207000210820FFF7D6FBC2
:101BA0000DE00620207000210820FFF7CFFB06E0A3
:101BB0000520207000210920FFF7C8FB00BF00BFEF
:101BC0006846FFF7A1FB00280ED1684600790A2875
:101BD00003D168464079287005E0684601792046BF
:101BE00000F014F800BF00BF2078002800D090E774
:101BF0009AE7000001FE17E801FE08F701FE05FA6A
:101C00008801001000000FF1000003FD072904D037
:101C1000082905D0092909D105E00122027005E053
:101C20000322027002E00222027000BF00BF704770
:101C300010B509480078012800D010BD064840784A
:101C4000022800D0F9E705480068002802D10248C0
:101C5000FFF722FE00BFF0E7C000001034000010C4
:101C60002021020C01D010211046020A01D010469A
:101C70000839020901D01046091F820801D0104618
:101C8000891E420801D0881E7047081A704730B478
:101C90007446641E2578641CAB4204D3635D5B000C
:101CA000E31830BC18471D46F8E702E008C8121FC9
:101CB00008C1002AFAD170477047002001E001C135
:101CC000121F002AFBD170470020014908607047AD
:101CD00050000010024908680021014A1160704755
:101CE0005000001010B5102001F07CFA10200E49B1
:101CF000C861062001F076FA0022022105200007C3
:101D000000F02BFE032202210520000700F03EFE1A
:101D100002210520000700F0DDFD1F200121814088
:101D2000024A116000BF10BD0040044000E100E025
:101D300010B50021012000F05BFC10BD10B5322170
:101D4000012000F055FC10BD06480078012803DD95
:101D500001200549087002E000200349087002488C
:101D600000787047480000106400001010B5102083
:101D700001F038FA12200249486000F00BFC10BD57
:101D80008040044001200149087070474000001065
:101D900010B500200349087003490870FFF7C8FF19
:101DA00010BD0000400000104800001070B505464E
:101DB0000BE000F085FB00F03FF804462046284089
:101DC000002800D001E0012070BDF2E710B510201E
:101DD00001F008FA01208002144948601349403993
:101DE0000862002011490860104940398862886300
:101DF000062001F0F7F9012205210D4800F0ADFDA4
:101E0000012207210A4800F0A8FD00220421084809
:101E100000F0A3FD00220121054800F09EFD0022F4
:101E20000921044800F099FD10BD00004040044025
:101E30000000025000000150014800787047000087
:101E40006800001073B50646002400BF1CE000F0D7
:101E500037FB0120A040C5B230462840002811D0F1
:101E60006846007961006118094A50546846407913
:101E700061006118891848706846807961006118AE
:101E800089188870601CC4B2062CE0DB7CBD0000A1
:101E900098010010F8B50646002416480078B043B3
:101EA0001449087000BF22E000F00AFB0120A040A6
:101EB000C5B230462840002817D0600020180E49CF
:101EC000095C68460170600020180B494018417891
:101ED00068464170600020180749401881786846BC
:101EE00081702846009900F009F8601CC4B2062CE5
:101EF000DADBF8BD7C0000109801001013B582B049
:101F000004462D480078002800D11FBDE007C00F0F
:101F1000002809D06846807B00906846437B027B9E
:101F2000C021012000F012FC02202040002809D02E
:101F30006846807B00906846437B027BA02101209D
:101F400000F004FC04202040002809D06846807B73
:101F500000906846437B027B8021012000F0F6FB65
:101F600008202040002809D06846807B0090684601
:101F7000437B027B8021022000F0E8FB1020204000
:101F8000002809D06846807B00906846437B027B2E
:101F9000A021022000F0DAFB20202040002809D0F8
:101FA0006846807B00906846437B027BC02102200C
:101FB00000F0CCFB00BFA8E77D0000100020014925
:101FC000087070477D0000100120014908707047BB
:101FD0007D000010024909780143014A11707047E1
:101FE00072000010024909788143014A117070475C
:101FF0007200001010B50120054908703F20054906
:1020000008700020044908603F20FFF743FF10BD1F
:1020100070000010720000107400001010B5002055
:102020000449087004490870044908603F20FFF71C
:1020300031FF10BD7000001072000010740000101D
:1020400073B50646002400BF1CE000F039FA0120F9
:10205000A040C5B230462840002811D0684600791B
:1020600061006118094A505468464079610061185E
:1020700089184870684680796100611889188870ED
:10208000601CC4B2062CE0DB7CBD0000AA0100107D
:1020900010B500F01FFBFFF797FF10BDF8B506461F
:1020A00000241648007830431449087000BF22E02D
:1020B00000F006FA0120A040C5B2304628400028B2
:1020C00017D0600020180E49095C68460170600056
:1020D00020180B494018417868464170600020186C
:1020E0000749401881786846817028460099FFF7B3
:1020F00005FF601CC4B2062CDADBF8BD7C000010C2
:10210000AA01001038B5002400BF3CE000F0D8F967
:102110000120A040C5B21D4800782840002818D0F2
:10212000600020181A49095C684601706000201898
:1021300017494018417868464170600020181449DA
:10214000401881786846817028460099FFF7D6FECE
:1021500017E0600020180F49095C684601706000B4
:1021600020180C49401841786846417060002018DA
:102170000849401881786846817028460099FFF721
:10218000BDFE601CC4B2062CC0DB38BD7C00001054
:10219000AA0100109801001010B501200449087030
:1021A0000020044908603F20FFF774FE10BD0000C6
:1021B000710000107800001010B50020034908706D
:1021C000034908603F20FFF765FE10BD7100001055
:1021D0007800001010B50446002C00D110BD02207C
:1021E00060702078012806D002280BD004280FD078
:1021F000082819D112E0002203210520000700F071
:1022000091FB12E000220821094800F08BFB0CE052
:1022100000220921074800F085FB06E00022022188
:10222000044800F07FFB00E000BF00BF00BFD5E71F
:1022300000000150000002500170022242707047FD
:1022400010B5102000F0CEFF102025490860244969
:10225000C0398861224980394861C861062000F090
:10226000C1FF012203210520000700F076FB0122B7
:1022700008211C4800F071FB012209211A4800F0D6
:102280006CFB01220221184800F067FB00220321A9
:102290000520000700F046FB00220821114800F04D
:1022A00041FB00220921104800F03CFB00220221E2
:1022B0000D4800F037FB01210C48FFF7BDFF02215C
:1022C0000A480830FFF7B8FF042108481030FFF72C
:1022D000B3FF082105481830FFF7AEFF10BD00001E
:1022E000C04004400000015000000250BC0100103A
:1022F00010B50446002C00D110BD0120607020787C
:10230000012806D002280BD004280FD0082819D1A4
:1023100012E0012203210520000700F003FB12E078
:1023200001220821094800F0FDFA0CE001220921F0
:10233000074800F0F7FA06E001220221044800F005
:10234000F1FA00E000BF00BF00BFD5E70000015078
:10235000000002500146012906D0022906D00429B6
:1023600007D008290BD107E0064870470548083018
:10237000FBE704481030F8E702481830F5E7002082
:10238000F3E70000BC01001010B5102000F02AFF98
:102390001248C06A102108431049C862032000F0A7
:1023A000F9FD12200D494039C8630C4988600122AB
:1023B0000A210B4800F0D1FA00220A21084800F057
:1023C000B1FA4B20C00100F061FF0648C06B01214B
:1023D000890288430349C86310BD0000404004409F
:1023E00000000150C03F015070B505460C46002D5D
:1023F00008D0002C06D00E4800880121C9030840EF
:10240000884201D0022070BD094800884004400C79
:102410002080002006490880228806492846FDF7CA
:1024200091FE80210348FDF7A6FE0120EBE70000A6
:102430008A0000105C020010F8B504460D4619270A
:102440007F010F48C06B0121890208430C49C86312
:10245000264603E03078761C00F06CFF2846691EA3
:102460008DB20028F6D100BF38467F1E0028FBD170
:102470000348C06B0121890288430149C863F8BD44
:10248000C03F015001480068704700008C000010F8
:1024900010B57D20C00000F0D7FE024800F0DAF849
:1024A00010BD0000409C000001490860704700001A
:1024B000940000100148006870470000940000106C
:1024C00010B500F043FF10BD10B500F049FF10BD7E
:1024D00010B5002404210C4800F008FA002801D1AE
:1024E000012004430121084800F000FA002801D12E
:1024F000022004430921054800F0F8F9002801D121
:1025000004200443204610BD00000250000001508A
:1025100010B500220521044800F004FA0122072129
:10252000014800F0FFF910BD0000025010B5002472
:1025300004210C4800F0DAF9002801D108200443F6
:102540000121084800F0D2F9002801D110200443ED
:102550000921054800F0CAF9002801D120200443D0
:10256000204610BD000002500000015010B50122AD
:102570000521044800F0D6F900220721014800F0A7
:10258000D1F910BD00000250012001494860704798
:1025900000C0004010B5072000F024FE00F022F833
:1025A00000200D49C86001200B494031486380027A
:1025B0000949486109490A480068FDF799FD06493B
:1025C0004862496A00206421FDF792FD0249886152
:1025D000FFF7DAFF10BD000000C00040709400005B
:1025E00000000010022001494860704700C0004010
:1025F00070B505460C46012D17D0022D0BD0032DCA
:102600001DD11049496A614308466421FDF770FDF8
:102610000C49086214E00B49496A61430846642189
:10262000FDF766FD0749C8610AE00649496A61434A
:1026300008466421FDF75CFD0249886100E000BFA7
:1026400000BF70BD00C000400120014948607047D4
:102650000000014010B50446082000F0C3FD6320CF
:102660000F49C8600020086188600846C068401CA7
:10267000604301460B480068FDF73AFD0849886150
:10268000032048610020064940310863FFF7DCFF62
:102690001120FEF7B9FC00211120FEF705FD10BD49
:1026A0000000014000000010064905E0054900BF98
:1026B0000A46491E002AFBD10246401E002AF5D1D7
:1026C000704700008813000001E0411E88B2002816
:1026D000FBD1704710B5102000F084FD1020184980
:1026E00048611120086016494039C8631020144918
:1026F000C8601349803988600860062000F072FDC8
:10270000012204210F4800F028F9012202210D487E
:1027100000F023F9012211460A4800F01EF90122B7
:102720000321094800F019F901220021064800F0B0
:1027300014F901220621044800F00FF910BD000031
:10274000804004400000015000000250F8B50446EB
:102750000D4616461F46012C02D0022C0ED106E073
:102760003A4631462846069B00F00CF807E03A4608
:1027700031462846069B00F053F800E000BF00BF3A
:10278000F8BD0000F8B507460C4615461E4638460B
:1027900000F01AF8204600F017F8284600F014F868
:1027A000304600F011F801220421064800F0BAF882
:1027B0001420FFF789FF00220421024800F0B2F83C
:1027C000F8BD00000000015070B50546002400BFB0
:1027D00020E02846A04080210840C011002805D0F4
:1027E000012202210D4800F09DF804E000220221A0
:1027F0000A4800F097F801221146084800F092F8C4
:102800001420FFF761FF00220121044800F08AF83C
:10281000601CC4B2082CDCDB70BD0000000001505D
:10282000F8B507460C4615461E46384600F01AF81D
:10283000204600F017F8284600F014F8304600F063
:1028400011F801220321064800F06CF81420FFF76C
:102850003BFF00220321024800F064F8F8BD0000AD
:102860000000025070B50546002400BF20E0284655
:10287000A04080210840C011002805D0012200217D
:102880000D4800F04FF804E0002211460A4800F01D
:1028900049F801220621084800F044F81420FFF707
:1028A00013FF00220621044800F03CF8601CC4B26B
:1028B000082CDCDB70BD0000000002500122D203B6
:1028C0008218D26901238B401A430123DB03C3180A
:1028D000DA6170470122D2038218126901238B400A
:1028E0001A430123DB03C3181A61704702467F2095
:1028F000C0011018C06F01238B401840002801D080
:10290000012070470020FCE702460120C003101898
:10291000806901238B401840002801D001207047B6
:102920000020FCE710B5002A0BD07F23DB01C31881
:10293000DB6F01248C4023437F24E4010419E36707
:102940000AE07F23DB01C318DB6F01248C40A34323
:102950007F24E4010419E36710BD10B5012A09D1F1
:10296000D303C3181B6801248C402343D4030419E8
:1029700023600AE00123DB03C3181B6801248C4099
:10298000A3430124E4030419236010BD10B5130010
:10299000FFF77DF906A30426485F81A30123DB032B
:1029A000C3185B6801248C40A3430124E403041989
:1029B00063600123DB03C3189B6801248C40A3439D
:1029C0000124E4030419A3600123DB03C318DB68BB
:1029D00001248C4023430124E4030419E3607DE0D7
:1029E0000123DB03C3185B6801248C40A34301244B
:1029F000E403041963600123DB03C3189B6801240B
:102A00008C40A3430124E4030419A3600123DB03E6
:102A1000C318DB6801248C40A3430124E403041998
:102A2000E3605BE00123DB03C3185B6801248C4097
:102A3000A3430124E403041963600123DB03C318E7
:102A40009B6801248C4023430124E4030419A36000
:102A500044E00123DB03C3185B6801248C4023435B
:102A60000124E403041963600123DB03C3189B689A
:102A700001248C40A3430124E4030419A36001232F
:102A8000DB03C318DB6801248C4023430124E403E7
:102A90000419E36022E00123DB03C3185B6801240F
:102AA0008C4023430124E403041963600123DB0306
:102AB000C3189C6801238B409C430123DB03C3188C
:102AC0009C600123DB03C318DC6801238B409C431B
:102AD0000123DB03C318DC6000E000BF00BF10BDB2
:102AE00004480068002804D002480068401E0149DC
:102AF000086070479000001010B514480078002856
:102B000000D110BD124800684B21C900884203D98A
:102B100000200F49086004E00D480068401C0C4983
:102B200008600B480068052804D10A480078FFF7C0
:102B3000B5FA09E006480068FF213231884203D126
:102B400004480078FFF7A6F900BFDAE7700000102C
:102B5000740000107200001010B50221052000075B
:102B6000FFF7D2FE002800D110BD0221052000078A
:102B7000FFF7BCFE002804D056480068564908609C
:102B80009DE0544800685549086055480078002881
:102B900002D001287DD12CE04F480068FF214B3145
:102BA000884207D94D480068A02803D901204C4924
:102BB000087019E048480068142812D9464800688F
:102BC00096280ED247480078142806DA454800783F
:102BD000002802D1022043490870002040490870B3
:102BE00002E000203E4908703C4800683A4908600D
:102BF00064E03948006809284CD937480068322811
:102C000048D23648006809280ED93448006832286E
:102C10000AD23548006840083349086033480078D4
:102C2000401E3249087022E02C480068322815D92D
:102C30002A480068462811D22B48006840082A49D3
:102C40000860084600680121C90708432649086052
:102C500026480078401E2549087008E000202049D9
:102C6000087020202149087000201F4908601F4873
:102C70000078002817D11C4800681D490860002012
:102C8000174908702020194908700020164908606B
:102C900009E009E00020124908702020134908705B
:102CA00000201149086009E000200D49087020202B
:102CB0000E49087000200C49086000BF00BF0020CA
:102CC00004490860022105200007FFF7F7FD00BF57
:102CD0004AE700004C00001058000010540000109B
:102CE0006500001048000010600000105C0000103B
:102CF0005000001002480068401C014908607047FD
:102D00004C00001010B511480078012800D010BD0B
:102D10000F480068401C0E490860084600680128FA
:102D200002D1FFF70BF80FE009480068642802D1D0
:102D3000FEF7FEFF08E0064800687D21C9008842D2
:102D400002D100200249086000BFE0E74000001007
:102D50004400001010B51A480068502803D900201C
:102D60001749086004E016480068401C14490860D0
:102D70001348006800280FD1124800783821884392
:102D800010490870FFF7D2FB0E49097808430D4936
:102D90000870FFF7BDFB12E00948006828280ED133
:102DA00008480078C008C00006490870FFF790FB8B
:102DB00004490978084303490870FFF7D7FB10BDA1
:102DC0006C0000106800001010B52F480078002833
:102DD00000D110BD2D4800684B214901884203D91C
:102DE00000202A49086004E028480068401C274960
:102DF000086026480068264A811A90422AD00ADCD8
:102E0000052812D0FF389638002815D0FF389138A1
:102E1000002834D117E00846FF389138002820D028
:102E2000FF38913800282AD122E00120FFF736F937
:102E30000820FFF72FF823E00220FFF72FF90120E9
:102E4000FFF728F81CE00420FFF728F90220FFF71D
:102E500021F815E02020FFF721F90420FFF71AF8E8
:102E60000EE01020FFF71AF92020FFF713F807E013
:102E70000820FFF713F91020FFF70CF800E000BF5F
:102E800000BF00BFA5E7000071000010780000102F
:102E9000B504000010B500240A201E490860002077
:102EA0001D4908701D480068C4B21D4800780028FC
:102EB00005D0FD2C03D100201949087010BD184819
:102EC0000078002819D1FE2C17D101201449087070
:102ED000144800780121C90340181349088011489B
:102EE000027812491248FDF72DF980210F48FDF7AD
:102EF00042F900200B490870E0E7094800780028F3
:102F000006D108490878411C064A117007490C543B
:102F100000BFD3E784000010800000100080004054
:102F200088000010890000108A000010DC010010E9
:102F30005C0200100848007800280CD1074800689F
:102F4000002803D101200449087004E00348006808
:102F5000401E024908607047800000108400001085
:102F600000B505480068401C03490860FFF7B8FD3C
:102F700000F004F800BD00008C0000100448006858
:102F8000002804D002480068401E014908607047CC
:102F9000940000100321014A51627047C040044070
:102FA000FDF77CFCFEF7EAFC0120FEF79BF90DE043
:102FB000FFF786FAFDF730FFFDF7E2FDFEF70AFAAC
:102FC000FEF75EF9FEF734FEFDF746FCF0E7002160
:102FD000017041704160704770B504460D466078DD
:102FE0000300FEF754FE06040E1B2F39434D2078D4
:102FF0002840002802D00120607001E000206070AD
:103000003FE020782840002805D002206070FFF7BC
:1030100039FA606001E00420607032E020782840D6
:1030200000280CD0FFF72EFA6168401A1649884232
:1030300002D90320607004E00220607001E00420E7
:1030400060701EE020782840002802D003206070C5
:1030500001E00520607014E020782840002802D0AC
:103060000120607001E0002060700AE020782840B4
:10307000002802D00120607001E00020607000E0B4
:1030800000BF00BF70BD0000B80B000070B5044663
:103090000D4616463320084908600846446085609E
:1030A000C6600648086106490348064A1268904708
:1030B0000348006870BD0000DC02001080BB000007
:1030C000FC020010BC00001070B504460D46342010
:1030D000074908600846446085600648C86006499C
:1030E0000348064A126890470348006870BD000014
:1030F000DC02001080BB0000FC020010BC000010CD
:1031000070B504460D463220054908600846446003
:1031100085600449044A126890470248006870BDFF
:10312000DC020010FC020010BC00001070B500248E
:103130000025002600BF0FE0142060430F4945180A
:103140002878002802D06868FFF744F800206870EB
:1031500000216972601CC4B2062CEDDB002408E07B
:103160002001074946180120707000217171601C10
:10317000C4B2062CF4DBFEF7A7FD70BDC000001042
:103180003801001070B500240025002600BF0FE0B4
:1031900014206043114945182878002802D0686837
:1031A000FFF718F80120687000216972601CC4B232
:1031B000062CEDDB002408E0200109494618012017
:1031C000707000217171601CC4B2062CF4DBFEF734
:1031D0007BFD3F20FEF7EAFD70BD0000C00000103F
:1031E0003801001003490968012282401143014A55
:1031F00011607047808004400249896B8143014A15
:103200009163704700820440014988617047000063
:1032100080800440044908610121034A5161002172
:103220005161012151617047C080044001498861AA
:1032300070470000C0800440FF208230014948628E
:10324000704700000080044070B5054629460C48D0
:103250000068FCF74DFF0446601E0A49884200D909
:103260000CE0601E084948610321081FFDF7E0FEDD
:103270000020054988610720086100BF70BD00007B
:1032800000000010FFFFFF0000E000E0F0B587B095
:1032900007460C20FFF7A6FF0120FFF7B5FF21200E
:1032A000204988628320C8603801FCF7D7FF0546B3
:1032B00000221D4BFCF76AFF039102901B488169B5
:1032C0001B480068FCF714FF0546FCF7C7FF019197
:1032D0000090039B029AFDF713F805910490FCF708
:1032E000CBFF84B22046E117090E091809120D4AD6
:1032F0005160E117090E091809120902611A1160DB
:1033000003201146C860872088601520FDF786FEDF
:1033100001211520FDF704FF01200249486007B094
:10332000F0BD0000008000400000F83F80800440B5
:10333000000000100449086000BF034949694022A9
:1033400011400029F9D070470080004072B6AA20D1
:10335000024988605520886062B67047004000408E
:1033600010B5FFF769FF4020FFF746FF0220FFF787
:1033700051FF0120FFF75AFF0F20FFF733FF032013
:103380000349086003484860FFF7E0FF10BD0000F4
:1033900000400040FFFFFF00B833000000000010B5
:1033A000C0000000AA1C000078340000C00000101B
:1033B00060060000BA1C0000006CDC020000000087
:1033C00000000000000000000000000000000000FD
:1033D000003C0000003C0000003C000064646464A9
:1033E0009632000000282828282814000000000039
:1033F00000000000000000000000000000000000CD
:1034000000000000000000000000000000000000BC
:10341000000000002000000000000000000000008C
:10342000000000000000000000000000000000009C
:10343000000000000001000001000000000000008A
:10344000010000000000000000000000000000007B
:10345000000000000000000000000000000000006C
:10346000000000000000000000000000000000005C
:08347000000000000000000054
:04000005000000C136
:00000001FF
