:020000040000FA
:1000000058040010D5000000DD000000DF000000F3
:1000100000000000000000000000000000000000E0
:10002000000000000000000000000000E1000000EF
:100030000000000000000000E3000000E5000000F8
:10004000E7000000E7000000E7000000E700000014
:10005000E7000000E7000000E7000000E700000004
:10006000E7000000E7000000E7000000E7000000F4
:10007000E7000000E7000000E7000000E7000000E4
:10008000E7000000E7000000E7000000E7000000D4
:10009000E7000000E7000000E7000000E7000000C4
:1000A000E7000000E7000000E7000000E7000000B4
:1000B000E7000000E7000000E7000000E7000000A4
:1000C0000348854600F0FEF800480047BD0D0000DB
:1000D000580400100448804704480047FEE7FEE744
:1000E000FEE7FEE7FEE7FEE715050000C1000000A1
:1000F00030B50B46014600202022012409E00D46C0
:10010000D5409D4205D31D469540491B2546954047
:1001100040191546521E002DF1DC30BDD2B201E06F
:100120000270401C491EFBD270470022F6E710B552
:1001300013460A4604461946FFF7F0FF204610BD55
:1001400003460A780270401C491C002AF9D118465F
:1001500070470321001D401E037812021A43491EF6
:10016000F9D510467047034603220870000A491C5F
:10017000521EFAD518467047F0B51FB488B00B99D7
:100180000998002448400999C00F4900490809917D
:10019000C0070B990090490049080B9109990898EC
:1001A000A64608431CD00B990A98084318D0099812
:1001B00001244000420D4800410D09982405000328
:1001C000000B204309900B980003000B20430B9079
:1001D00050181C494018002201901446104605E0B2
:1001E000002001460DB0F0BD032801DA034600E00F
:1001F00003239C46C11A0AAE0AE05F0008ADED5B1E
:100200004F00F75B7D430027AA187C41491C5B1E09
:100210006145F2DD410004AB5A522104120C0A433D
:10022000240C401C0828DFDB0198029000997046DE
:1002300001910090059B049A0799069800F0E5F853
:10024000D0E700000DFCFFFF0EB50549029100212B
:1002500000910A460B46019100F0D7F803B000BDAB
:10026000330400004A0009030123090B1B0519434D
:10027000094B10B5520D9A4201DA002010BD064B11
:1002800034339A4203DC9A1A00F00AF810BD03498D
:100290005118884010BD0000FF030000CDFBFFFF98
:1002A00010B5202A04DB0846203AD040002110BDBA
:1002B0000B46D340D0402024A21A9140084319464F
:1002C00010BD0000064C0125064E05E0E36807CC92
:1002D0002B430C3C98471034B442F7D3FFF7F4FE9D
:1002E000700F0000900F000002E008C8121F08C144
:1002F000002AFAD17047704700000000FFFFFFFF9F
:10030000F0B50C465C4085B0E40FE40703944C0064
:100310000026640859009446490802460296224382
:1003200021D062460A431ED06200570D4A000E03D8
:100330002303550D012402462C492405781B1B0B71
:10034000360B401823432643614600901C46501A42
:10035000B44103D30098401C009002E0921800982A
:100360005B41002803DA0020014605B0F0BD002003
:10037000012109050746864611E064461D46141B07
:10038000B54106D36546521BB341744607430C433F
:10039000A646CD0740084908284392185B41054608
:1003A0000D43EAD11046184313D060461946504019
:1003B0007140084306D06046101AB34106D20122AC
:1003C000002306E000220123DB0702E00122D243E2
:1003D0005310009874460105381C6141029C039D2E
:1003E0000019694100F004F8BFE70000FD030000B8
:1003F00010B5002B08DA0024401C614192185B41C3
:100400001A4301D14008400010BDF0B51FB482B0BE
:1004100005460C0003D0084600F074FB02E000F033
:1004200071FB2030024600902146284600F03FF83C
:10043000049B059A04460F4618431143084314D001
:10044000184610431BD0009840210A1A18460599F7
:10045000FFF726FF05460E46009A0599049800F01E
:1004600026F8084305D0012004E02046394607B0AD
:10047000F0BD0020C11705430E432C4337430099BC
:100480000E986305401A7905E40A00220C43FD0A20
:100490000A3002D500200146E9E70105101969413B
:1004A0000C9C0D9D00196941FFF7A2FFDFE710B515
:1004B000202A04DB0146203A9140002010BD9140E3
:1004C00020239C1A0346E3401943904010BD0000CE
:1004D0008307FF22DB0E9A408907090E9940002806
:1004E0000BDA0007000F0838830808489B0018182B
:1004F000C36993430B43C3617047830804489B005F
:100500001818036893430B430360704700ED00E045
:1005100000E400E070B51348002404600123436048
:10052000446043604168C907FCD00E49232240392A
:100530008A600D4A956B8026B5439563CA68D207D9
:10054000FCD003210163436344634363416BC907E8
:10055000FCD0836303484030016801221204114338
:10056000016070BD4080044000820440F0B5FFB0DF
:10057000A6B00121490225A8FFF7D7FD05250124D2
:100580006D03240385220021684600F0DBF96846EC
:100590000078002859D018A801302490FFF7D9FD21
:1005A000002857D001212391C117090D0818001305
:1005B000401CC0B222902A492848086072B622998D
:1005C000239800F067FC2299239800F04BFC62B658
:1005D000FF2701373E462498FFF7BBFDB04200DC01
:1005E00006463246294625A800F0ACF972B6229993
:1005F000239800F04FFC3A4625A9204600F01AFC4B
:1006000062B60121490225A8FFF78FFDFF34FF35AF
:10061000013401352498FFF79CFD801B2499FFF7D6
:10062000A2FD0028D6D125A800F078FB002069465D
:100630000870684600F0CAF80AA000F053FA1048A3
:10064000006880477FB026B0F0BD25A800F066FBAB
:100650000CA0F2E712A000F045FAFEE7F11FFF1F21
:100660000000001041707020436F64652055706475
:100670006174652046696E6973680D0A00000000A8
:100680000400001041707020436F6465204E6F209D
:100690004E656564205570646174650D0A00000044
:1006A00041707020436F6465204572726F72210D36
:1006B0000A00000030B5A3B000F0BEF8002800D05A
:1006C000FEE785220021684600F03CF96846007884
:1006D00008AD01356C46FF2816D1002000F082F8E5
:1006E00088216846FFF721FD00206946087017A1A0
:1006F000601CFFF725FD17A12846FFF721FD852285
:100700000021684600F0D2F96846007801281AD026
:1007100013A114A000F0E6F9611C17A000F0E2F9A3
:1007200029461AA000F0DEF918A80130FFF711FDE4
:1007300001461BA000F0D6F919A91EA0013100F056
:10074000D1F923B030BD20A1E3E70000302E302ED8
:100750003100000032303136303630333031000075
:100760006E6F000055706461746520466C6167208F
:100770003A2025730D0A000056657273696F6E206A
:100780004E616D653A2025730D0A0000566572733F
:10079000696F6E20436F64653A2025730D0A00006F
:1007A0005061636B65742053697A65203A20256433
:1007B0000D0A00004D443528333262697429202027
:1007C0003A2025730D0A00007965730010B5040006
:1007D00007D0002000F006F885220021204600F016
:1007E00065F910BD70B5040300F004F9012820D0AC
:1007F000062000F047F90F4D00220221284600F0A4
:10080000C1FA202000F076F82002000E00F072F805
:100810002004000E00F06EF8002000F06BF80122BA
:100820000221284600F0AEFA00F0E4F8012800D0DA
:10083000002070BD0000025070B5102000F03EFB9B
:100840001C48C26910210A43C261826B11231A43FA
:100850008263026A0A430262426A0A4342620620D3
:1008600000F02CFB144C01220221204600F098FAE3
:1008700001220021114800F093FA05252D070022DE
:100880000821284600F08CFA01220921284600F0B0
:1008900087FA00220221204600F074FA00F084F862
:1008A000002802D00649884201D1012070BD0020F5
:1008B00070BD0000404004400000025000000150A4
:1008C000FFFF000070B50A4D00220221284600F00B
:1008D00059FA052000F00EF8FF2000F00BF804464E
:1008E00001220221284600F04DFAE007C00F70BD3A
:1008F00000000250F8B50026114F0546344600228C
:100900001146384600F03EFA0520EA0909210007A1
:1009100000F038FA6806050E01220021384600F082
:1009200031FA052076000821000700F021FA304353
:10093000641CE4B2C6B2082CE1D33046F8BD000016
:1009400000000150F8B515460F46044600F052F875
:10095000012825D0134E00220221304600F012FA61
:100960000320FFF7C7FF3802000EFFF7C3FF38046C
:10097000000EFFF7BFFFF8B2FFF7BCFF04E0FF2057
:10098000FFF7B8FF2070641C6D1EF8D2012202210F
:10099000304600F0F7F900F02DF8012800D00020D3
:1009A000F8BD00000000025070B5114E0022022177
:1009B000304600F0E7F99020FFF79CFF0020FFF79A
:1009C00099FF0020FFF796FF0020FFF793FF00201C
:1009D000FFF790FF05020020FFF78CFF2843044635
:1009E00001220221304600F0CDF9204670BD000002
:1009F0000000025008B508480090401E009008D042
:100A0000FFF760FF00280098F7D1002801D00020F0
:100A100008BD012008BD0000FFFF0000F8B5154625
:100A20000F460446FFF7E6FF012827D0062000F016
:100A300029F8134E00220221304600F0A3F90220CB
:100A4000FFF758FF3802000EFFF754FF3804000E7E
:100A5000FFF750FFF8B2FFF74DFF03E02078FFF7F4
:100A600049FF641C6D1EF9D201220221304600F0BC
:100A700089F9FFF7BFFF012800D00020F8BD000072
:100A80000000025070B5084C0546002202212046A5
:100A900000F078F92846FFF72DFF012202212046B9
:100AA00000F070F970BD000000000250F8B5154666
:100AB0000E4607467119300A090A884204D0FF2001
:100AC000F1B20130441A00E02C4622463146384645
:100AD000FFF7A4FF002803D13F1936192D1BE9D1D8
:100AE000F8BD00000FB410B503A9044B044A0298E6
:100AF00000F026F810BC08BC04B018470D0D00002B
:100B00000C0000102021020C01D010211046020A16
:100B100001D010460839020901D01046091F820889
:100B200001D01046891E420801D0881E7047081A5D
:100B30007047002001E001C1121F002AFBD170475D
:100B4000FFB58DB00F460546002606E025280AD0E1
:100B5000109A0F9990476D1C761C28780028F5D1C3
:100B6000304611B0F0BD00240121674A009400E036
:100B700004436D1C2B780846203B98401042F7D167
:100B800028782E2815D10420044368786D1C2A2863
:100B90000AD101CF6D1C00900BE000990A2251434D
:100BA000303940186D1C00902878014630390929E9
:100BB000F3D92878692843D006DC0028D0D06328F0
:100BC0000BD0642804D13BE073280FD075284CD09B
:100BD000109A0F999047761C94E03878694608720D
:100BE0000020487202A80190012003E038680190BB
:100BF0000020C0433F1D61070CD5002400E0641CA9
:100C000000998C420FDA8442F9DB0199095D0029D1
:100C1000F5D108E0002400E0641C8442FCDB01996B
:100C2000095D0029F8D1361907E00198019900788B
:100C3000491C0191109A0F999047641EF5D261E00A
:100C40000A20019001CF002802DA40422D2102E063
:100C5000210504D52B216A461172012103E0E10729
:100C600001D02021F7E70C9104E00A20019001CF88
:100C700000210C910BA90B9108E00199FFF738FABC
:100C80000A460B993032491E0B910A700028F4D1A4
:100C90000B9803A9081A20300190600701D500982D
:100CA00001E0012000900199884203DD014601988E
:100CB000081A00E000200024009006E002A8109A24
:100CC000005D0F999047641C761C0C988442F5DBFC
:100CD00004E0109A30200F999047761C0099481E26
:100CE00000900029F5DC08E00B980B990078491C6E
:100CF0000B91109A0F999047761C0199481E01900C
:100D00000029F1DC6D1C28E70928010010B5044614
:100D1000C0B200F025F9204610BD000010B5002833
:100D200023D0124B0022001F196803E0814203D830
:100D30000A4649680029F9D1002A0AD01368841AA2
:100D40009C4204D1006818181060104602E0506000
:100D500000E01860002907D002680B1A934203D103
:100D60000B68D21802604968416010BD1000001085
:100D70007F22D2018018C06F01228A40104000D02B
:100D80000120704710B57F24E40101238B40001936
:100D9000C16F002A01D0194300E09943C16710BD1B
:100DA00010B50123DC038B4000190168012A02D031
:100DB0009943016010BD1943FBE7000010B51020F6
:100DC00000F07CF80B48426A11210A434262826AB1
:100DD0000A438262E120400200F080F806A209A1E5
:100DE0000BA0FFF77FFEFFF765FCFFF7BFFB0020BE
:100DF00010BD00008040044031303A31343A35377C
:100E0000000000004A756C20203520323031360059
:100E10000D0A74686520626F6F746C6F6164207373
:100E2000746172742075705B25732025735D0D0AE3
:100E30000000000010B5084B332410C307C3074857
:100E4000074A186019461268103103489047024853
:100E50002030006810BD00001400001080BB0000AE
:100E60000000001010B5084A3423136091605060F0
:100E70000648D06011461046054A20311268904756
:100E800001482030006810BD1400001080BB000035
:100E90000000001010B5074A3223136091605060C3
:100EA00011461046044A203112689047014820300C
:100EB000006810BD140000100000001003490A680B
:100EC000012383401A430A60704700008080044079
:100ED00001498861704700008080044070B5054674
:100EE0000C20FFF7EBFF0120FFF7F2FF174C21204A
:100EF000A0628320E0602801FFF7A6F90022144BCE
:100F0000FFF73AF9054613480E4681691248006812
:100F1000FFF7EEF8FFF798F92A463346FFF7F0F9A6
:100F2000FFF7A0F980B2010A6160C0B2206003201F
:100F3000E0608720A06001250849A00108602946DB
:100F40001520FFF7C5FA656070BD00000080004005
:100F50000000F83F808004400800001000E100E03D
:100F60000249086048694006FCD57047008000408F
:100F7000900F00000000001014000000E8020000C4
:100F8000A40F00001400001044040000320B000005
:100F90000000000001100000006CDC0200000000F6
:040FA000000000004D
:04000005000000C136
:00000001FF
