:020000040000FA
:10100000E0150010D5100000DD1000002D210000BB
:1010100000000000000000000000000000000000D0
:10102000000000000000000000000000E1100000CF
:101030000000000000000000E3100000A9440000D0
:10104000E7100000E7100000E7100000E7100000C4
:10105000E7100000E7100000E7100000E7100000B4
:10106000E7100000E7100000E7100000E7100000A4
:10107000E7100000E7100000E7100000E710000094
:10108000E7100000191F0000E7100000E710000043
:10109000E7100000C5460000E71000001D470000F3
:1010A000E7100000E7100000E7100000E710000064
:1010B000E710000065200000E7100000E7100000C6
:1010C0000348854600F0E4FC0048004761630000E7
:1010D000E01500100448804704480047FEE7FEE79B
:1010E000FEE7FEE7FEE7FEE721460000C110000034
:1010F00030B50B46014600202022012409E00D46B0
:10110000D5409D4205D31D469540491B2546954037
:1011100040191546521E002DF1DC30BD03460B432D
:101120009B0703D009E008C9121F08C0042AFAD29D
:1011300003E00B780370401C491C521EF9D2704723
:10114000D2B201E00270401C491EFBD2704700225F
:10115000F6E710B513460A4604461946FFF7F0FFB6
:10116000204610BD421E5378521C002BFBD10B7839
:101170001370491C521C002BF9D1704730B505463D
:101180002A460B4610781C78521C5B1C002801D0A4
:10119000A042F7D0002C03D0002802D06D1CEFE74E
:1011A000284630BDCAB2401E4178401C8A4202D057
:1011B0000029F9D100207047421C0178401C002909
:1011C000FBD1801A704710B5002200E0521C835CEE
:1011D0008C5CA34201D1002BF8D1D8B2E1B2401A05
:1011E00010BD30B504460020034600E05B1C93426E
:1011F00003D2E05CCD5C401BF8D030BD03460A78DA
:101200000270401C491C002AF9D11846704703217E
:10121000001D401E037812021A43491EF9D51046DC
:101220007047034603220870000A491C521EFAD573
:10123000184670470FB400B58DB009900B9010A9F7
:1012400000200091C0430A9000200C9006480690B0
:10125000064807906A4609A80F9900F02FFB0DB0C9
:1012600008BC04B018470000DD180000FD1800009D
:10127000FFB50027FF4383B000205C6801909E68A3
:101280001D46A9697F1C049888470090296A8847F1
:101290000028F6D10098401C0CD003204002844363
:1012A000002E19DD600614D500982B2809D02D28B2
:1012B0000FD103E00020C04307B0F0BD0120800241
:1012C0000443A9697F1C04988847761E0090002E6D
:1012D00002DD0098302803D00598002825D035E09D
:1012E000012040020443A969761E7F1C04988847A8
:1012F0000090002E03DD782805D0582803D00598EB
:10130000002810D022E00598002801D010281DD117
:10131000012040028443A969761E7F1C04988847F7
:101320000090102002E0082000E00A2005900DE067
:10133000012149020C43059A0199761E5143081870
:101340000190A9697F1C049888470090002E05DD54
:101350000599009800F09CFA0028E9DAE9690498F8
:101360008847A00502D40120C043A5E7E00722D1A9
:10137000600611D56005019800D5404229680A1D14
:101380002A600968220501D5087014E0220701D5FA
:10139000088010E008600EE02868011D29600068E0
:1013A000210502D50199017005E02107019901D5B8
:1013B000018000E0016038467EE770B5064604F023
:1013C000B1F9046805460A220021304600F0A8FA67
:1013D0002C6070BDF0B507460846584087B0C00F76
:1013E000049048000E46590040084908BC1A88413C
:1013F00005D2384631461E4617460B46024658006F
:10140000400810434CD0300D039040055900400D6A
:10141000490D0590401A0290402872DA1803012104
:10142000000B09050843019004980092002805D09C
:101430000199524200208841009201900298402177
:101440000A1A0199009800F0EFF905460C466B4620
:1014500007CB00F00AFAC0197141039A0E0D002360
:10146000D71756401A467A40164344D0049A002AA9
:101470002DD0029A012A039A15DC1205C01A914157
:1014800001263605001C7141D20F059ED20700933C
:10149000019202962A46234600F087FA07B0F0BD73
:1014A00038463146FAE71605224A0F46B218C01AE6
:1014B000B74101210905001C4F4100187F41114629
:1014C00018187941E20F10436D19644113E0E207E7
:1014D0006D0815436408C2071443039A01261205D8
:1014E000C01A91413605001C7141CE0740083043B7
:1014F0004908C01851412A46234600F049FACDE771
:10150000FFE7049801224000C117121A00238B4103
:1015100004983146C417381AA141EEE730B40124CB
:10152000E407634030BC55E730B40124E407614070
:1015300030BC4FE70000E0FFF0B51FB488B00B9956
:101540000998002448400999C00F490049080991A9
:10155000C0070B990090490049080B910999089818
:10156000A64608431CD00B990A98084318D009983E
:1015700001244000420D4800410D09982405000354
:10158000000B204309900B980003000B20430B90A5
:1015900050181C494018002201901446104605E0DE
:1015A000002001460DB0F0BD032801DA034600E03B
:1015B00003239C46C11A0AAE0AE05F0008ADED5B4A
:1015C0004F00F75B7D430027AA187C41491C5B1E36
:1015D0006145F2DD410004AB5A522104120C0A436A
:1015E000240C401C0828DFDB01980290009970460B
:1015F00001910090059B049A0799069800F0D5F98F
:10160000D0E700000DFCFFFFF0B50C465C4085B054
:10161000E40FE40703944C00002664085900944644
:10162000490802460296224321D062460A431ED050
:101630006200570D4A000E032303550D0124024694
:101640002C492405781B1B0B360B401823432643DB
:10165000614600901C46501AB44103D30098401CC8
:10166000009002E0921800985B41002803DA002005
:10167000014605B0F0BD0020012109050746864658
:1016800011E064461D46141BB54106D36546521B46
:10169000B341744607430C43A646CD0740084908AA
:1016A000284392185B4105460D43EAD11046184382
:1016B00013D06046194650407140084306D060463A
:1016C000101AB34106D20122002306E000220123B2
:1016D000DB0702E00122D243531000987446010553
:1016E000381C6141029C039D0019694100F050F9CA
:1016F000BFE70000FD0300000EB5C217C10F504048
:10170000CA0740180021054B0293019200910A4636
:101710000B4600F04AF903B000BD0000330400009E
:101720000EB505490291002100910A460B46019130
:1017300000F03BF903B000BD330400004A00090388
:101740000123090B1B051943094B10B5520D9A4291
:1017500001DA002010BD064B34339A4203DC9A1A9A
:1017600000F072F810BD03495118884010BD000008
:10177000FF030000CDFBFFFF10B5002904DB0124AF
:10178000E40740428C412146002B04DB1C46012328
:10179000DB075242A3418B4200D1824210BD0000C0
:1017A00010B5002904DB0124E40740428C412146A6
:1017B000002B04DB1C460123DB075242A341994264
:1017C00000D1904210BD0000F0B51FB406460020C5
:1017D00082B005464024019100901BE00199224609
:1017E0000F46304600F030F8049A059B801A994164
:1017F00010D310461946224600F016F8361A8F41CB
:101800000197224601200021009F00F00DF83818B2
:101810004D4100902046641E0028DFDC019B0098AB
:101820002946324607B0F0BD10B5202A04DB014638
:10183000203A9140002010BD914020239C1A03467D
:10184000E3401943904010BD10B5202A04DB084640
:10185000203AD040002110BD0B46D340D040202478
:10186000A21A91400843194610BD10B5202A06DB84
:10187000CB170846203A1041C1170B4306E00B4630
:101880001341D0402024A21A91400843194610BDAC
:101890003A2800D23038202302469A43412A01D305
:1018A00010463738884201D30020C04370470000FB
:1018B00002681378511801601846704710B5D1605E
:1018C000044951610449116200211161114600F07F
:1018D000FFF810BDB1180000BD1A00004268002AD0
:1018E00008D001680B78491C002B03D0521E06C09B
:1018F000184670470121C160881E70474268002A5F
:101900000BD0C3680168002B07D183688B4204D0D9
:10191000491E521C06C0002070470020C04370477B
:10192000F7B5009C0F4600262578641C002D05D0D5
:1019300000F0C0F80068405DC007F5D12B2D02D043
:101940002D2D18D0641E39462046029A00F05CFA0C
:10195000002F04D03968A14201D100993960710586
:10196000022400290BDA4042002803DD03F0DAFEEE
:101970000460A007FEBD012080020643E3E70028C3
:10198000F8DA03F0CFFE04600048FEBDFFFFFF7FE2
:1019900010B5002B08DA0024401C614192185B410D
:1019A0001A4301D14008400010BDF0B51FB482B009
:1019B00005460C0003D0084603F090FE02E003F059
:1019C0008DFE20300246009021462846FFF72CFF6E
:1019D000049B059A04460F4618431143084314D04C
:1019E000184610431BD0009840210A1A1846059942
:1019F000FFF72AFF05460E46009A05990498FFF75F
:101A000013FF084305D0012004E02046394607B003
:101A1000F0BD0020C11705430E432C433743009906
:101A20000E986305401A7905E40A00220C43FD0A6A
:101A30000A3002D500200146E9E701051019694185
:101A40000C9C0D9D00196941FFF7A2FFDFE7000024
:101A50004A0009030123090B1B0519430A4B10B562
:101A6000520D9A4202DA0020014610BD064B343373
:101A70009A4203DC9A1AFFF7E7FE10BD034BD21817
:101A8000FFF7D2FE10BD0000FF030000CDFBFFFFFB
:101A9000064C0125064E05E0E36807CC2B430C3CC1
:101AA00098471034B442F7D3FFF70EFBB06E000036
:101AB000D06E0000004870479C6D000010B50446D1
:101AC000FFF7F8FF0068005DC007C00F10BD000001
:101AD000F3B58DB000200A9001200B900026084637
:101AE0000C300C4609906269012109989047050065
:101AF0002ED0252D2DD0216A8847002818D0626964
:101B0000012109989047216A88470028F7D1411E92
:101B100062690998904700E0761CA1690D98884792
:101B2000216A88470028F7D1E1690D988847DAE7EC
:101B3000A1690D9888470746A84201D1761CD2E7D3
:101B4000E1690D9888477F1C02D10A98002877D058
:101B500049E1002762693D463946099890472A289D
:101B60000CD16269012109989047012506E00A21FC
:101B70004F433F18303FEBD41020054362690121E9
:101B800009989047014630390A2903D29B498F4270
:101B9000DEDCECE7E90600D4994F6C280AD04C282B
:101BA00010D0682824D06A282ED074280CD07A2827
:101BB0000AD00DE062690121099890476C2823D072
:101BC00004211CE020200543626901210998904707
:101BD000A760656065284FD026DC582839D01ADC0C
:101BE000452849D012DC252834D04128B0D143E023
:101BF0006269012109989047682802D008210D43A5
:101C0000E6E70120C002DEE70220DCE7462833D009
:101C100047282CD130E05B2870D061282CD0632875
:101C20006CD0642823D161E06F284FD009DC66288E
:101C300022D0672820D0692826D06E2817D12EE020
:101C4000CDE070284DD073286FD075284ED07828FD
:101C50000DD154E0A1690D9888470546252800D18B
:101C60006CE7E1690D9888476D1C00D16DE7BAE01B
:101C70000A224CE00A2252E0012023466A46C04371
:101C80000D99C046C046A3E0284640210843606045
:101C9000A807234601D5002239E000223FE0E807EB
:101CA00000D020E72068011D21600068290501D5CA
:101CB000067018E7290701D5068014E7A90703D5A0
:101CC000F117066041600EE706600CE728464021E8
:101CD00008436060A807234601D5082217E00822C0
:101CE0001DE0484928460840606016E0284640212B
:101CF00008436060A8072346BCD5B9E715E028462D
:101D0000402108436060A80707D523461022012020
:101D1000C0430D99C046C0465AE023461022012018
:101D2000C0430D99FFF7A4FA52E000210C910B4635
:101D30000091632802D05B2807D043E0E80601D475
:101D40000120A060012000903CE062690121099817
:101D500090475E2805D101200C90014662690998E0
:101D600090472169002906D10B4601AA8F00491C22
:101D7000D3510829FADB002835D0216900290ED17A
:101D8000C117C90E09184A11930001AA9A184909E6
:101D90004901411A012013688840034313606269B6
:101DA0000121099890475D28E5D10C98002808D0BA
:101DB000002001AB81005A58401CD2435A500828D9
:101DC000F8DB01AB01202246C0430D99C046C04656
:101DD00000280ADA401C06D10B98002803D0002006
:101DE000C0430FB0F0BD0A98FBE7E90702D10A999A
:101DF000491C0A91361800200B9074E6CCCCCC0C10
:101E0000FFFFFF7FF1F7FFFFF7B582B0029C0027CD
:101E10002078641C15460197302802D0002D15D07B
:101E200015E020780127641C782804D0582802D0B7
:101E3000002D09D00BE0002D01D0102D07D1002777
:101E400010252078641C02E0082500E00A25002601
:101E5000009610E00099012769430818020C2946F2
:101E600080B2714300908E183804864201D301205D
:101E700001902078641C2946FFF70AFD0028E9DA62
:101E80000398002805D0002F01D0641E00E0029CBA
:101E900004600198002806D003F044FC0221016090
:101EA000C81E05B0F0BD009930040843F9E70000F2
:101EB000F0B5154F8446412B04D0422B04D0134C6F
:101EC000002513E0124CFBE7124CF9E76046405D39
:101ED00044400026E00702D064087C4000E064082B
:101EE000761CF6B2082EF5D36D1CEDB29542EDD3FB
:101EF000E0B2220A08704A70422B04D1FF235840F6
:101F000008705A404A70F0BD08840000595900001A
:101F100063630000FFFF000010B5064C2068C00797
:101F200007D005484168491C416000F007F80120CE
:101F3000206010BD00000140DC0000100248416834
:101F4000491C4160704700005403001010B5102078
:101F500004F0C4FD104910208862062004F0BEFD84
:101F60000E4C00220121204604F0C0F9022201217A
:101F7000204604F0C8F90121204604F08CF90849F4
:101F80002003086007490020087048608860C86026
:101F90000861087510BD00000040044000000250B8
:101FA00000E100E05403001005480078800706D5E2
:101FB00004484168002902D04168491E41607047C9
:101FC000D6000010E4000010F8B500256846057042
:101FD00001F088FF68460078002838D01C4E1D4F5D
:101FE000307881070BD57968002908D1C00705D161
:101FF00000F06AFB0021062001F04CFA3570164C07
:10200000207D002823D025756068E06001211348F9
:1020100004F04AF90028F9D06068E168401AE060ED
:10202000656001F005FC01F0F3FF002805D001F028
:10203000EFFF2169884209D102E0206902F0E8F946
:102040000748786030780221084330702561F8BD78
:10205000D6000010E40000105403001000000250ED
:10206000B80B000010B5074C0121204604F026F9FA
:10207000002806D00449012008750146204604F0D6
:1020800001F910BD0000025054030010F8B50446D9
:1020900016460F460F4D684602F078F9002012E010
:1020A000395C009A514000910021009AD30702D078
:1020B00052086A4000E05208491CC9B2009208293F
:1020C000F3D3401CC0B2B042EAD300982070000A9B
:1020D0006070F8BD0496088410B5124912480A8849
:1020E0004B88521E934207DD8278521E1206120E52
:1020F00082700DD000224A804A8813051B0EC05CF6
:1021000013075C0F8023E340184203D0002002E055
:10211000FF2010BD0120D30701D001235840521CDD
:102120004A8010BD20010010C805001004A003F073
:10213000B1FA7D20C00004F003F800F065FB000058
:10214000486172644661756C745F48616E646C6569
:10215000720D0A0010B5102004F0C0FC0648016999
:102160000161062004F0BAFC0520002201210007CD
:1021700004F0BCF810BD00000040044010B500F0B1
:102180000CF800F027F8012804D0032801D102F050
:1021900073FA10BD00F01EF910BD10B50524240718
:1021A0000121204604F080F801280ED001212046AC
:1021B00004F07AF8002808D1502003F0C1FF012173
:1021C000204604F071F8002801D0002010BD012045
:1021D00010BD0000F8B51C4C00212278042703250F
:1021E0000226130003F091FA0504080F1C2B2E00A1
:1021F000012827D1207025E0012822D1267002F085
:102200006DF960601EE001281BD102F067F90146FC
:10221000606802F05DF90D4988420ED8267011E021
:1022200001280ED102F05AF90146606802F050F917
:102230000749884201D9277004E0257002E001288F
:1022400000D021702078F8BDF0000010B80B00001D
:102250008813000010B5084C01220421204604F028
:1022600037F801220521204604F032F8012203212B
:10227000024804F02DF810BD00000150000003508A
:1022800010B51F48817800291CD041784A1E427041
:1022900018D264214170C17800290FD00021C1708B
:1022A0008178491E817001781648174C0B0003F0A5
:1022B0002CFA07090A0D1013162109000121C1701B
:1022C000FFF7C8FF10BD0022042110E00022052105
:1022D0000DE00022032109E0002205210CE000228C
:1022E0000421044603F0F4FF00220521204603F0F8
:1022F000EFFF10BD0022042103F0EAFFE9E7000030
:10230000F8000010000001500000035010B510202C
:1023100004F0E4FB1148426910210A434261026A59
:102320000A430262C26A0A43C262062004F0D6FB74
:102330000B4C01220421204603F0D8FF0122052185
:10234000204603F0D3FF01220321064803F0CEFF0D
:102350000321012000F008F810BD00008040044077
:10236000000001500000035070B504461648827802
:10237000002A23D104708170FFF76CFF1348144DBD
:10238000230003F0C2F9071B05080B0E111C1B00EC
:102390000022042110E0002205210DE0002203218B
:1023A00009E0002205210CE000220421054603F08B
:1023B0008FFF00220521284603F08AFF70BD00220E
:1023C000042103F085FFE9E7F80000100000015048
:1023D0000000035010B50548012101700449C18077
:1023E00000221146062000F043F910BDFC00001049
:1023F0003075000010B500221146022000F038F9B7
:1024000010BD000010B586B0002000900190029031
:1024100003900490102004F061FB2B480268102107
:102420000A43026082680A438260426A0A43426247
:10243000062004F053FB254C00220621204603F021
:1024400055FF01220021204603F050FF0122082100
:10245000204603F04BFF00221146204603F038FFD0
:102460001B4CC1202070684601F00CFE694688783C
:10247000184AC978000180183039084360706946ED
:10248000087949790001801830390843A0706946FD
:102490008879C9790001801830390843E07004A8B0
:1024A00001F04CFF211D0498FEF7BBFE21460931C7
:1024B00008464938FEF7B5FE214618310846583817
:1024C000FEF7AFFE06B010BD004004400000025011
:1024D000AC03001000FDFFFF10B5002211460120E3
:1024E00000F0C6F810BD000070B592B040216846FB
:1024F000FEF72DFE4021684601F0EEF9002801D0DC
:10250000012838D10B2269464848FEF707FE4748A4
:102510000B300646FEF77BFE02A935220331FEF79B
:10252000FDFD424D424CA87A4006400E052802D1DE
:102530002078012803D0608800281CD115E00620EF
:1025400002F066FB03210520FFF70EFF00210B20A0
:1025500000F0A0FF0322E91C11A8FEF7DFFD11988F
:1025600001F0D8FE002020704EE07D200001608048
:10257000A878FC2802D0012012B070BD0322E91C0B
:1025800011A8FEF7CBFD119801F0A8FE012810D08C
:1025900003210520FFF7E8FEA87A4006400E172821
:1025A0003AD00ADC04282FD007280DD008282BD1D8
:1025B0002CE020A003F06EF8DDE718282ED01D28AF
:1025C00027D01E2820D12BE01E480122017811437C
:1025D00001701D48A0803046FEF719FE037842784E
:1025E0001AA110A803F066F8A87AC00903D0002148
:1025F000082000F04FFF10AC17A0611C03F04AF850
:10260000611C052000F046FF0020B5E700210620F0
:10261000F8E700210720F5E712A002E012A000E091
:1026200012A00068119011A90420EBE7B903001073
:10263000FC000010B8C3CBF8CEB4B9D8C1AA0D0ABB
:1026400000000000D600001010270000253032786E
:10265000253032780000000020257320BFAACBF877
:102660000D0A0000320000003100000033000000BD
:1026700070B5134D16460C00287207D02846093055
:10268000FEF7C5FD32462146FEF748FD14223146CD
:102690000B4801F0C7F9002211460A4803F018FE62
:1026A0002C46281DFEF7B3FD211D401CFEF7B9FD89
:1026B00001F002FE03210520FFF756FE70BD000069
:1026C000AC0300100000025010B500221146192082
:1026D000FFF7CEFF10BD10B5002211461E20FFF7F8
:1026E000C7FF10BD0F484188002902D04188491E0C
:1026F00041800D4A1178CB0709D08388002B03D085
:102700008188491E818002E0490849001170C18812
:10271000002906D0C188491EC180C188002900D186
:1027200001707047FC000010D600001030B5521E3A
:10273000D2B2845C8B5C9C4204D11546521ED2B24C
:10274000002DF6D19C4201D1002030BD9C4201D920
:10275000012030BD022030BD10B5002303E0CC5C69
:10276000C4545B1CDBB29342F9D310BDC106C90E41
:1027700001208840014908607047000000E100E046
:102780008307FF22DB0E9A408907090E9940002833
:102790000BDA0007000F0838830808489B00181858
:1027A000C36993430B43C3617047830804489B008C
:1027B0001B181868904308431860704700ED00E04C
:1027C00000E400E08307FF22DB0E9A408907090E30
:1027D000994000280BDA0007000F083883080848E2
:1027E0009B001818C36993430B43C3617047830868
:1027F00004489B001B1818689043084318607047F2
:1028000000ED00E000E400E0BFF34F8F0349024811
:10281000C860BFF34F8FFEE70400FA0500ED00E04B
:10282000BFF34F8F03490248C860BFF34F8FFEE7E5
:102830000400FA0500ED00E0BFF34F8F03490248A2
:10284000C860BFF34F8FFEE70400FA0500ED00E01B
:1028500070B51D4CA07B002833D020460A30FEF70F
:10286000D6FC00282DD1022000F024FC0026174DB4
:10287000002811D000210120FFF776FDA11D0020C6
:10288000FEF7CFFCA6732878411C29701E2810D3B0
:1028900002F000FEFFF7C4FF00210320FFF764FDF4
:1028A0002078002801D100F013F8A6732E700020C4
:1028B00070BD05212878FEF71BFC002901D100F02E
:1028C0002DFE012070BD00004C020010D000001051
:1028D00000B589B0684600F0A5FA6846007833284C
:1028E00007D100A80130FEF792FC02F09BF9002806
:1028F00000D0012009B000BD0249CA7B8243CA73DF
:10290000704700004C02001010B504000DD000F01C
:1029100089FA207833280AD00848FEF778FC014667
:1029200007A002F0A5F9002803D0012010BD002067
:1029300010BD204600F076FAF9E700005D020010B5
:102940003131312E3230362E34352E313200000006
:10295000F0B5044689B015460E460C30FEF757FC1C
:10296000074620216846FEF7F2FB002C39D0002EE6
:1029700037D0002D35D0002F33D03A213846FEF71E
:1029800011FC441C2DD03B212046FEF70BFC021B02
:1029900021466846FEF7C2FB324613A16846FEF7A1
:1029A00049FC3B212046FEF7FDFB401C040018D0EB
:1029B00007220EA1FEF715FC002802D0002009B066
:1029C000F0BD3A212046FEF7EDFB441C09D03B2127
:1029D0002046FEF7E7FB021B21462846FEF79EFB3A
:1029E000ECE70120EBE700002564000063746C4411
:1029F00061746100F3B583B000262A4F0498FEF796
:102A0000DBFB84B23946C81FF938FEF70AFC391DD2
:102A1000CD1FFD3D681CFEF704FC394608310290CD
:102A20000191A81CFEF7FDFB39460C31281D0091D1
:102A3000FEF7F7FBFF2101312846FEF788FB022154
:102A40002970029803990170039D0198FEF7DFFB3E
:102A50000480E0B26840250A45400098FEF7D7FBA5
:102A600022460499FEF75AFB03E00498805D454036
:102A7000761CA642F9D30098FEF7C9FB3946001927
:102A800010310C46FEF7CDFB05702046FEF7BFFB6C
:102A900039461431401CFEF7C4FB0321017005B018
:102AA000F0BD000034020010F8B50446002000908C
:102AB000002C30D0FF2101311948FEF748FB694650
:102AC000174802F05BFC002825D121461448FEF788
:102AD000A8FB134D287802281DD1211D681CFEF784
:102AE000A0FB21460831A81CFEF79BFB06462146A9
:102AF0000C31281DFEF795FB014630880818214649
:102B00001031FEF78EFB21461431401CFEF789FB85
:102B10000078032801D00120F8BD0020F8BD000096
:102B200034010010F0B5E1B00446202131A8FEF7D1
:102B30000EFB002006462C902A9005462B9005207F
:102B400040032D903A212046FEF72CFB441C2C21FB
:102B50002046FEF727FB0746021B214631A8FEF759
:102B6000DDFA2BAA67A131A8FEF764FB18A9013191
:102B70002B98FEF756FB3A213846FEF713FB441C10
:102B80002C212046FEF70EFB021B19A8214601301E
:102B9000FEF7C4FA01F0E4FDFFF79AFE5A4C04F088
:102BA00093F8A01DFEF733FB002832D12296A11D19
:102BB00056482396FEF735FB52A122A82C9A02F024
:102BC00079FD0120309022AF802139A8FEF7BFFAAD
:102BD000207C002819D004E004F076F8642003F08B
:102BE000AFFA59A8FFF790FE0128F5D03A4639A868
:102BF000309900F0A7FC39A90420FFF7FBFE59A883
:102C00000130FEF704FB00F0C7FB6D1CEDB2142D84
:102C100076D224A8FFF748FF0128C0D02598007875
:102C2000042804D0A11D0020FEF7FBFAB7E73A21E3
:102C30002798FEF7B7FA401CF4D000783228F1D17B
:102C400033A12798FEF79AFA0028EBD03A21FEF735
:102C5000A9FA401C2C212390FEF7A4FA0700E1D02A
:102C6000202131A8FEF773FA23983A1A014631A8B9
:102C7000FEF754FA2AAA23A131A8FEF7DBFA2A9913
:102C80002C988142CED17F1C2C2138462297FEF70A
:102C900089FA0700C6D0202131A8FEF758FA2298F9
:102CA0003A1A014631A8FEF739FA2AAA15A131A825
:102CB000FEF7C0FA19A002F0EDFC781C2A9A2D99B3
:102CC00001F05BFD2C982D99401C2C902A98091836
:102CD0002D912B99081A2B9001D00025A2E70021F5
:102CE0000C2000F0D7FB012069460870FFF7F0FDCB
:102CF000684601F04EFD642003F022FAFFF790FDD4
:102D000061B0F0BD256400004C02001010270000E7
:102D1000757064617465446174613A002E0000004E
:102D200030B58BB005460024202102A80A94FEF796
:102D30000EFA28460C30FEF76AFA0078312815D0D2
:102D400002AA0AA92846FFF703FE01280ED00A9915
:102D50002F480B0002F0D9FC0D0A080C0E151C239D
:102D60002E354C5053580A00012101700BB030BD74
:102D70000470FBE701F0BEFA0028F7D1FFF7A4FCCE
:102D8000F4E701F0B7FA0028F0D1FFF7A4FCEDE773
:102D90006846007A3038C0B201F0ACF8E6E701F0DE
:102DA000A9FA0028E2D102A91AA002F073FCFFF7E9
:102DB00093FBDBE701F09EFA0028D7D1FFF71AFB5F
:102DC000D4E702AC684601F0C3FA6946087A087095
:102DD000312808D1A01CFEF7F0FA7D21C900484334
:102DE000E11FFEF71EFA0199009801F0BBFABDE75A
:102DF00002A801F0E5FAB9E7FFF7ECFAB6E7002020
:102E000001F0F6FAFFF70CFD02A8FFF78BFEADE725
:102E10004C020010D4B6B3CCBFAACBF8203A202580
:102E2000730D0A0030B5C3B00446FF21013102A87A
:102E3000FEF78DF900200090019002A802F09CF8A6
:102E400000283CD1002C3AD06846007A20706846B1
:102E5000007A332833D13A2102A8FEF7A3F9451CA2
:102E60004078611C3038FEF7DCF9ED1C032229465E
:102E7000601DFEF753F92C212846FEF793F9851CB7
:102E800022212846FEF78EF9421B204629460930AA
:102E9000FEF744F92C212846FEF784F9451C2C2125
:102EA0002846FEF77FF9421B29466846FEF736F9A9
:102EB0006846FEF782FA21461931FEF7B2F943B0AF
:102EC00030BD000010B50F4CA01CFEF7A0F9002883
:102ED00003D0A11C401EFEF7A4F9A01DFEF797F930
:102EE000002803D0A11D401EFEF79BF905480A30BB
:102EF0000446FEF78CF9002803D02146401EFEF759
:102F000090F910BD4C020010F0B5B1B0802101A8BD
:102F1000FEF71DF9402121A8FEF719F900204B4CBE
:102F200000900546074606462070A11CFEF779F979
:102F3000A11D4748FEF775F921460A310020FEF72A
:102F400070F9A673E6732146267411314148FEF7E5
:102F500068F901A801F06CFA01A801F079FA0128DA
:102F600018D1802101A8FEF7F2F801AE02F0D6F9DF
:102F700039A002F08FFB03F0A7FE00F06FFFFFF710
:102F8000FDF8304601F09CFF0028F4D1304601F0F6
:102F90006FFA012721A901A802F02AF821A901A8A6
:102FA00002F07EF9042801D000F016FB2EA002F0FA
:102FB00071FB002F02D0022001F02AFE02F020FB5C
:102FC00001206070207400F0D5F92EA002F062FBA1
:102FD0001F4E03F079FE00F041FFFFF7CFF8A01C71
:102FE000FEF715F900281DD1A11C3046FEF719F98E
:102FF0000098002801D000200AE000F077F80228AD
:1030000002D0002803D004E000F088FA01E001209B
:10301000009028466D1CEDB20F2803D302F03AFA57
:10302000FFF7FEFB00F024F90028D2D1012000F0C8
:1030300041F80028CDD100F039F905210320FFF730
:1030400093F917A002F026FB31B0F0BD4C0200103E
:10305000B80B0000727500005761697420576966EB
:1030600069496E666F0D0A004A6F696E20417020D3
:1030700053756363657373202E2E2E2E2E2E2E2EE7
:103080002E0D0A0057616974204C6F67696E2053DA
:103090006572766572202E2E2E2E2E2E2E0D0A0093
:1030A0004C6F67696E2053756363657373202120CD
:1030B0000D0A00000C490128C97B08D00A490246C4
:1030C000C97B0140022806D0042A0BD106E0C807BC
:1030D000C00F06D006E0022902D103E0042901D086
:1030E00000207047012070474C02001000B5A9B0C5
:1030F00080216846FEF72BF81048007C002816D087
:1031000020A8FFF701FC01280FD0684600F018F84E
:1031100069460120FFF76EFC20A80130FEF777F822
:1031200000F03AF9002804D0022029B000BD0120A7
:10313000FBE7012000F0EAF90020F6E74C0200105E
:1031400010B5BAB0044640216846FEF700F82021C9
:1031500032A8FDF7FCFF002C4DD029A22AA1204661
:1031600002F0A8FA2BA22FA1684602F0A3FA694642
:103170002046FDF7F7FF32A800F084FF40216846A3
:10318000FDF7E5FF32AA2BA1684602F093FA6946E3
:103190002046FDF7E7FF40216846FDF7D8FF01F024
:1031A000A9F8002829D0002225A1684602F082FA59
:1031B00069462046FDF7D6FF40216846FDF7C7FF68
:1031C00010A801F0DEFA10AA013221A1684602F02F
:1031D00071FA69462046FDF7C5FF40216846FDF7B4
:1031E000B6FF18AA01321EA1684602F063FA6946CA
:1031F0002046FDF7B7FF3AB010BD0122D4E700002A
:1032000047414B41544F000076656E49643A25733F
:103210003B00000047464D2D57472D5A57532F3836
:103220002F5700006465764D6F64656C3A25733BDB
:103230000000000064657649643A25733B00000095
:103240006C6F636B5374617475733A25643B000053
:1032500076657273696F6E4E616D653A25733B00DA
:1032600076657273696F6E436F64653A25733B00D0
:1032700000B587B06846FFF717FC01280FD001980A
:103280000078012808D0022802D0032806D108E0DF
:103290006846FFF745FD0220FFF72EFB002007B030
:1032A00000BDFFF715FB0420F6E7000030B5A3B022
:1032B000402102A8FDF74BFF002000900190202143
:1032C00012A8FDF744FF20211AA8FDF740FF02F0E5
:1032D000AFFE04003CD002A801F0AAF8002102A829
:1032E00001F086FE12A801F05FFD1AAA694602A845
:1032F00001F092FD02A802F0A3FE024615A12046AD
:1033000002F080FE684602F09BFE024614A12046B1
:1033100002F078FE12A802F093FE024613A12046A6
:1033200002F070FE1AA802F08BFE024610A12046A1
:1033300002F068FE204602F0C3FE054601460A2060
:1033400000F0A8F8204602F089FE284602F070FF3F
:1033500023B030BD576946694E616D6500000000BD
:103360005769466952535349000000004950000014
:103370004D41430010B500F045FE00280AD001E0A1
:1033800003F0A2FC0021092000F084F80128F7D006
:1033900000F0E6FD10BD000010B504460C48FDF736
:1033A00036FF03880A480B4A1030407821469B1D9F
:1033B00002F0B0F8FF2101310028064803D0FDF7E4
:1033C000C6FE012010BDFDF7C2FE002010BD0000AA
:1033D0003C0200103401001010B594B00020109091
:1033E00011901290139020216846FDF7B0FE224CF8
:1033F000207C002804D0A01DFDF709FF002807D07D
:10340000012014B010BD03F05FFC642002F098FEB0
:1034100008A8FFF779FA0128F5D010A800F032FECD
:1034200010AA16A1684602F045F969460220FFF786
:10343000E1FA022000F06AF80F4913480A31FDF75B
:10344000F0FE0120A07308A80130FDF7E0FEFFF7B1
:10345000A3FF01460D48012907D02278012A08D090
:10346000A11DFDF7DEFE0020CBE7A11DFDF7D9FE73
:10347000C6E7A11D0648F4E74C02001064657649D2
:10348000643A25733B000000C4090000B80B00003B
:103490008813000070B5A8B00D46064600248021B0
:1034A0006846FDF754FE1848007C00281FD004E051
:1034B00003F00AFC642002F043FE20A8FFF724FA80
:1034C0000128F5D02A463146684600F0B5F869462D
:1034D0000320FFF78FFA20AD0CE003F0F5FBC820C6
:1034E00002F02EFE2046641CE4B21E2802D3012006
:1034F00028B070BD681CFDF78AFEFFF74DFF01285C
:10350000EBD00020F4E700004C0200100249CA7B17
:103510000243CA73704700004C02001010B5074800
:103520000446FDF774FE024605482146824201D159
:1035300003485530FDF775FE10BD00005D02001018
:103540007275000070B5A0B00E4605461446802185
:103550006846FDF7FCFD002D1CD00FA212A12846E5
:1035600002F0A8F8324614A1684602F0A3F86946B2
:103570002846FDF7F7FD002C0CD080216846FDF7AA
:10358000E6FD224610A1684602F094F869462846F6
:10359000FDF7E8FD20B070BD47464D2D57472D5A29
:1035A00057532F382F5700006465764D6F64656C54
:1035B0003A25733B00000000757064617465436DCB
:1035C000643A25643B000000757064617465446171
:1035D00074613A25733B000030B5A1B0802101A889
:1035E000FDF7B5FD00200446124D009003F06CFB82
:1035F000012002F0A5FD00F031FCFEF7BFFD2046E2
:10360000641CA8420CD2694601A801F005FF0028FD
:10361000ECD1009901A840182038C07F4B2807D072
:10362000032001F0F5FA642002F08AFDFFF7F8F8B4
:1036300021B030BD204E000070B5A8B00E46054642
:10364000144680216846FDF782FD202120A8FDF761
:103650007EFD002D1FD020A800F014FD20AA0FA190
:10366000284602F027F832460FA1684602F022F8F9
:1036700069462846FDF776FD002C0CD0802168466F
:10368000FDF765FD22460CA1684602F013F8694675
:103690002846FDF767FD28B070BD000064657649D7
:1036A000643A25733B000000616C65727454797054
:1036B000653A25643B000000616C65727444617476
:1036C000613A25733B000000FEB5684600F040FEFD
:1036D00068460078302838D01E4CE0681E4E01271E
:1036E000002500280AD16078012807D10B211B484A
:1036F00002F0DAFD012829D065702570A068002845
:1037000023D16068002820D10B21144802F0CCFDA1
:1037100000281AD06770E6607D26F600A660207843
:10372000401C207000210220FEF71EFE00A8013080
:10373000FDF76DFD3146FDF7DBFC2178884204D8AA
:10374000257000210320FFF7A5FEFEBDE66067702F
:10375000D4E70000040100103075000000000150A3
:1037600009484168002902D04168491E41608168CA
:10377000002902D08168491E8160C168002902D0F9
:10378000C168491EC16070470401001010B51020C7
:1037900003F0A4F90C4881691022114381610620CD
:1037A00003F09CF9094C00220B21204602F09EFDFB
:1037B00000220B21204602F08BFD0648044941609F
:1037C0007D21C900816010BD80400440000001508F
:1037D000983A000004010010014901200860704778
:1037E00000C0004002480068C007C00F70470000DA
:1037F00000C00040024841684908490041607047E4
:1038000000C0004010B508490A6880231A430A60C6
:10381000064901220A600323CB6000248C604B61BF
:1038200088614A6010BD00008080044000C00040F4
:10383000F8B5264D28780026002822D001282CD162
:10384000234C03F041FA287D0028FAD02E756868D1
:10385000E860204F0121384602F026FD0028F9D00B
:103860006868E968401AE8606E60E868142817D351
:10387000E868282814D82078401E2070A0684008E6
:1038800018E0E868FF214131884207D3E868FF214A
:103890005531884202D801202870F8BD2E70F8BD3D
:1038A0002078401E2070A0684008A060A068012118
:1038B000C9050843A06020780028C2D1A06828610B
:1038C0002E7018202070A660F8BD00005403001070
:1038D000E400001000000250F3B59DB007A800F00E
:1038E0005BF9002801D0012837D10024C707224600
:1038F0002146A4462346FF0F384687E0484DAC4298
:1039000078D107ADEE5C8025C5402E420BD001AECC
:10391000755C521C6D0075546D1C755465466D1CAC
:10392000D2B2EDB209E065460E2D6DD001AD6E5CF0
:103930007600521C6E54D2B20025AC46082A63D1E0
:10394000491C0022C9B201295ED06D466D791E9EC8
:10395000AE46B61DB54202D930201FB0F0BDAD1D38
:103960008D4251D16846407902AD415D70466E1C72
:10397000805D01AC4140022006E0225C4A404131BA
:103980002254401CC9B2C0B26A465279121D82420A
:10399000F3D8684640794123C01CC2B26946601C16
:1039A000FEF786FA684601784079425D914204D17B
:1039B00069464978825D914201D02120CDE7401CC3
:1039C000C2B2611C6846FEF761FB6846407901A9F6
:1039D000801CC2B21D98FEF7BFFE68464179801D6B
:1039E000091802226846FEF7A1FE0028B5D0222061
:1039F000B3E7FFE707AD6404EE5C240C8025C54007
:103A00002E4201D0641CA4B2801CC0B2082800D28F
:103A100074E75B1CDBB2542B00D26DE720209CE7DF
:103A2000FEFF000010B500F029F84B200001FFF761
:103A3000E9FE114CFEF750FB01280BD000280FD0F7
:103A400000221146204602F043FCFFF7D3FEFFF7A9
:103A5000C3FE10BDFFF7C6FE0028FBD0012204E024
:103A6000FFF7C0FE0028FBD000220021204602F014
:103A70002FFCFFF7B1FEDDE700000250F8B50E465F
:103A8000434900234B8018230B80424D3146AA70D6
:103A90000931CAB20146AA71E81DFEF75DFE304643
:103AA0000A30C2B2AF1938461030A91DFEF7EEFA3F
:103AB00030460C30C2B2394612314123A81DFEF700
:103AC000F7F9B87CF97C3246484004210F3207E010
:103AD0006B18DF7847404130491CDF70C0B2C9B273
:103AE0009142F5D32B48FF210170FE214170032143
:103AF000002011360D46009641E0264A0023521957
:103B00009646234A1688761CB6B216807246D77837
:103B1000B44680221646DE40374209D01D4E775CFF
:103B20001646C64037431B4E641C7754E4B206E089
:103B3000184C1746665CC740BE4366540024401CC0
:103B4000C0B2082802D10020491CC9B20E2C10D1E5
:103B5000104EC240745C401C944374540C4A64463A
:103B6000641C14800024C0B2082802D10020491C23
:103B7000C9B25B1CDBB2082BC3D36D1CEDB2009A3B
:103B80009542BAD30248018849000180F8BD00007F
:103B900020010010C8050010F1B5692082B0400175
:103BA000FFF730FE374E0621304602F07DFBC4B2EF
:103BB00003E0FFF717FE002818D10621304602F077
:103BC00073FBA042F5D069204001FFF71BFE0025E2
:103BD00002992C460D702B4F0621384602F064FBEB
:103BE000C6B205E0FFF7FEFD002801D0112445E034
:103BF0000621384602F058FBB042F3D022488068D4
:103C000087B269204001FFF7FDFDFF206930874240
:103C100001D2102432E0E120C000874213D9009481
:103C2000002E06D00298415D8020E04001430298BA
:103C30004155641CE4B2082C05D16D1C002002998A
:103C4000EDB248550446002E06D00298415D802012
:103C5000E040014302984155641CE4B2082C05D1B0
:103C60006D1C00210298EDB241550C46542DB2D185
:103C70000098C00701D0012400E00024FFF7BAFD3E
:103C80002046FEBD0000025000C0004070B5054651
:103C9000FDF792FAC4B2082C01D010A00EE0022267
:103CA00017A12846FDF79DFA002801D015A005E0D0
:103CB0000221685C30380A2803D31BA001F0EAFC1B
:103CC00070BD491CC9B2A142F3D3284600F0EAF9FD
:103CD0001CA001F0DFFCFEF7AFFD00000D0A494417
:103CE000204C656E677468204572726F722C204D8F
:103CF0007573742062652038206269740D0A0000B3
:103D0000633100000D0A4944204572726F722C2005
:103D10004D75737420626567696E207768746820DA
:103D2000226331220D0A00000D0A494420457272B7
:103D30006F722C204D75737420626520302D390D03
:103D40000A000000D0F2C1D0BAC5C5E4D6C3B3C9D9
:103D5000B9A60D0A0000000070B504460020002C32
:103D600005D0032903D3215C30390A2902D300F09E
:103D70008DF870BD401CC0B20328F4D320786421B4
:103D80003038484361780A2251430818FF38A17837
:103D9000FF3812380D1821A001F07CFC642D25D0CD
:103DA00006DC012D12D0022D12D0032D06D116E013
:103DB000652D1ED0C82D1FD0C92D2BD0294618A087
:103DC00001F068FC1BA001F065FC70BDFEF734FD3E
:103DD000E078202813D1201DFFF758FFF2E70020DC
:103DE00000F006FB18A001F055FCEFE7FEF774FBAE
:103DF000E8E7FEF7FFFAE5E7E078202804D0294657
:103E000007A001F047FC70BD20793038C0B200F047
:103E1000FFFED7E700F000FFD4E700000D0A000026
:103E20000D0A556E6B6F6E7720636D64203A202506
:103E3000640D0A000D0A687A774047414B41544FA0
:103E4000207E232000000000BBD6B8B4B3F6B3A791
:103E5000C9E8D6C3CDEAB3C90D0A000010B5094CB4
:103E60006088C00B0CD00848FDF7A6F9C1B206481F
:103E7000FFF772FF0020608040210348FDF767F9DB
:103E800010BD0000D20000106102001010B5FFB09C
:103E9000FFB082B001216C4689022046FDF757F938
:103EA00009492046FDF7AAF908492046FDF75AF9C5
:103EB00007A12046FDF756F9204601F0EBFB7FB045
:103EC0007FB002B010BD0000A06D0000E46D0000E6
:103ED0000D0A687A774047414B41544F207E23209A
:103EE00000000000002802D00149897A0170704763
:103EF0004103001010B506498872012000F082FCD1
:103F00000348012170220903603800F0DFFD10BD75
:103F10004103001010B508A10A48FDF754F9002824
:103F200009D109A001F0B6FB02F0CEFEFFF796FF23
:103F3000FEF724F9F8E710BD63313030303030300F
:103F4000000000002B0300104D75737420436F6E4A
:103F5000666967204465766963652049440D0A00F7
:103F600010B5074800218173012000F04BFC044884
:103F7000012170220903603800F0A8FD002010BD67
:103F8000410300107FB506460020184900900190BB
:103F90000290039008220D466846FDF7BFF81348CB
:103FA00070214A38FDF7D3F8104C01204A3C2070AC
:103FB000611CFDF736F904220DA1601DFDF7AEF876
:103FC000204608220CA15A30FDF7A8F820463021DF
:103FD00040304171684600F021F8082269462846C1
:103FE000FDF79CF82046603086737FBD2B030010E0
:103FF0006E756C6C00000000313233343536373862
:10400000000000000148807B704700004103001061
:104010000148C07B7047000041030010F0B585B037
:1040200000240F2507462D030094019402946E4648
:10403000039400F031F9002815D02A780CA13046FD
:104040006D1C01F037FB641CE4B2B61C042CF4D3E5
:10405000684600F021F9002807D0082206A138465A
:10406000FDF75CF8012005B0F0BD08226946F6E7CF
:10407000253032780000000063313030303030308D
:104080000000000070B5040008D005480546FDF7A3
:1040900093F8024629462046FDF740F870BD00001F
:1040A0002B03001070B5040016D00C4810210546F3
:1040B000FDF74DF82046FDF77FF8024621462846D9
:1040C000FDF72CF8012000F09DFB0448012170222F
:1040D00009034A3800F0FAFC70BD00002B03001001
:1040E00070B501263603A2B0702231462E4800F08A
:1040F00039FC2D4C207825464A35012806D0012070
:1041000000F080FB0020FFF73DFF06E02846FFF7A8
:1041100085FF012806D100F075FB70223146224848
:1041200000F0D4FC684600F02CFB20A001F0B2FAAD
:10413000601CFDF76CF8014624A001F0ABFA611D8C
:1041400026A001F0A7FA18484630FDF760F80246AD
:10415000154840304079312824D024A125A001F011
:1041600099FA294628A001F095FA0F492BA05A3157
:1041700001F090FA0C4C2EA06034A17A01F08AFA7A
:10418000637B227BE17A2FA001F084FA00A908AAC0
:1041900033A00131013201F07DFA35A001F07AFA45
:1041A00022B070BD3AA1D9E7E10200102D2D2D2DCE
:1041B0002D2D2D2D2D53797374656D20496E666FED
:1041C0002D2D2D2D2D2D2D2D2D0D0A004C6F636BBA
:1041D000536E72203A20256C640D0A005769666997
:1041E000496E666F3A202573200D0A00636C6F7369
:1041F000650000004D6320496E666F203A202573EC
:104200002C20256C640D0A0053797374656D204968
:1042100044203A2025730D0A00000000576972659A
:104220006C65737320507764203A2025730D0A0063
:1042300053797374656D204246203A2025640D0A37
:10424000000000004C6F636B204944203A20253069
:1042500032783A253032783A253032780D0A00002B
:10426000566572203A2025732C25730D0A00000034
:104270002D2D2D2D2D2D2D2D2D2D2D2D2D2D2D2D6E
:104280002D2D2D2D2D2D2D2D2D2D2D2D2D0D0A00CE
:104290006F70656E000000000178632904D1012170
:1042A000425C303A0A2A01D301207047491CC9B246
:1042B0000829F5D30020704710B50749FCF7B1FF76
:1042C000012000F09FFA0448012170220903401EDA
:1042D00000F0FCFB10BD0000E202001001B503225B
:1042E00003496846FCF77DFF002800D0012008BD87
:1042F0004C03001008B500200090032204496846D2
:10430000FCF76FFF002801D0002008BD012008BD88
:104310004C03001001B5032269460748FCF7FEFE76
:10432000012000F06FFA04480121702209036B3864
:1043300000F0CCFB08BD00004C03001010B50400D9
:1043400003D00248FCF763FF206010BDE2020010BA
:1043500010B5002803D005220149FCF7DFFE10BD8F
:104360002603001013B5052269460748FCF7D6FE60
:10437000012000F047FA0448012170220903453862
:1043800000F0A4FB1CBD00002603001010B50022A5
:10439000002811D009490368521C1B0103600C78E6
:1043A000D2B2303C23431B0103604C78891C303C63
:1043B00023430360042AEED310BD00003B0300102A
:1043C00010B5040010D0FCF7F7FE0246214607485E
:1043D000FCF7A4FE012000F015FA04480121702228
:1043E00009035A3800F072FB10BD00003B030010B7
:1043F00010B5FFF7C7FD012000F004FA012170227B
:104400000903024800F062FB10BD0000E102001049
:1044100010B50649C873012000F0F4F903480121E2
:1044200070220903603800F051FB10BD41030010F9
:1044300070B5050008D0054C601DFCF7BDFE0246B6
:10444000611D2846FCF76AFE70BD0000E102001005
:1044500010B5042204A1FCF7C4FE002801D00020FE
:1044600010BD012010BD00006E756C6C00000000D6
:1044700070B5040015D00B4D4021681DFCF767FE98
:104480002046FCF799FE02462146681DFCF746FED1
:10449000012000F0B7F9012170220903284600F03D
:1044A00015FB70BDE102001010B508480168491CF9
:1044B0000160FDF779FDFFF753F9FEF703FDFEF705
:1044C00011F900F0F5F8FDF7DBFE10BDDC0000107F
:1044D0000246881A914200D2401E70470148006887
:1044E00070470000DC00001010B57D20C00002F015
:1044F00025FB024801F0FEFD10BD0000409C0000BD
:1045000070B5354D0020696AC905090F0B0001F02F
:10451000FCF81026090B0D0F11131517191B1D1F81
:10452000212325262D481AE02D4818E02D4816E0B5
:104530002D4814E02D4812E02D4810E02D480EE0E3
:104540002D480CE02D480AE02D4808E02D4806E0F3
:104550002D4804E02D4802E02D4800E02D48696A0E
:10456000C906890E891CFCF7C3FD1B4A4032116B3A
:104570002A4C8E072849B60F1ED00023012E04D0E6
:10458000022E0DD0032E21D10CE010688007800F81
:1045900012D0012810D0022817D0032816D114E019
:1045A000206013E010688007800F01D00128F2D14D
:1045B000A868C005800F01D0216007E0A8681649EF
:1045C000C006C00E401C4843EAE72360916B206898
:1045D000FCF78EFD206070BD00800440C0270900FC
:1045E00090051000C05C1500F0B31A00200B2000ED
:1045F000009F2400E0322900C0C62D0050973100F2
:10460000E06735007038390000093D004016400071
:1046100080234300C0304600001BB700C0000010DC
:1046200070B5134800220260012141604260416080
:104630004368DB07FCD00E4B2324403B9C600D4CB1
:10464000A56B8026B543A563DC68E407FCD0032393
:104650000363416342634163426BD207FCD08163D1
:10466000034840300168012212041143016070BD0B
:104670004080044000820440052000F0C9FA002177
:104680000920FEF707FF002800D00120FFF7B0FE49
:104690007D20C00001F054FDBFF34F8F0349024855
:1046A000C860BFF34F8FFEE70400FA0500ED00E09D
:1046B00003480168002902D00168491E0160704763
:1046C000D800001010B512488168C9070CD10068E5
:1046D000104CC1B20D2908D00A2906D020780E4A04
:1046E0001218401C2070117010BD20780121C903E0
:1046F000401860802278084908464038FCF70EFDD3
:1047000040210548FCF723FD0020207010BD00006B
:1047100000800040D2000010A102001008B5002067
:10472000694608700C48006808700C48007800283A
:1047300009D001280BD0022804D0032802D1087820
:1047400000F04EFD08BD087800F0F6FC08BD0878C2
:1047500000F0AAFC08BD0000004002401401001057
:1047600070B5002405256D0320034019000B00F0EF
:1047700049F8641C642CF7DB70BD10B500F0A6F995
:1047800010BD10B5002803D08522002100F0EAF802
:1047900010BD10B5040007D0002000F033F88522CA
:1047A0000021204600F092F910BDF0B5A3B00C46F0
:1047B000050024D0002C22D085220021684600F07C
:1047C000D1F86E462021701CFCF7C1FC08A801300E
:1047D00040210746FCF7BBFC2846FCF7EDFC0246EF
:1047E0002946701CFCF79AFC2046FCF7E5FC0246C3
:1047F00021463846FCF792FC6846FFF7CAFF23B013
:10480000F0BD000070B5040300F004F9012820D0C9
:10481000062000F047F90F4D00220221284601F042
:1048200057FD202000F076F82002000E00F072F80C
:104830002004000E00F06EF8002000F06BF801225A
:104840000221284601F044FD00F0E4F8012800D0E0
:10485000002070BD0000025070B5102002F03EF93B
:104860001C48C26910210A43C261826B11231A439A
:104870008263026A0A430262426A0A434262062073
:1048800002F02CF9144C01220221204601F02EFDE9
:1048900001220021114801F029FD05252D070022E4
:1048A0000821284601F022FD01220921284601F0B5
:1048B0001DFD00220221204601F00AFD00F084F8CF
:1048C000002802D00649884201D1012070BD002095
:1048D00070BD000040400440000002500000015044
:1048E000FFFF000070B50A4D00220221284601F0AA
:1048F000EFFC052000F00EF8FF2000F00BF8044656
:1049000001220221284601F0E3FCE007C00F70BD40
:1049100000000250F8B50026114F0546344600222B
:104920001146384601F0D4FC0520EA0909210007A8
:1049300001F0CEFC6806050E01220021384601F088
:10494000C7FC052076000821000701F0ADFC3043CC
:10495000641CE4B2C6B2082CE1D33046F8BD0000B6
:1049600000000150F8B515460E46044600F052F816
:10497000012825D0134F00220221384601F0A8FC5F
:104980000320FFF7C7FF3002000EFFF7C3FF30041C
:10499000000EFFF7BFFFF0B2FFF7BCFF04E0FF20FF
:1049A000FFF7B8FF2070641C6D1EF8D201220221AF
:1049B000384601F08DFC00F02DF8012800D00020D1
:1049C000F8BD00000000025070B5114E0022022117
:1049D000304601F07DFC9020FFF79CFF0020FFF7A0
:1049E00099FF0020FFF796FF0020FFF793FF0020BC
:1049F000FFF790FF05020020FFF78CFF28430446D5
:104A000001220221304601F063FC204670BD000007
:104A10000000025008B508480090401E009008D0E1
:104A2000FFF760FF00280098F7D1002801D0002090
:104A300008BD012008BD0000FFFF0000F8B51546C5
:104A40000E460446FFF7E6FF012827D0062000F0B7
:104A500029F8134F00220221384601F039FC0220C8
:104A6000FFF758FF3002000EFFF754FF3004000E2E
:104A7000FFF750FFF0B2FFF74DFF03E02078FFF79C
:104A800049FF641C6D1EF9D201220221384601F053
:104A90001FFCFFF7BFFF012800D00020F8BD000079
:104AA0000000025070B5084C054600220221204645
:104AB00001F00EFC2846FFF72DFF012202212046BF
:104AC00001F006FC70BD000000000250F8B514466D
:104AD0000E4607463119300A090A884204D0FF20E1
:104AE000F1B20130451A00E025462A4631463846E3
:104AF000FFF7A4FF002803D17F197619641BE9D1C1
:104B0000F8BD0421BF2005E00A46491EC9B2002AAB
:104B1000FAD10321401EF7D2704704218B20800078
:104B200005E00A46491EC9B2002AFAD10321401EF7
:104B3000F7D2704710B5102001F0D0FF0C48426842
:104B400010210A43426082680A438260062001F015
:104B5000C5FF01220521074801F0C8FB00220521FD
:104B6000054801F0C3FBE72000F008F810BD000085
:104B7000404004400000025000000350F8B5224FAE
:104B8000064600220521384601F0A2FB1F4C0521F4
:104B900001E0401EFDD20846491EC9B2002801D0DE
:104BA000A01EF6E7002501220521384601F090FB02
:104BB000F00709D0FFF7B1FF00220521384601F0C8
:104BC00087FBFFF79EFF08E0FFF79BFF0022052110
:104BD000384601F07DFBFFF7A0FF6D1C7608EDB2B3
:104BE000082DE0D301220521384601F071FB222077
:104BF0002146641EFDD20246401EC0B2002A01D0EA
:104C00008C1EF6E7F8BD00000000025024130000DF
:104C100010B5FFF7B3FF10BD10B5FE20FFF7AEFFD4
:104C200010BD000010B5C0B00446FF210131684638
:104C3000FCF78DFA224609A1684600F03BFD684664
:104C4000FCF7BAFA0146684600F056FC684600F0E8
:104C5000FDFC002800D0022040B010BD41542B4381
:104C60004950434C4F53453D25640D0A0000000058
:104C700030B5C1B00D460446002069460870FF21DA
:104C8000013101A8FCF763FA002C07D0684600F058
:104C9000D3FA002804D0032041B030BD0120FBE747
:104CA000684600782B460128224611D009A101A8A8
:104CB00000F000FD01A8FCF77FFA014601A800F012
:104CC0001BFC01A800F0C2FC0028E5D00220E3E7AD
:104CD00007A1ECE741542B43495053544152543DF2
:104CE00022544350222C222573222C25640D0A00C5
:104CF00041542B43495053544152543D312C22547A
:104D00004350222C222573222C25640D0A0000001A
:104D100030B5C1B00546FF2101316846FCF717FAEE
:104D2000002D13D019A21CA1684600F0C3FC6846F0
:104D3000FCF742FA0146684600F0DEFB684600F0E8
:104D400085FC002804D0022041B030BD0120FBE7E3
:104D50003F216846FCF726FA042211A1401CFCF70B
:104D600040FA002810D03A216846FCF71BFA841C50
:104D70002C212046FCF716FA021B21462846521E1B
:104D8000FCF7CCF90020DFE70320DDE741542B439B
:104D9000574A41503F00000025730D0A00000000F3
:104DA0004E6F41500000000030B5C1B00546FF21F4
:104DB00001316846FCF7CBF912A215A1684600F054
:104DC00079FC6846FCF7F8F90146684600F094FB68
:104DD000684600F03BFC002802D0022041B030BD04
:104DE00022216846FCF7DEF9441C22212046FCF70C
:104DF000D9F9002D04D0021B21462846FCF78EF974
:104E00000020EBE741542B43494653520000000079
:104E100025730D0A00000000F0B50E46C1B004462F
:104E2000FF21154601316846FCF791F9002C17D097
:104E3000002E15D0002D13D022461CA1684600F08C
:104E400039FC6846FCF7B8F90146684600F054FBA7
:104E5000684600F0FBFB002804D0022041B0F0BD02
:104E60000120FBE73A216846FCF79CF92C21FCF76E
:104E700099F92C21401CFCF795F9441C2C21204663
:104E8000FCF790F90746021B21463046FCF746F92D
:104E9000BC1C2C212046FCF785F9411E0A1B21462B
:104EA0002846FCF73BF90020D8E7000041542B438B
:104EB000574C41503D222573222C22220D0A00001E
:104EC000F1B588B01C2101A8FCF741F92248234C18
:104ED000006800902089C00B39D02078032836D193
:104EE00020894004400C2081208900282FD0089878
:104EF00000282CD01AA11C48FCF740F9471D1BA123
:104F00001948FCF73BF9851E0026002F21D0002D03
:104F10001FD0EA1B39460898FCF700F90B350D2124
:104F20002846FCF73FF9421B00A829460130FCF750
:104F3000F5F869460898FCF715F92681FF2101313B
:104F40000948FCF704F92670002009B0F0BD0320E1
:104F5000FBE72670FBE70000146D00001401001051
:104F6000535349443A000000C804001050415353C1
:104F7000574F52443A00000030B5C1B00546FF21FA
:104F800001316846FCF7E3F812A216A1684600F06A
:104F900091FB6846FCF710F90146684600F0ACFA50
:104FA000684600F053FB002802D0022041B030BD1B
:104FB000002D0DD03A216846FCF7F4F8441C0BA1F3
:104FC0006846FCF7DBF8021B21462846FCF7A6F8EA
:104FD0000020EBE741542B4349505354415455535F
:104FE0000000000025730D0A000000004F4B000078
:104FF00070B50E4690B005462C21FCF7D3F8044658
:1050000040216846FCF7A3F8002E03D0611C30460F
:10501000FCF7F4F8621B29466846FCF77FF828463F
:10502000FCF7CAF801462846FCF791F8694628467D
:10503000FCF7E4F810B070BD10B5102001F04EFD83
:105040001648026813210A4302601448C038826976
:105050000A438261026A10210A430262C2690A435A
:10506000C261062001F03AFD012207210C4801F03F
:105070003DF9052001220221000701F037F9E12066
:10508000400201F0C5FD074801F05AF8312000F058
:1050900085FA002800D0032010BD0000C040044065
:1050A00000000250B80B000010B520283ED00028A8
:1050B0003CD00D283AD00A2838D02B2836D01C4CAA
:1050C000A2881C498B18521CA2801870A08808184E
:1050D0002038C07F4B2805D1A08808182038807F51
:1050E0004F2811D0A08808182038C07F52281DD121
:1050F000A08808182038807F4F2817D1A08808186A
:105100002038407F522811D1A0880121C9030843CB
:105110002081A2880749C81DF930FBF7FFFF002056
:10512000A080FF2101310348FCF711F810BD0000F9
:1051300014010010C8030010F8B5274C6178012352
:10514000002501291ED12549A2888854A278002A69
:1051500015D13A2813D1A370091D0DE02C2A14D0C3
:1051600066890A277E4366816689303E921962818C
:10517000E278521CE270491C0A783A2AEED1A188E2
:10518000491CA1802B2802D004E06581F0E76078FB
:1051900000281FD06089E1784018A188401D88420E
:1051A00017D1A078012814D16570A0880121C90306
:1051B00008432081A2880949C81DF930FBF7AEFFDA
:1051C000A580FF2101310548FBF7C1FF6581A5706E
:1051D000E570F8BD6370F8BD14010010C80300103D
:1051E00010B5134CA188134A5318491CA18018709C
:1051F000A08810182038C07F4B2817D1A08810181D
:105200002038807F4F2811D1A0880121C90308438D
:105210002081A2880749C81DF930FBF77FFF0020D5
:10522000A080FF2101310348FBF791FF10BD000072
:1052300014010010C803001010B5C0B00446FF21CF
:1052400001316846FBF783FF002C13D00FA212A197
:10525000684600F02FFA6846FBF7AEFF0146684645
:1052600000F04AF9684600F0F1F9002804D0022065
:1052700040B010BD0120FBE73A216846FBF792FFE2
:105280004078303820700020F2E7000041542B4372
:1052900049504D55583F000025730D0A000000008D
:1052A00030B50D46C9B00446FF2101316846FBF711
:1052B0004EFF202140A8FBF74AFF002C07D0002D0D
:1052C00005D040A8FFF724FD002803D008E0012006
:1052D00049B030BD214640A8FBF775FF00280ED02D
:1052E0002B46224607A1684600F0E4F96846FBF722
:1052F00063FF0146684600F0FFF80020E8E704205D
:10530000E6E7000041542B43574A41503D222573A4
:10531000222C222573220D0A0000000000B5C1B026
:10532000FF2101316846FBF712FF0CA210A168466D
:1053300000F0C0F96846FBF73FFF0146684600F001
:10534000DBF8684600F082F9002802D0022041B064
:1053500000BD0949032008700020F8E741542B43A1
:1053600057534D41525453544152543D3100000063
:1053700025730D0A0000000014010010F3B5234C42
:1053800081B020890D46C00B02D02078002801D0C2
:105390000320FEBD20894004400C208103221CA173
:1053A0001C48FBF71EFF0026002825D13A2119488A
:1053B000FBF7F8FE17492289401A401C171A091DED
:1053C000002D0BD10DE02C281ED028680A22504356
:1053D00028600A78801830382860491C08783A28F4
:1053E000F1D13A210B48FBF7DDFE411C0198002862
:1053F00002D03A46FBF792FE2681FF210131054893
:10540000FBF7A5FE0020FEBD2E60E6E714010010AC
:1054100049504400C8040010F3B581B001980E460D
:1054200000280AD0002E08D0174C2089C00B02D0CB
:105430002078012803D00320FEBD0120FEBD208975
:105440004004400C20812089306003220FA11048C5
:10545000FBF7C7FEFF270025013700280CD00C49B9
:1054600032680198FBF75AFE258139460848FBF758
:105470006EFE25700020FEBD258139460448FBF7ED
:1054800066FE2570D7E70000140100104950440063
:10549000C804001030B5C1B0FF2101316846FBF7E8
:1054A00056FE10A211A1684600F004F96846FBF709
:1054B00083FE0146684600F01FF8684600F0C6F813
:1054C000002802D0022041B030BD0A4D02202870D1
:1054D000FF242C340A2000F033FE641EFAD2002090
:1054E0002870F0E741542B525354000025730D0AE5
:1054F000000000001401001010B5044A01231370CD
:10550000034BD38089B201F0CBFB10BD1401001016
:1055100088130000F0B50F46C1B00446FF211D46B8
:10552000164601316846FBF712FE012C11D02A46BF
:1055300011A1684600F0BEF86846FBF73DFE014643
:105540006846FFF7D9FF684600F080F8002810D1C0
:1055500006E02B463A460CA1684600F0ABF8EBE7B4
:1055600029463046FFF7C8FF684600F06FF800286C
:1055700000D0022041B0F0BD41542B434950534567
:105580004E443D25640D0A0041542B434950534578
:105590004E443D25642C25640D0A000030B5FFB053
:1055A000FF2482B00546013421466846FBF7CFFD53
:1055B000214640A8FBF7CBFD03242A460CA16846F0
:1055C00000F078F80BE06846FBF7F6FD0146684608
:1055D000FFF792FF40A800F039F8002805D02046D8
:1055E000641EE4B20028EED103207FB002B030BDCB
:1055F00041542B43574D4F44453D25630D0A000050
:1056000000B5C1B0FF2101316846FBF7A0FD0AA239
:105610000CA1684600F04EF86846FBF7CDFD014648
:105620006846FFF769FF684600F010F8002800D0D0
:10563000022041B000BD000041542B4349504D555C
:10564000583D310025730D0A00000000F8B5002612
:1056500004460096002813D00D4D01F035FBE88874
:10566000002811D069462046FFF7D6FE0028F4D165
:10567000009820182038C07F4B2803D00320F8BDA5
:105680000120F8BD0020F8BD2E700220F8BD0000FA
:10569000140100100FB410B503A9044B044A02987A
:1056A00000F000F910BC08BC04B0184721620000EB
:1056B000240100100FB410B504A9074B02AA0398E7
:1056C00000F0F0F8044602A9002000F087FC204614
:1056D00010BC08BC04B01847DD5F00002021020C9C
:1056E00001D010211046020A01D0104608390209E3
:1056F00001D01046091F820801D01046891E4208B9
:1057000001D0881E7047081A704730B47446641E72
:105710002578641CAB4200D21D46635D5B00E31834
:1057200030BC1847004870473001001002E008C83C
:10573000121F08C1002AFAD170477047002001E00B
:1057400001C1121F002AFBD170470000F0B51FB441
:1057500084B007980699020D014314D04A484B497A
:105760001018484305140F9801280E981CD0281AC9
:10577000401C0024464E47490094019102900028A5
:1057800014DA474227E00F98012443A3012808D0E8
:10579000002104980F9A84600360C260416009B0E0
:1057A000F0BD0E98C143F4E74042E2E7074612E03D
:1057B000F80707D02246334601990098FBF7BCFE54
:1057C000019100902246334610461946FBF7B4FE7D
:1057D00004460E467F10002FEAD10298019B002854
:1057E000009A0799069802DAFBF7A6FE01E0FBF79C
:1057F0000BFF04460E460022284BFBF7D1FF03D8CF
:105800000020C043014607E00022254B20463146D8
:10581000FBF7E0FDFCF71CF9102409E0002C0ADB83
:105820000A220023FBF7D0FF059B30321A55641E75
:1058300002460A43F2D11122641C059B121B1C195B
:105840000F9B012B03D0012308430ED10AE008432C
:1058500004D011200E9000200F9084E70E98151AA6
:105860006D1E0BE00E98824202DD00236D1C03E0EA
:10587000824201DA00236D1E002BEED004980F99AE
:105880008260C16030C08AE701FCFFFF104D00005C
:10589000000024400000F03F300000000000F04312
:1058A0000000E03FFFB597B00646002518E2252826
:1058B00077D100242746FD49049400E00443761C78
:1058C00032780120203A90400842F7D130782A28D7
:1058D0000ED00222307801463039092916D80499B1
:1058E0000A235943303940181443761C0490F1E7D9
:1058F000189802C804911890002904DA0120400386
:1059000004434842049002200443761C30782E2839
:1059100014D1042004437078761C2A2809D11898E1
:10592000761C80C8189009E00A214F43303FC71900
:10593000761C3078014630390929F5D930786C2841
:1059400010D006DC4C281AD068280ED06A2817D14F
:1059500004E0742813D07A2812D110E00120400509
:1059600004430CE00121090501E0032109050C4372
:105970007178814203D1012000052418761C761C21
:105980003078119066280BD013DC58287DD009DCC4
:1059900000287BD04528F6D04628F4D047281AD1D5
:1059A000A5E118E0632835D0642870D0652812D1AD
:1059B0009DE170286CD008DC6728F1D069287BD085
:1059C0006E280DD06F2806D1BAE073282ED0752826
:1059D00071D0782859D01A9A199990476D1C7EE198
:1059E0006002400F022809D003280DD0042818981F
:1059F00001680DD00D60001D189070E11898EA172D
:105A000001680D604A60F6E7189801680D80F2E7BA
:105A10000D70F0E718986A4601781172001D189011
:105A20000020507202A80090012005E0189802C8DA
:105A3000189000200091C04361070DD5002101E0BE
:105A40000199491C0191B94212DA8142F8DB009AAE
:105A5000515C0029F4D10BE0002101E00199491CBF
:105A600001918142FADB019A0099895C0029F5D104
:105A7000019904981A9B471A21463846199A00F052
:105A800097FA0199401945180BE04FE02CE113E01B
:105A90004EE0009800990078491C00911A9A1999D3
:105AA00090470198401E0190401CF2D12146384693
:105AB0001A9B199A10E137E00A2000210090019109
:105AC0006002410F022907D0189A01CA1892C21722
:105AD0009446032908D00AE01898C01DC108C900DF
:105AE00005C91891944607E000B2C21794460429EC
:105AF00002D140B2C1178C4600226146944506DAB5
:105B00000A460021404291418C462D2102E02105A8
:105B100004D52B216A461173012103E0E10701D06E
:105B20002021F7E7029155E00A200AE0102008E062
:105B3000102000900021042004430191082703E075
:105B400008200021019100906002410F022907D036
:105B5000189A01CA189200229446032908D008E036
:105B60001898C01DC108C90005C91891944603E0E2
:105B700080B2042900D1C0B200210291210729D5A9
:105B80001199702906D0009A1021019B4A401A43AE
:105B900005D00EE040216A461173012108E06146FC
:105BA000014306D030216A461173119951730221C5
:105BB0000291009A0821019B4A401A430AD161468A
:105BC000014301D1610705D530216A4611730121D6
:105BD0007F1E02911199582904D035A10E910DA96B
:105BE0000D910DE037A1F9E76146019B009AFBF7A3
:105BF000EBFD0E9B8C469B5C0D9A521E0D92137012
:105C000061460143F0D10D9805A9081A2030019092
:105C1000600703D501200004844300E001270198B8
:105C2000874201DD381A00E00020019900904118F8
:105C3000029809180498401A0490E00306D42146FB
:105C40001A9B199A049800F0B3F94519002706E049
:105C500003A81A9AC05D199990476D1C7F1C029881
:105C60008742F5DBE0030CD521461A9B199A04986C
:105C700000F09EF9451904E01A9A302019999047CE
:105C80006D1C0099481E00900029F5DC08E00D9875
:105C90000D990078491C0D911A9A199990476D1C1D
:105CA0000199481E01900029F1DC63E109280100F7
:105CB0003031323334353637383961626364656682
:105CC0000000000030313233343536373839414244
:105CD000434445460000000000F05AF94519761C7F
:105CE0003078002800D0E2E528461BB0F0BD600700
:105CF00000D406271898C01DC108C90048680A6862
:105D00000831C30FDB071891190001D09CA108E0EE
:105D1000210501D59BA104E0E10701D09AA100E093
:105D20009AA1430011985B08109165280CD006DCFD
:105D3000452809D046281DD0472841D141E0662892
:105D400018D067283CD13CE00021112F01DB112045
:105D500000E0781C0191009008A911A8FFF7F6FC5B
:105D6000139905910021119A15927F1C12980197A1
:105D7000009150E00120C00703900120019008A984
:105D8000009711A8FFF7E2FC139A149905920022DC
:105D9000119B009212981593059A0192002901D047
:105DA000104602E0791C40180190381A01D501987C
:105DB00004E04042401E0090781C0190C01B0290FD
:105DC00043E0012F00DA01270021112F01DD11200E
:105DD00000E038460191009008A911A8FFF7B6FC31
:105DE00013990591119A002112981592009101972B
:105DF00021070CD40599B94201DB019900E001911A
:105E0000012904DD159A491E515C302906D0B8429B
:105E100001DA011D05DA0121029115E00199491EFF
:105E2000EDE7002805DC0099411800910199091A55
:105E300003E0019A411C914200DD01910099401A52
:105E4000401C02900120C0070390200706D402994D
:105E50000198814202DB0020C04302900020694685
:105E6000C87707AF012103980337C907884224D0B8
:105E7000022011902B201290039800280CDA404247
:105E800003902D20129007E00A210398FBF730F9C8
:105E900030317F1E039039701199481E11900029EE
:105EA000F2DC03980028EFD1791E12980870307840
:105EB000202108404530BF1E387006A8C01BC01DF9
:105EC000039010980078002800D001200199411813
:105ED0000298C0170918039809180498401A401E20
:105EE0000490E00306D421461A9B199A049800F006
:105EF0005FF8451910980078002803D01A9A19996C
:105F000090476D1CE00324D521461A9B199A0498EA
:105F100000F04EF845191CE00098002807DB0099B6
:105F20000598884203DD1598405C199901E019999C
:105F300030201A9A904700986D1C401C00900298DF
:105F4000401E0290002804D11A9A2E2019999047D9
:105F50006D1C0199481E01900029DDDC05E03878B0
:105F60001A9A7F1C199990476D1C0399481E03903B
:105F70000029F4DC21461A9B199A0498ACE600002B
:105F80002D0000002B000000200000000000000099
:105F9000F8B5044600251E461746880404D405E0DB
:105FA00039462020B0476D1C641EF9D52846F8BD3F
:105FB000FFB50446002581B01E46C80301D5302731
:105FC00000E02027880404D505E038460399B0474F
:105FD0006D1C641EF9D5284605B0F0BD0A68531C37
:105FE0000B60107070478268002902D0002A03D12C
:105FF00081607047020002D010680028FAD1116059
:106000004A60704770B514000D4606460DD0206AF0
:10601000002802D0054949688847284600F056F80C
:10602000206221463046FFF7DEFF70BDC40000103D
:1060300010B500F037F8002801D00621C16010BD6E
:1060400070B5054600F02EF8040005D00420E0608D
:10605000284600F03BF82061204670BD70B504462C
:106060000F4E19E0A0892568C0050CD4A06800284F
:1060700004D0FFF7F3FFA089C00504D420690028ED
:1060800001D071688847206A002801D0716888476C
:106090007168204688472C46002CE3D170BD000073
:1060A000C400001010B5054928200968884704007D
:1060B00002D02821FBF74BF8204610BDC400001089
:1060C00010B50022114600F0D5FC10BD70B5064693
:1060D000FBF772F80649401C09680446884705002A
:1060E00004D022463146FBF719F8284670BD00005F
:1060F000C400001070B50546082000F0EFFC0E4CFF
:106100006320E06000262661A660E1680B48491C18
:1061100069430068FAF7ECFFA0610320606106485C
:1061200040300663012060601120FCF71FFB002156
:106130001120FCF725FB70BD00000140C0000010DD
:10614000044A01E0491EFDD2401E01D3911EF9E729
:10615000704700000E1F0000F8B54A002B4B520D8F
:10616000D6182B4A0C460546142E2BDA002E12DACE
:10617000284BFBF72FF900221346FBF711FB40D207
:10618000002C02DB002425463BE060004008284349
:1061900037D0214C14E0214F0B46F7403B402B43B6
:1061A00031D01C4BFBF716F900221346FBF7F8FA27
:1061B00027D2002C03DA01200005F0400419BC436B
:1061C00000251EE0332E1EDC33460027143BFF4320
:1061D000DF40384217D00F4BFBF7A6F900221346D9
:1061E000FBF7DEFA0DD2002C0ADA142E0CD0342084
:1061F000811B012088404019A84200D2641C05463A
:10620000BD4321462846F8BD641CF9E701FCFFFFA9
:106210009C7500883CE4377E0000F0BFFFFF0F0054
:1062200010B50446C0B200F0EBFC204610BD0000E3
:1062300010B5002823D0124B0022001F196803E07C
:10624000814203D80A4649680029F9D1002A0AD0B8
:106250001368841A9C4204D1006818181060104614
:1062600002E0506000E01860002907D002680B1AB5
:10627000934203D10B68D21802604968416010BD97
:10628000280100100122D2038018C26901238B402B
:106290001A43C26170470122D203801802690123A8
:1062A0008B401A43026170477F22D2018018C06F71
:1062B00001228A40104000D0012070470122D20301
:1062C0008018806901228A40104000D00120704768
:1062D00010B57F24E40101238B400019C16F002A0F
:1062E00001D0194300E09943C16710BD10B50123E7
:1062F000DC038B4000190168012A02D09943016038
:1063000010BD1943FBE710B50124E3038C40C0180E
:106310001300FFF7FAF9061004070A111A10416872
:10632000A1430BE04168A14311E04168A1434160F2
:1063300081682143816010BD4168214341608168CB
:10634000A1438160C168214307E041682143416066
:106350008168A1438160C168A143C16010BD000094
:10636000002001221203110408CA401C08C1C0B257
:106370003028F9D32F4901200860FEF7C1F810201A
:1063800000F0ACFB2C48426A11210A434262826A47
:106390000A438262E120400200F0F0FB27A22AA11A
:1063A0002CA0FFF777F9FEF79FF8FEF7C3FBFBF78A
:1063B000ADFFFEF751FA012811D0FDF791FEFBF772
:1063C000C9FEFBF7C3FDFCF71DF8FDF7DFF9FEF78B
:1063D00033FE002807D0FFF75DF8FCF715FA082018
:1063E000FEF716FCFEE700F079FCFDF793FD21A116
:1063F00023A0FEF7DAF9FCF787FDFDF77BFF012804
:1064000002D10720FEF704FC1FA0FFF743F900F0BC
:106410005BFCFCF769F8FDF721FDFCF729FFFCF7B1
:10642000DBFFFCF715FAFBF7A9FEFDF74DF9FBF7CB
:10643000CBFDECE7008004408040044031303A3529
:10644000353A3238000000004A756C202035203281
:10645000303136005468652053797374656D20536C
:10646000746172742055705B25732025735D0D0A6D
:106470000000000032303136303730353130000026
:10648000302E302E3200000053797374656D204E2B
:106490006F726D616C20576F726B0D0A0000000007
:1064A000F0B50B30C108C900144F0026144A0FE0A4
:1064B00003688B420BD38B4205D95C1A431845689D
:1064C00030C3083B00E04368136002C004E0021DD3
:1064D00010680028ECD13046002803D13868002825
:1064E00001D00020F0BD064A06481060064A121A84
:1064F000D208D20044C001203860D7E72C01001038
:1065000028010010E4050010E00D0010F7B505208B
:1065100084B000900498002580682F46019501E022
:1065200000686D1C0028FBD1444A002D11680AD078
:10653000A8000446884706000FD02146FAF707FE58
:106540000498846827E003208847040002D03CA117
:10655000FAF754FE204607B0F0BD0020FBE705998E
:106560002046491C069A00F085FA0199890070506E
:106570000199491C019100280BD0FAF71DFE0699DC
:10658000002900D00121411800980818801C0090B3
:1065900000E001272468002C02D0002FDFD010E09B
:1065A000002F0ED1254900980968884702900028DD
:1065B00007D05B2101700020029C07466070641CBC
:1065C0002FE000241D4F06E0A0003058002801D025
:1065D00079688847641CAC42F6DB796830468847A6
:1065E000BBE7B8000190009031582046FAF706FE4C
:1065F00000983058FAF7E0FD0419681E87420AD067
:106600002C2020700698641C002802D020202070C6
:10661000641C002020700949019849683058884757
:106620007F1CAF42DDDB05493046496888475D2065
:1066300020700020607002988DE70000C4000010F8
:106640005B5D0000F8B50646143031C8304FFBF7EB
:1066500053F822462B46FAF761FF49004908002209
:106660002C4BFBF789F817D82B4A2C4B2046294690
:10667000FBF782F810D80022294B20462946FBF769
:106680008FF809D839681520884707003ED025A122
:106690007269FFF70FF839E0396840208847070032
:1066A00034D020462946FFF757FD22462B46FAF7FD
:1066B00035FF490049080022164BFBF75DF80BD85F
:1066C000690020464908184A184BFBF755F803D2D1
:1066D00022462B4616A116E06900490820460E46C0
:1066E000154A164BFBF748F806D3204631460022E0
:1066F000134BFBF755F803D222462B4611A102E0BB
:1067000022462B4610A13846FEF7D4FF3846F8BD86
:10671000C40000100000B03C0000C0FFFFFFDF41DC
:106720000000E0C12564000044F3C2E4E4E9634CE6
:10673000252E3066000000008DEDB5A0F7C6B03EF6
:1067400065CDCD412565000025660000F7B58AB00E
:1067500007200690002000900A98002680681546C1
:10676000059601E00068761C0028FBD1894F002EB9
:10677000396820D0B000044688470390002839D0FB
:106780003946096820468847070035D021460398D6
:10679000FAF7DDFC21463846FAF7D9FC0A988068FA
:1067A00001900B98401C0B90002D59D00B99069826
:1067B0004018069054E0002D02D00B98001D00E018
:1067C00003208847002815D07B210170411C002D33
:1067D0000CD00A220A700B9A00230924491C521E6D
:1067E00002E00C70491C5B1C9342FADB7D220A70AC
:1067F00000224A700DB0F0BD66490398496862E016
:10680000006A00F0C9F8009909908C0038512A46B6
:106810000B99019800F02EF9039A01461051009847
:10682000401C00900998002815D0002913D0084674
:10683000FAF7C2FC04460998FAF7BEFC2118002DAD
:1068400002D00B98801C00E0002009180698081858
:10685000801C069001E001200590019800680190DD
:1068600001980028CCD10598002813D149490698F1
:1068700009688847089000280CD008997B20087088
:10688000089C641C002D02D00A202070641C00208B
:10689000207062E000240EE0A5007859002802D0A4
:1068A0003C494968884703984059002802D0394933
:1068B00049688847641CB442EEDB364C3846616850
:1068C0008847616803988847002093E7002D08D027
:1068D0000020092202E02270401C641C0B998842AF
:1068E000F9DB009880000590069039582046FAF7A9
:1068F00085FC06983858FAF75FFC04193A20207096
:10690000641C002D02D009202070641C0399059896
:1069100009582046FAF772FC039905980858FAF7C7
:106920004BFC04190098711E884202D02C20207064
:10693000641C002D02D00A202070641C00202070EE
:1069400014490598496838588847039905980858A4
:106950001049496888470098401C0090B042B5DB58
:106960000C4E384671688847716803988847002D37
:1069700009D00B9900200922491E02E02270401C18
:10698000641C8842FADB7D2020700020607008982B
:1069900030E70000C4000010F8B5002504460028C8
:1069A00001D006460FE02DA0FFF790FBF8BD394659
:1069B0002BA0FAF7F7FB002801D06D1C02E0202F76
:1069C00000D26D1D761C3778002F01D06D1CEED1E2
:1069D0002549E81C096888470500E7D0222606708B
:1069E000681C23E01F2907D9222905D05C2903D080
:1069F0000170401C641C19E05C210170401C22786D
:106A0000641C07460C2A1FD006DC082A1AD0092A63
:106A100020D00A2A06D119E00D2A19D0222A0ED038
:106A20005C2A0AD011A1FEF745FE781D21780029C5
:106A3000D8D1067041702846F8BD397000E03E702C
:106A4000401CF3E7622006E0662004E06E2002E0CE
:106A5000722000E074203870781CE7E70000000026
:106A6000225C080C0A0D0900C400001075253034A2
:106A70007800000070B504460020002C08D0257B6B
:106A80002B00FEF742FE07090B070F13171B06002A
:106A9000002070BD0BA002E00CA000E00DA0FFF7ED
:106AA00015FB70BD2046FFF7CDFD70BD2069FFF7D7
:106AB00073FF70BD2046FFF729FD70BD2046FFF72C
:106AC00045FE70BD6E756C6C0000000066616C73F5
:106AD00065000000747275650000000003490A68D3
